{
  "contractName": "Dates",
  "abi": [
    {
      "inputs": [],
      "payable": false,
      "stateMutability": "nonpayable",
      "type": "constructor"
    },
    {
      "constant": false,
      "inputs": [
        {
          "name": "doctorAddress",
          "type": "address"
        },
        {
          "name": "patientAddress",
          "type": "address"
        },
        {
          "name": "_date",
          "type": "uint256"
        }
      ],
      "name": "addDate",
      "outputs": [],
      "payable": false,
      "stateMutability": "nonpayable",
      "type": "function"
    },
    {
      "constant": true,
      "inputs": [
        {
          "name": "id",
          "type": "string"
        },
        {
          "name": "userAddress",
          "type": "address"
        },
        {
          "name": "_type",
          "type": "uint256"
        }
      ],
      "name": "getDate",
      "outputs": [
        {
          "name": "",
          "type": "string"
        }
      ],
      "payable": false,
      "stateMutability": "view",
      "type": "function"
    },
    {
      "constant": true,
      "inputs": [
        {
          "name": "_address",
          "type": "address"
        },
        {
          "name": "_type",
          "type": "uint256"
        }
      ],
      "name": "listDatesIds",
      "outputs": [
        {
          "name": "",
          "type": "string"
        }
      ],
      "payable": false,
      "stateMutability": "view",
      "type": "function"
    }
  ],
  "bytecode": "0x608060405234801561001057600080fd5b5060008054600160a060020a031916331790556113b6806100326000396000f3006080604052600436106100565763ffffffff7c01000000000000000000000000000000000000000000000000000000006000350416630c5b5312811461005b5780634fbfd1cf1461013a578063980c240f1461015e575b600080fd5b34801561006757600080fd5b506040805160206004803580820135601f81018490048402850184019095528484526100c594369492936024939284019190819084018382808284375094975050508335600160a060020a031694505050602090910135905061018a565b6040805160208082528351818301528351919283929083019185019080838360005b838110156100ff5781810151838201526020016100e7565b50505050905090810190601f16801561012c5780820380516001836020036101000a031916815260200191505b509250505060405180910390f35b34801561014657600080fd5b506100c5600160a060020a036004351660243561084d565b34801561016a57600080fd5b50610188600160a060020a0360043581169060243516604435610c1a565b005b6060806101956112c8565b6000606085600114156102d357600160a060020a038716600090815260016020908152604080832080548251818502810185019093528083529193909284015b828210156102c85760008481526020908190206040805160048602909201805460026001821615610100026000190190911604601f8101859004909402830160a0908101909252608083018481529293909284929091849184018282801561027e5780601f106102535761010080835404028352916020019161027e565b820191906000526020600020905b81548152906001019060200180831161026157829003601f168201915b50505091835250506001828101546020808401919091526002840154600160a060020a039081166040850152600390940154909316606090920191909152918352920191016101d5565b505050509350610400565b600160a060020a038716600090815260026020908152604080832080548251818502810185019093528083529193909284015b828210156103f95760008481526020908190206040805160048602909201805460026001821615610100026000190190911604601f8101859004909402830160a090810190925260808301848152929390928492909184918401828280156103af5780601f10610384576101008083540402835291602001916103af565b820191906000526020600020905b81548152906001019060200180831161039257829003601f168201915b50505091835250506001828101546020808401919091526002840154600160a060020a03908116604085015260039094015490931660609092019190915291835292019101610306565b5050505093505b600091505b83518210156105e457876040516020018082805190602001908083835b602083106104415780518252601f199092019160209182019101610422565b6001836020036101000a0380198251168184511680821785525050505050509050019150506040516020818303038152906040526040518082805190602001908083835b602083106104a45780518252601f199092019160209182019101610485565b5181516020939093036101000a60001901801990911692169190911790526040519201829003909120875190935087925085915081106104e057fe5b90602001906020020151600001516040516020018082805190602001908083835b602083106105205780518252601f199092019160209182019101610501565b6001836020036101000a0380198251168184511680821785525050505050509050019150506040516020818303038152906040526040518082805190602001908083835b602083106105835780518252601f199092019160209182019101610564565b6001836020036101000a03801982511681845116808217855250505050505090500191505060405180910390206000191614156105d95783828151811015156105c857fe5b9060200190602002015192506105e4565b600190910190610405565b825160208401516105f490610d9a565b6106018560600151610e8d565b61060e8660400151610e8d565b60405160200180807f7b00000000000000000000000000000000000000000000000000000000000000815250600101807f226964223a22000000000000000000000000000000000000000000000000000081525060060185805190602001908083835b602083106106905780518252601f199092019160209182019101610671565b51815160209384036101000a60001901801990921691161790527f222c2274696d657374616d70223a220000000000000000000000000000000000919093019081528651600f90910192870191508083835b602083106107015780518252601f1990920191602091820191016106e2565b51815160209384036101000a60001901801990921691161790527f222c2270617469656e74223a2200000000000000000000000000000000000000919093019081528551600d90910192860191508083835b602083106107725780518252601f199092019160209182019101610753565b51815160209384036101000a60001901801990921691161790527f222c22646f63746f72223a220000000000000000000000000000000000000000919093019081528451600c90910192850191508083835b602083106107e35780518252601f1990920191602091820191016107c4565b5181516020939093036101000a60001901801990911692169190911790527f227d00000000000000000000000000000000000000000000000000000000000092019182525060408051808303601d19018152600290920190529d9c50505050505050505050505050565b60608060606000846001141561098e57600160a060020a038616600090815260016020908152604080832080548251818502810185019093528083529193909284015b828210156109835760008481526020908190206040805160048602909201805460026001821615610100026000190190911604601f8101859004909402830160a090810190925260808301848152929390928492909184918401828280156109395780601f1061090e57610100808354040283529160200191610939565b820191906000526020600020905b81548152906001019060200180831161091c57829003601f168201915b50505091835250506001828101546020808401919091526002840154600160a060020a03908116604085015260039094015490931660609092019190915291835292019101610890565b505050509250610abb565b600160a060020a038616600090815260026020908152604080832080548251818502810185019093528083529193909284015b82821015610ab45760008481526020908190206040805160048602909201805460026001821615610100026000190190911604601f8101859004909402830160a09081019092526080830184815292939092849290918491840182828015610a6a5780601f10610a3f57610100808354040283529160200191610a6a565b820191906000526020600020905b815481529060010190602001808311610a4d57829003601f168201915b50505091835250506001828101546020808401919091526002840154600160a060020a039081166040850152600390940154909316606090920191909152918352920191016109c1565b5050505092505b600083511115610bff57826000815181101515610ad457fe5b60209081029091010151519150600190505b8251811015610bf757818382815181101515610afe57fe5b90602001906020020151600001516040516020018083805190602001908083835b60208310610b3e5780518252601f199092019160209182019101610b1f565b6001836020036101000a038019825116818451168082178552505050505050905001807f2c0000000000000000000000000000000000000000000000000000000000000081525060010182805190602001908083835b60208310610bb35780518252601f199092019160209182019101610b94565b6001836020036101000a0380198251168184511680821785525050505050509050019250505060405160208183030381529060405291508080600101915050610ae6565b819350610c11565b60408051602081019091526000815293505b50505092915050565b600080610c256112c8565b600160a060020a0380871660009081526001602090815260408083209389168352600290915290209093509150610c63610c5e8661108c565b6111b6565b81526020808201859052600160a060020a038088166040840152861660608301528354600181018086556000868152839020845180519294869460040290920192610cb192849201906112ef565b50602082810151600183810191909155604084015160028401805473ffffffffffffffffffffffffffffffffffffffff19908116600160a060020a03938416179091556060909501516003909401805490951693169290921790925584549081018086556000868152839020855180519295508694600490940290910192610d3e928492909101906112ef565b5060208201516001820155604082015160028201805473ffffffffffffffffffffffffffffffffffffffff19908116600160a060020a039384161790915560609093015160039092018054909316911617905550505050505050565b60606000808281851515610de35760408051808201909152600181527f300000000000000000000000000000000000000000000000000000000000000060208201529450610e84565b8593505b8315610dfe57600190920191600a84049350610de7565b826040519080825280601f01601f191660200182016040528015610e2c578160200160208202803883390190505b5091505060001982015b8515610e8057815160001982019160f860020a6030600a8a060102918491908110610e5d57fe5b906020010190600160f860020a031916908160001a905350600a86049550610e36565b8194505b50505050919050565b604080518082018252601081527f303132333435363738396162636465660000000000000000000000000000000060208201528151602a8082526060828101909452600160a060020a03851692918491600091908160200160208202803883390190505091507f3000000000000000000000000000000000000000000000000000000000000000826000815181101515610f2357fe5b906020010190600160f860020a031916908160001a9053507f7800000000000000000000000000000000000000000000000000000000000000826001815181101515610f6b57fe5b906020010190600160f860020a031916908160001a905350600090505b6014811015610e805782600485600c840160208110610fa357fe5b1a60f860020a02600160f860020a0319169060020a900460f860020a900460ff16815181101515610fd057fe5b90602001015160f860020a900460f860020a028282600202600201815181101515610ff757fe5b906020010190600160f860020a031916908160001a9053508284600c83016020811061101f57fe5b1a60f860020a02600f60f860020a021660f860020a900460ff1681518110151561104557fe5b90602001015160f860020a900460f860020a02828260020260030181518110151561106c57fe5b906020010190600160f860020a031916908160001a905350600101610f88565b6000806000803385426040516020018084600160a060020a0316600160a060020a03166c0100000000000000000000000002815260140183600160a060020a0316600160a060020a03166c0100000000000000000000000002815260140182815260200193505050506040516020818303038152906040526040518082805190602001908083835b602083106111335780518252601f199092019160209182019101611114565b5181516020939093036101000a60001901801990911692169190911790526040519201829003909120955060009450601393505050505b60008160010111156111ae57600181601460ff16030360020260100a838260148110151561119457fe5b60f860020a91901a8102040291909101906000190161116a565b509392505050565b6060600080808381808715156112015760408051808201909152600181527f3000000000000000000000000000000000000000000000000000000000000000602082015296506112bd565b8795505b851561121c57601090950494600190940193611205565b600f9350846040519080825280601f01601f19166020018201604052801561124e578160200160208202803883390190505b5092506001850391505b87156112b9575086831660098111611279578060300160f860020a02611284565b8060370160f860020a025b83516000198401938591811061129657fe5b906020010190600160f860020a031916908160001a905350601090970496611258565b8296505b505050505050919050565b60408051608081018252606080825260006020830181905292820183905281019190915290565b828054600181600116156101000203166002900490600052602060002090601f016020900481019282601f1061133057805160ff191683800117855561135d565b8280016001018555821561135d579182015b8281111561135d578251825591602001919060010190611342565b5061136992915061136d565b5090565b61138791905b808211156113695760008155600101611373565b905600a165627a7a7230582030a921d6ec66fde39c7da99c33c3d4493b6b66feba45d412d328efe424df1c390029",
  "source": "// \"0x7bE7EFD22Ca998B2C22929b26eB5932A273a28cF\", \"0xE624122809662bF44D2bDCE71D89Cfb4be6a4F76\", 123456\n// \"0x7bE7EFD22Ca998B2C22929b26eB5932A273a28cF\", \"0x2Cc8E528796B61Ce0645165d5DA5a4F8f835E722\", 456789\n\n// \"0x2Cc8E528796B61Ce0645165d5DA5a4F8f835E722\", 0\n\npragma solidity ^0.4.24;\n\ncontract Dates {\n\n    address private owner;\n\n\tstruct Date {\n\t\tstring id;\n\t\tuint256 timestamp;\n\t\taddress doctor;\n\t\taddress patient;\n\t}\n\n\tconstructor() public {\n\t\towner = msg.sender;\n\t}\n\n\tmapping(address => Date[]) private doctorsDates;\n\tmapping(address => Date[]) private patientsDates;\n\n\t// add a date to Doctor\n\tfunction addDate(address doctorAddress, address patientAddress, uint _date) public {  \n\n\t\t// Create new pointer to Date\n\t    Date[] storage dDates = doctorsDates[doctorAddress];\n\t    Date[] storage pDates = patientsDates[patientAddress];\n\n\t\t// Create new Date Object\n\t\tDate memory newDate;\n\t\tnewDate.id = uint2hexstr(getUniqueId(patientAddress));\n\t\tnewDate.timestamp = _date;\n\t\tnewDate.doctor = doctorAddress;\n\t\tnewDate.patient = patientAddress;\n\t    \n\t\t// Push the new Date object to patient and doctor\n\t    dDates.push(newDate);\n\t    pDates.push(newDate);\n\t}\n\n\t// Get Date object given ID, address and user type\n\tfunction getDate(string id, address userAddress, uint _type) public view returns (string) {   \n\t\tDate[] memory dates;\n\t\t// If Doctor\n\t    if (_type == 1) {\n\t\t\tdates = doctorsDates[userAddress]; \n\t\t}\n\t    // Else Patient\n\t    else { \n\t\t\tdates = patientsDates[userAddress];\n\t\t}\n\n\t\t// Iterate between dates array\n\t\tDate memory d;\n\t\tfor (uint i = 0; i < dates.length; i++) {\n\t\t    if (keccak256(abi.encodePacked(dates[i].id)) == keccak256(abi.encodePacked(id))) {\n\t\t        d = dates[i];\n\t\t        break;\n\t\t    }\n\t\t}\n\n\t\tstring memory res = string(abi.encodePacked('{',\n\t\t\t'\"id\":\"', d.id,\n\t\t\t'\",\"timestamp\":\"', uint2str(d.timestamp), \n\t\t\t'\",\"patient\":\"', addressToString(d.patient),\n\t\t\t'\",\"doctor\":\"', addressToString(d.doctor),\n\t\t\t'\"}'));\n\n\t\treturn res;\n\n\t}\n\n\tfunction listDatesIds(address _address, uint _type) public view returns (string) {\n\t\tDate[] memory dates;\n\n\t\t// If Doctor\n\t    if (_type == 1) {\n\t\t\tdates = doctorsDates[_address]; \n\t\t}\n\t    // Else Patient\n\t    else { \n\t\t\tdates = patientsDates[_address];\n\t\t}\n\n\t\tif (dates.length > 0) {\n\t\t\tstring memory datesIds;\n\t\t\tdatesIds = dates[0].id;\n\t\t\tfor (uint i = 1; i < dates.length; i++) {\n\t\t\t\tdatesIds = string(abi.encodePacked(datesIds, \",\", dates[i].id));\n\t\t\t}\n\t\t\treturn datesIds;\n\t\t} else {\n\t\t\treturn \"\";\n\t\t}\n\t}\n\n\t// Generate unique ID\n    function getUniqueId(address patientAddress) internal view returns (uint) {\n        // hash the msg.sender + patientAddress + date now\n        bytes20 b = bytes20(keccak256(abi.encodePacked(msg.sender, patientAddress, now)));  \n        uint id = 0;\n        for (uint index = b.length-1; index+1 > 0; index--) {\n            id += uint(b[index]) * ( 16 ** ((b.length - index - 1) * 2));\n        }\n        return id;\n    }\n\n\t// uint to string\n    function uint2hexstr(uint i) internal pure returns (string) {\n        if (i == 0) return \"0\";\n        uint j = i;\n        uint length;\n        while (j != 0) {\n            length++;\n            j = j >> 4;\n        }\n        uint mask = 15;\n        bytes memory bstr = new bytes(length);\n        uint k = length - 1;\n        while (i != 0){\n            uint curr = (i & mask);\n            bstr[k--] = curr > 9 ? byte(55 + curr ) : byte(48 + curr); // 55 = 65 - 10\n            i = i >> 4;\n        }\n        return string(bstr);\n    }\n\n\t// Address to string\n    function addressToString(address _addr) internal pure returns(string) {\n        bytes32 value = bytes32(uint256(_addr));\n        bytes memory alphabet = \"0123456789abcdef\";\n    \n        bytes memory str = new bytes(42);\n        str[0] = '0';\n        str[1] = 'x';\n        for (uint i = 0; i < 20; i++) {\n            str[2+i*2] = alphabet[uint(uint8(value[i + 12] >> 4))];\n            str[3+i*2] = alphabet[uint(uint8(value[i + 12] & 0x0f))];\n        }\n        return string(str);\n    }\n\n\tfunction uint2str(uint i) internal pure returns (string){\n\t\tif (i == 0) return \"0\";\n\t\tuint j = i;\n\t\tuint length;\n\t\twhile (j != 0){\n\t\t\tlength++;\n\t\t\tj /= 10;\n\t\t}\n\t\tbytes memory bstr = new bytes(length);\n\t\tuint k = length - 1;\n\t\twhile (i != 0){\n\t\t\tbstr[k--] = byte(48 + i % 10);\n\t\t\ti /= 10;\n\t\t}\n\t\treturn string(bstr);\n\t}\n}",
  "sourcePath": "/Users/Gabriel/medical-blockchain/contracts/Dates.sol",
  "compiler": {
    "name": "solc",
    "version": "0.4.24+commit.e67f0147.Emscripten.clang"
  },
  "schemaVersion": "2.0.1",
  "updatedAt": "2020-04-29T02:26:40.249Z"
}