{
  "contractName": "Doctor",
  "abi": [
    {
      "constant": true,
      "inputs": [
        {
          "name": "",
          "type": "uint256"
        }
      ],
      "name": "listTotalDoctors",
      "outputs": [
        {
          "name": "",
          "type": "address"
        }
      ],
      "payable": false,
      "stateMutability": "view",
      "type": "function"
    },
    {
      "inputs": [],
      "payable": false,
      "stateMutability": "nonpayable",
      "type": "constructor"
    },
    {
      "constant": false,
      "inputs": [
        {
          "name": "doctorAddress",
          "type": "address"
        },
        {
          "name": "name",
          "type": "string"
        },
        {
          "name": "idCard",
          "type": "string"
        },
        {
          "name": "specialization",
          "type": "string"
        },
        {
          "name": "email",
          "type": "string"
        },
        {
          "name": "joiningDate",
          "type": "string"
        },
        {
          "name": "hashProfileImg",
          "type": "string"
        },
        {
          "name": "password",
          "type": "string"
        }
      ],
      "name": "registerDoctor",
      "outputs": [],
      "payable": false,
      "stateMutability": "nonpayable",
      "type": "function"
    },
    {
      "constant": false,
      "inputs": [
        {
          "name": "doctorAddress",
          "type": "address"
        },
        {
          "name": "hashProfileImg",
          "type": "string"
        }
      ],
      "name": "changeDoctorImage",
      "outputs": [],
      "payable": false,
      "stateMutability": "nonpayable",
      "type": "function"
    },
    {
      "constant": true,
      "inputs": [
        {
          "name": "addr",
          "type": "address"
        },
        {
          "name": "password",
          "type": "string"
        }
      ],
      "name": "loginDoctor",
      "outputs": [
        {
          "name": "",
          "type": "string"
        }
      ],
      "payable": false,
      "stateMutability": "view",
      "type": "function"
    },
    {
      "constant": false,
      "inputs": [
        {
          "name": "doctorAddress",
          "type": "address"
        },
        {
          "name": "oldPassword",
          "type": "string"
        },
        {
          "name": "newPassword",
          "type": "string"
        }
      ],
      "name": "changeDoctorpassword",
      "outputs": [],
      "payable": false,
      "stateMutability": "nonpayable",
      "type": "function"
    },
    {
      "constant": true,
      "inputs": [
        {
          "name": "doctorAddress",
          "type": "address"
        }
      ],
      "name": "getDoctor",
      "outputs": [
        {
          "name": "",
          "type": "string"
        }
      ],
      "payable": false,
      "stateMutability": "view",
      "type": "function"
    },
    {
      "constant": false,
      "inputs": [
        {
          "name": "doctorAddress",
          "type": "address"
        },
        {
          "name": "_status",
          "type": "bool"
        }
      ],
      "name": "setDoctorStatus",
      "outputs": [],
      "payable": false,
      "stateMutability": "nonpayable",
      "type": "function"
    },
    {
      "constant": true,
      "inputs": [
        {
          "name": "docAddress",
          "type": "address"
        }
      ],
      "name": "listDoctors",
      "outputs": [
        {
          "name": "",
          "type": "address[]"
        }
      ],
      "payable": false,
      "stateMutability": "view",
      "type": "function"
    }
  ],
  "bytecode": "0x608060405234801561001057600080fd5b5060008054600160a060020a03191633179055611e52806100326000396000f30060806040526004361061008d5763ffffffff7c01000000000000000000000000000000000000000000000000000000006000350416631ca9aab181146100925780632dd6c055146100ba5780632f04e064146102955780633c3f9dcf1461032b5780637c81163d1461035857806380e544fc146103c95780638c7a2cf214610430578063cf5c1e4314610464575b600080fd5b34801561009e57600080fd5b506100b8600160a060020a03600435166024351515610509565b005b3480156100c657600080fd5b5060408051602060046024803582810135601f81018590048502860185019096528585526100b8958335600160a060020a031695369560449491939091019190819084018382808284375050604080516020601f89358b018035918201839004830284018301909452808352979a99988101979196509182019450925082915084018382808284375050604080516020601f89358b018035918201839004830284018301909452808352979a99988101979196509182019450925082915084018382808284375050604080516020601f89358b018035918201839004830284018301909452808352979a99988101979196509182019450925082915084018382808284375050604080516020601f89358b018035918201839004830284018301909452808352979a99988101979196509182019450925082915084018382808284375050604080516020601f89358b018035918201839004830284018301909452808352979a99988101979196509182019450925082915084018382808284375050604080516020601f89358b018035918201839004830284018301909452808352979a9998810197919650918201945092508291508401838280828437509497506105999650505050505050565b3480156102a157600080fd5b506102b6600160a060020a0360043516610808565b6040805160208082528351818301528351919283929083019185019080838360005b838110156102f05781810151838201526020016102d8565b50505050905090810190601f16801561031d5780820380516001836020036101000a031916815260200191505b509250505060405180910390f35b34801561033757600080fd5b506102b660048035600160a060020a0316906024803590810191013561115e565b34801561036457600080fd5b50610379600160a060020a036004351661175c565b60408051602080825283518183015283519192839290830191858101910280838360005b838110156103b557818101518382015260200161039d565b505050509050019250505060405180910390f35b3480156103d557600080fd5b5060408051602060046024803582810135601f81018590048502860185019096528585526100b8958335600160a060020a03169536956044949193909101919081908401838280828437509497506117c09650505050505050565b34801561043c57600080fd5b50610448600435611858565b60408051600160a060020a039092168252519081900360200190f35b34801561047057600080fd5b5060408051602060046024803582810135601f81018590048502860185019096528585526100b8958335600160a060020a031695369560449491939091019190819084018382808284375050604080516020601f89358b018035918201839004830284018301909452808352979a9998810197919650918201945092508291508401838280828437509497506118809650505050505050565b600061051483611a2c565b151561056a576040805160e560020a62461bcd02815260206004820152601860248201527f446f63746f72206973206e6f7420726567697374657265640000000000000000604482015290519081900360640190fd5b50600160a060020a03919091166000908152600160205260409020600801805460ff1916911515919091179055565b60006105a489611a2c565b156105f9576040805160e560020a62461bcd02815260206004820181905260248201527f54686520446f63746f7220697320616c72656164792072656769737465726564604482015290519081900360640190fd5b50600160a060020a0388166000908152600160209081526040909120885190916106279183918b0190611d30565b50865161063d90600283019060208a0190611d30565b5085516106539060048301906020890190611d30565b5084516106699060058301906020880190611d30565b50835161067f9060068301906020870190611d30565b5082516106959060078301906020860190611d30565b5060038101805473ffffffffffffffffffffffffffffffffffffffff19163317905560088101805460ff191660011790556040518251839160209081019182918401908083835b602083106106fb5780518252601f1990920191602091820191016106dc565b6001836020036101000a0380198251168184511680821785525050505050509050019150506040516020818303038152906040526040518082805190602001908083835b6020831061075e5780518252601f19909201916020918201910161073f565b51815160001960209485036101000a019081169019919091161790526040805194909201849003909320600196870155600160a060020a03909d16600081815260029093529c8220805460ff19168617905550600380549485018155905250507fc2575a0e9e593c00f959f8c92f12db2869c3395a3b0502d05e2516446f71f85b01805473ffffffffffffffffffffffffffffffffffffffff191690981790975550505050505050565b6060610812611dae565b606061081d84611a2c565b1515610873576040805160e560020a62461bcd02815260206004820152601860248201527f446f63746f72206973206e6f7420726567697374657265640000000000000000604482015290519081900360640190fd5b600160a060020a0384166000908152600160208181526040928390208351815460029481161561010002600019011693909304601f810183900490920283016101409081019094526101208301828152929390928492909184919084018282801561091f5780601f106108f45761010080835404028352916020019161091f565b820191906000526020600020905b81548152906001019060200180831161090257829003601f168201915b5050509183525050600182810154602080840191909152600280850180546040805160001996831615610100029690960190911692909204601f810184900484028501840183528085529190940193918301828280156109c05780601f10610995576101008083540402835291602001916109c0565b820191906000526020600020905b8154815290600101906020018083116109a357829003601f168201915b50505091835250506003820154600160a060020a031660208083019190915260048301805460408051601f60026000196001861615610100020190941693909304928301859004850281018501825282815294019392830182828015610a675780601f10610a3c57610100808354040283529160200191610a67565b820191906000526020600020905b815481529060010190602001808311610a4a57829003601f168201915b505050918352505060058201805460408051602060026001851615610100026000190190941693909304601f8101849004840282018401909252818152938201939291830182828015610afb5780601f10610ad057610100808354040283529160200191610afb565b820191906000526020600020905b815481529060010190602001808311610ade57829003601f168201915b505050918352505060068201805460408051602060026001851615610100026000190190941693909304601f8101849004840282018401909252818152938201939291830182828015610b8f5780601f10610b6457610100808354040283529160200191610b8f565b820191906000526020600020905b815481529060010190602001808311610b7257829003601f168201915b505050918352505060078201805460408051602060026001851615610100026000190190941693909304601f8101849004840282018401909252818152938201939291830182828015610c235780601f10610bf857610100808354040283529160200191610c23565b820191906000526020600020905b815481529060010190602001808311610c0657829003601f168201915b50505091835250506008919091015460ff1615156020909101529150610c4884611a4a565b825160408401516060850151610c5d90611a4a565b8560a0015186608001518760c00151886101000151610caf5760408051808201909152600581527f66616c73650000000000000000000000000000000000000000000000000000006020820152610ce4565b60408051808201909152600481527f747275650000000000000000000000000000000000000000000000000000000060208201525b8960e0015160405160200180807f7b00000000000000000000000000000000000000000000000000000000000000815250600101807f2261646472657373223a22000000000000000000000000000000000000000000815250600b018a805190602001908083835b60208310610d6b5780518252601f199092019160209182019101610d4c565b51815160209384036101000a60001901801990921691161790527f222c226e616d65223a2200000000000000000000000000000000000000000000919093019081528b51600a909101928c0191508083835b60208310610ddc5780518252601f199092019160209182019101610dbd565b51815160209384036101000a60001901801990921691161790527f222c22696443617264223a220000000000000000000000000000000000000000919093019081528a51600c909101928b0191508083835b60208310610e4d5780518252601f199092019160209182019101610e2e565b51815160209384036101000a60001901801990921691161790527f222c22637265617465644279223a220000000000000000000000000000000000919093019081528951600f909101928a0191508083835b60208310610ebe5780518252601f199092019160209182019101610e9f565b51815160209384036101000a60001901801990921691161790527f222c22656d61696c223a22000000000000000000000000000000000000000000919093019081528851600b90910192890191508083835b60208310610f2f5780518252601f199092019160209182019101610f10565b51815160209384036101000a60001901801990921691161790527f222c227370656369616c697a6174696f6e223a22000000000000000000000000919093019081528751601490910192880191508083835b60208310610fa05780518252601f199092019160209182019101610f81565b51815160209384036101000a60001901801990921691161790527f222c226a6f696e696e6744617465223a22000000000000000000000000000000919093019081528651601190910192870191508083835b602083106110115780518252601f199092019160209182019101610ff2565b51815160209384036101000a60001901801990921691161790527f222c22737461747573223a000000000000000000000000000000000000000000919093019081528551600b90910192860191508083835b602083106110825780518252601f199092019160209182019101611063565b51815160209384036101000a60001901801990921691161790527f2c226861736850726f66696c65496d67223a2200000000000000000000000000919093019081528451601390910192850191508083835b602083106110f35780518252601f1990920191602091820191016110d4565b5181516020939093036101000a60001901801990911692169190911790527f227d00000000000000000000000000000000000000000000000000000000000092019182525060408051808303601d19018152600290920190529e9d5050505050505050505050505050565b6060611168611dae565b606061117386611a2c565b15156111c9576040805160e560020a62461bcd02815260206004820152601860248201527f446f63746f72206973206e6f7420726567697374657265640000000000000000604482015290519081900360640190fd5b600160a060020a0386166000908152600160208181526040928390208351815460029481161561010002600019011693909304601f81018390049092028301610140908101909452610120830182815292939092849290918491908401828280156112755780601f1061124a57610100808354040283529160200191611275565b820191906000526020600020905b81548152906001019060200180831161125857829003601f168201915b5050509183525050600182810154602080840191909152600280850180546040805160001996831615610100029690960190911692909204601f810184900484028501840183528085529190940193918301828280156113165780601f106112eb57610100808354040283529160200191611316565b820191906000526020600020905b8154815290600101906020018083116112f957829003601f168201915b50505091835250506003820154600160a060020a031660208083019190915260048301805460408051601f600260001960018616156101000201909416939093049283018590048502810185018252828152940193928301828280156113bd5780601f10611392576101008083540402835291602001916113bd565b820191906000526020600020905b8154815290600101906020018083116113a057829003601f168201915b505050918352505060058201805460408051602060026001851615610100026000190190941693909304601f81018490048402820184019092528181529382019392918301828280156114515780601f1061142657610100808354040283529160200191611451565b820191906000526020600020905b81548152906001019060200180831161143457829003601f168201915b505050918352505060068201805460408051602060026001851615610100026000190190941693909304601f81018490048402820184019092528181529382019392918301828280156114e55780601f106114ba576101008083540402835291602001916114e5565b820191906000526020600020905b8154815290600101906020018083116114c857829003601f168201915b505050918352505060078201805460408051602060026001851615610100026000190190941693909304601f81018490048402820184019092528181529382019392918301828280156115795780601f1061154e57610100808354040283529160200191611579565b820191906000526020600020905b81548152906001019060200180831161155c57829003601f168201915b50505091835250506008919091015460ff16151560209182015260408051601f88018390048302810183019091528681529193506115d29190879087908190840183828082843750505060208701519250611c52915050565b1515611628576040805160e560020a62461bcd02815260206004820152601060248201527f496e76616c69642070617373776f726400000000000000000000000000000000604482015290519081900360640190fd5b81516040517f7b0000000000000000000000000000000000000000000000000000000000000060208083019182527f2273756363657373223a0000000000000000000000000000000000000000000060218401527f7472756500000000000000000000000000000000000000000000000000000000602b8401527f2c226e616d65223a220000000000000000000000000000000000000000000000602f8401528351919260380191908401908083835b602083106116f75780518252601f1990920191602091820191016116d8565b5181516020939093036101000a60001901801990911692169190911790527f227d00000000000000000000000000000000000000000000000000000000000092019182525060408051808303601d190181526002909201905298975050505050505050565b606060038054806020026020016040519081016040528092919081815260200182805480156117b457602002820191906000526020600020905b8154600160a060020a03168152600190910190602001808311611796575b50505050509050919050565b60006117cb83611a2c565b1515611821576040805160e560020a62461bcd02815260206004820152601c60248201527f54686520446f63746f72206973206e6f74207265676973746572656400000000604482015290519081900360640190fd5b50600160a060020a038216600090815260016020908152604090912082519091611852916007840191850190611d30565b50505050565b600380548290811061186657fe5b600091825260209091200154600160a060020a0316905081565b600160a060020a03831660009081526001602052604090206118a184611a2c565b15156118f7576040805160e560020a62461bcd02815260206004820152601c60248201527f54686520446f63746f72206973206e6f74207265676973746572656400000000604482015290519081900360640190fd5b611905838260010154611c52565b151561195b576040805160e560020a62461bcd02815260206004820152601060248201527f496e76616c69642070617373776f726400000000000000000000000000000000604482015290519081900360640190fd5b816040516020018082805190602001908083835b6020831061198e5780518252601f19909201916020918201910161196f565b6001836020036101000a0380198251168184511680821785525050505050509050019150506040516020818303038152906040526040518082805190602001908083835b602083106119f15780518252601f1990920191602091820191016119d2565b5181516020939093036101000a6000190180199091169216919091179052604051920182900390912060019490940193909355505050505050565b600160a060020a031660009081526002602052604090205460ff1690565b604080518082018252601081527f303132333435363738396162636465660000000000000000000000000000000060208201528151602a8082526060828101909452600160a060020a03851692918491600091908160200160208202803883390190505091507f3000000000000000000000000000000000000000000000000000000000000000826000815181101515611ae057fe5b906020010190600160f860020a031916908160001a9053507f7800000000000000000000000000000000000000000000000000000000000000826001815181101515611b2857fe5b906020010190600160f860020a031916908160001a905350600090505b6014811015611c495782600485600c840160208110611b6057fe5b1a60f860020a02600160f860020a0319169060020a900460f860020a900460ff16815181101515611b8d57fe5b90602001015160f860020a900460f860020a028282600202600201815181101515611bb457fe5b906020010190600160f860020a031916908160001a9053508284600c830160208110611bdc57fe5b1a60f860020a02600f60f860020a021660f860020a900460ff16815181101515611c0257fe5b90602001015160f860020a900460f860020a028282600202600301815181101515611c2957fe5b906020010190600160f860020a031916908160001a905350600101611b45565b50949350505050565b60008160001916836040516020018082805190602001908083835b60208310611c8c5780518252601f199092019160209182019101611c6d565b6001836020036101000a0380198251168184511680821785525050505050509050019150506040516020818303038152906040526040518082805190602001908083835b60208310611cef5780518252601f199092019160209182019101611cd0565b6001836020036101000a0380198251168184511680821785525050505050509050019150506040518091039020600019161415611d2a575060015b92915050565b828054600181600116156101000203166002900490600052602060002090601f016020900481019282601f10611d7157805160ff1916838001178555611d9e565b82800160010185558215611d9e579182015b82811115611d9e578251825591602001919060010190611d83565b50611daa929150611e09565b5090565b610120604051908101604052806060815260200160008019168152602001606081526020016000600160a060020a03168152602001606081526020016060815260200160608152602001606081526020016000151581525090565b611e2391905b80821115611daa5760008155600101611e0f565b905600a165627a7a72305820dccf8fae8f5d8f7b23a1b9e18dbacbc02f95796a62a133e619b65fd012981a3b0029",
  "source": "pragma solidity ^0.4.24;\n\ncontract Doctor {\n\n    address private owner;\n\t\n\tstruct Doctor {\n        string name;\n        bytes32 password;\n        string idCard;\n        address createdBy;\n\t\tstring specialization;\n\t\tstring email;\n\t\tstring joiningDate;\n\t\tstring hashProfileImg;\n\t\tbool status;\n    }\n\n    // Relations\n\tmapping(address => Doctor) private doctors;\n\n\tmapping (address => bool) private registeredDoctors;  // Doctors registered\n\n\taddress[] public listTotalDoctors;  // The list of registered doctors\n\n\tconstructor() public {\n\t\towner = msg.sender;\n\t}\n\n\t    // register Doctors\n\tfunction registerDoctor(address doctorAddress, string name, string idCard,\n\t\tstring specialization, string email, string joiningDate,\n\t\tstring hashProfileImg, string password) public {\n\t    // require(doctorIsRegistered(msg.sender), \"The registering Doctor is not registered\");  // the doctor is registered\n\t\trequire(!doctorIsRegistered(doctorAddress), \"The Doctor is already registered\");  // the new doctor is not already registered\n\t\tDoctor storage doctor = doctors[doctorAddress];  // get and save doctor\n\t\tdoctor.name = name;\n\t\tdoctor.idCard = idCard;\n\t\tdoctor.specialization = specialization;\n\t\tdoctor.email = email;\n\t\tdoctor.joiningDate = joiningDate;\n\t\tdoctor.hashProfileImg = hashProfileImg;\n\t\tdoctor.createdBy = msg.sender;\n\t\tdoctor.status = true;\n\t\tdoctor.password = keccak256(abi.encodePacked(password));// hash password\n\t\tregisteredDoctors[doctorAddress] = true;  // save the senders address\n\t\tlistTotalDoctors.push(doctorAddress);\n\t}\n\n\t// Change Image\n\tfunction changeDoctorImage(address doctorAddress, string hashProfileImg) public {\n\t    require(doctorIsRegistered(doctorAddress), \"The Doctor is not registered\");\n\t    Doctor storage doctor = doctors[doctorAddress];\n\t    doctor.hashProfileImg = hashProfileImg;\n\t}\n\n\t// login Doctors\n\tfunction loginDoctor(address addr, string password) external view returns (string) { \n\t\trequire(doctorIsRegistered(addr), \"Doctor is not registered\");  // check if the user is registered\n\t\tDoctor memory doctor = doctors[addr];\n\t\trequire(checkPassword(password, doctor.password), \"Invalid password\");\n\t\tstring memory res = string(abi.encodePacked('{', '\"success\":', 'true', ',\"name\":\"', doctor.name, '\"}'));\n\t\treturn res;\n\t}\n\n\t// Change Password\n\tfunction changeDoctorpassword(address doctorAddress, string oldPassword, string newPassword) public {\n\t    Doctor storage doctor = doctors[doctorAddress];\n\t\trequire(doctorIsRegistered(doctorAddress), \"The Doctor is not registered\");\n\t\trequire(checkPassword(oldPassword, doctor.password), \"Invalid password\");\n\t    doctor.password = keccak256(abi.encodePacked(newPassword));\n\t}\n\n\t// get Doctor data from address\n\tfunction getDoctor(address doctorAddress) public view returns (string) {  \n\t\trequire(doctorIsRegistered(doctorAddress), \"Doctor is not registered\");  // check if the user is registered\n\t\tDoctor memory d = doctors[doctorAddress];\n\n\t\tstring memory res = string(abi.encodePacked('{',\n\t\t\t'\"address\":\"', addressToString(doctorAddress),\n\t\t\t'\",\"name\":\"', d.name, \n\t\t\t'\",\"idCard\":\"', d.idCard,\n\t\t\t'\",\"createdBy\":\"', addressToString(d.createdBy),\n\t\t\t'\",\"email\":\"', d.email,\n\t\t\t'\",\"specialization\":\"', d.specialization,\n\t\t\t'\",\"joiningDate\":\"', d.joiningDate,\n\t\t\t'\",\"status\":', d.status ? 'true' : 'false',\n\t\t\t',\"hashProfileImg\":\"', d.hashProfileImg,\n\t\t\t'\"}'));\n    \treturn res;\n\t}\n\n\t// change status from Doctor\n\tfunction setDoctorStatus(address doctorAddress, bool _status) public {  \n\t\trequire(doctorIsRegistered(doctorAddress), \"Doctor is not registered\");  // check if the user is registered\n\t\tDoctor storage d = doctors[doctorAddress];\n\t\td.status = _status;\n\t}\n\n\t// check if the doctor address is already registered\n\tfunction doctorIsRegistered(address addr) private view returns (bool) {\n\t\treturn registeredDoctors[addr];\n\t}\n\n\tfunction listDoctors(address docAddress) public view returns (address[] memory) {\n\t    // require(doctorIsRegistered(msg.sender), \"Doctor is not registered\");  // check if the user is registered\n\t\treturn listTotalDoctors;\n\t}\n\n\t// check password match\n\tfunction checkPassword(string password, bytes32 realPassword) internal pure returns (bool) {\n\t    if (keccak256(abi.encodePacked(password)) == realPassword) {\n\t        return true;\n        }\n\t}\n\n\t// Address to string\n    function addressToString(address _addr) internal pure returns(string) {\n        bytes32 value = bytes32(uint256(_addr));\n        bytes memory alphabet = \"0123456789abcdef\";\n    \n        bytes memory str = new bytes(42);\n        str[0] = '0';\n        str[1] = 'x';\n        for (uint i = 0; i < 20; i++) {\n            str[2+i*2] = alphabet[uint(uint8(value[i + 12] >> 4))];\n            str[3+i*2] = alphabet[uint(uint8(value[i + 12] & 0x0f))];\n        }\n        return string(str);\n    }\n\n}\n\n",
  "sourcePath": "/Users/Gabriel/medical-blockchain/contracts/Doctor.sol",
  "compiler": {
    "name": "solc",
    "version": "0.4.24+commit.e67f0147.Emscripten.clang"
  },
  "schemaVersion": "2.0.1",
  "updatedAt": "2020-04-29T02:25:39.652Z"
}