{
  "contractName": "Doctor",
  "abi": [
    {
      "constant": true,
      "inputs": [
        {
          "name": "",
          "type": "uint256"
        }
      ],
      "name": "listTotalDoctors",
      "outputs": [
        {
          "name": "",
          "type": "address"
        }
      ],
      "payable": false,
      "stateMutability": "view",
      "type": "function"
    },
    {
      "inputs": [],
      "payable": false,
      "stateMutability": "nonpayable",
      "type": "constructor"
    },
    {
      "constant": false,
      "inputs": [
        {
          "name": "doctorAddress",
          "type": "address"
        },
        {
          "name": "name",
          "type": "string"
        },
        {
          "name": "idCard",
          "type": "string"
        },
        {
          "name": "specialization",
          "type": "string"
        },
        {
          "name": "email",
          "type": "string"
        },
        {
          "name": "joiningDate",
          "type": "string"
        },
        {
          "name": "hashProfileImg",
          "type": "string"
        },
        {
          "name": "password",
          "type": "string"
        }
      ],
      "name": "registerDoctor",
      "outputs": [],
      "payable": false,
      "stateMutability": "nonpayable",
      "type": "function"
    },
    {
      "constant": true,
      "inputs": [
        {
          "name": "addr",
          "type": "address"
        },
        {
          "name": "password",
          "type": "string"
        }
      ],
      "name": "loginDoctor",
      "outputs": [
        {
          "name": "",
          "type": "string"
        }
      ],
      "payable": false,
      "stateMutability": "view",
      "type": "function"
    },
    {
      "constant": true,
      "inputs": [
        {
          "name": "doctorAddress",
          "type": "address"
        }
      ],
      "name": "getDoctor",
      "outputs": [
        {
          "name": "",
          "type": "string"
        }
      ],
      "payable": false,
      "stateMutability": "view",
      "type": "function"
    },
    {
      "constant": true,
      "inputs": [
        {
          "name": "docAddress",
          "type": "address"
        }
      ],
      "name": "listDoctors",
      "outputs": [
        {
          "name": "",
          "type": "address[]"
        }
      ],
      "payable": false,
      "stateMutability": "view",
      "type": "function"
    }
  ],
  "bytecode": "0x608060405234801561001057600080fd5b5060008054600160a060020a03191633179055611905806100326000396000f30060806040526004361061006c5763ffffffff7c01000000000000000000000000000000000000000000000000000000006000350416632dd6c05581146100715780632f04e0641461024e5780633c3f9dcf146102e45780637c81163d146103115780638c7a2cf214610382575b600080fd5b34801561007d57600080fd5b5060408051602060046024803582810135601f810185900485028601850190965285855261024c958335600160a060020a031695369560449491939091019190819084018382808284375050604080516020601f89358b018035918201839004830284018301909452808352979a99988101979196509182019450925082915084018382808284375050604080516020601f89358b018035918201839004830284018301909452808352979a99988101979196509182019450925082915084018382808284375050604080516020601f89358b018035918201839004830284018301909452808352979a99988101979196509182019450925082915084018382808284375050604080516020601f89358b018035918201839004830284018301909452808352979a99988101979196509182019450925082915084018382808284375050604080516020601f89358b018035918201839004830284018301909452808352979a99988101979196509182019450925082915084018382808284375050604080516020601f89358b018035918201839004830284018301909452808352979a9998810197919650918201945092508291508401838280828437509497506103b69650505050505050565b005b34801561025a57600080fd5b5061026f600160a060020a0360043516610616565b6040805160208082528351818301528351919283929083019185019080838360005b838110156102a9578181015183820152602001610291565b50505050905090810190601f1680156102d65780820380516001836020036101000a031916815260200191505b509250505060405180910390f35b3480156102f057600080fd5b5061026f60048035600160a060020a03169060248035908101910135610e6f565b34801561031d57600080fd5b50610332600160a060020a036004351661145c565b60408051602080825283518183015283519192839290830191858101910280838360005b8381101561036e578181015183820152602001610356565b505050509050019250505060405180910390f35b34801561038e57600080fd5b5061039a6004356114c0565b60408051600160a060020a039092168252519081900360200190f35b60006103c1896114e8565b15610416576040805160e560020a62461bcd02815260206004820181905260248201527f54686520446f63746f7220697320616c72656164792072656769737465726564604482015290519081900360640190fd5b50600160a060020a0388166000908152600160209081526040909120885190916104449183918b01906117ec565b50865161045a90600283019060208a01906117ec565b50855161047090600483019060208901906117ec565b50845161048690600583019060208801906117ec565b50835161049c90600683019060208701906117ec565b5082516104b290600783019060208601906117ec565b5060038101805473ffffffffffffffffffffffffffffffffffffffff1916331790556040518251839160209081019182918401908083835b602083106105095780518252601f1990920191602091820191016104ea565b6001836020036101000a0380198251168184511680821785525050505050509050019150506040516020818303038152906040526040518082805190602001908083835b6020831061056c5780518252601f19909201916020918201910161054d565b51815160001960209485036101000a019081169019919091161790526040805194909201849003909320600196870155600160a060020a03909d16600081815260029093529c8220805460ff19168617905550600380549485018155905250507fc2575a0e9e593c00f959f8c92f12db2869c3395a3b0502d05e2516446f71f85b01805473ffffffffffffffffffffffffffffffffffffffff191690981790975550505050505050565b606061062061186a565b606061062b846114e8565b1515610681576040805160e560020a62461bcd02815260206004820152601860248201527f446f63746f72206973206e6f7420726567697374657265640000000000000000604482015290519081900360640190fd5b600160a060020a0384166000908152600160208181526040928390208351815460026101009582161586026000190190911604601f81018490049093028101610120908101909552928301828152929390928492909184919084018282801561072b5780601f106107005761010080835404028352916020019161072b565b820191906000526020600020905b81548152906001019060200180831161070e57829003601f168201915b5050509183525050600182810154602080840191909152600280850180546040805160001996831615610100029690960190911692909204601f810184900484028501840183528085529190940193918301828280156107cc5780601f106107a1576101008083540402835291602001916107cc565b820191906000526020600020905b8154815290600101906020018083116107af57829003601f168201915b50505091835250506003820154600160a060020a031660208083019190915260048301805460408051601f600260001960018616156101000201909416939093049283018590048502810185018252828152940193928301828280156108735780601f1061084857610100808354040283529160200191610873565b820191906000526020600020905b81548152906001019060200180831161085657829003601f168201915b505050918352505060058201805460408051602060026001851615610100026000190190941693909304601f81018490048402820184019092528181529382019392918301828280156109075780601f106108dc57610100808354040283529160200191610907565b820191906000526020600020905b8154815290600101906020018083116108ea57829003601f168201915b505050918352505060068201805460408051602060026001851615610100026000190190941693909304601f810184900484028201840190925281815293820193929183018282801561099b5780601f106109705761010080835404028352916020019161099b565b820191906000526020600020905b81548152906001019060200180831161097e57829003601f168201915b505050918352505060078201805460408051602060026001851615610100026000190190941693909304601f8101849004840282018401909252818152938201939291830182828015610a2f5780601f10610a0457610100808354040283529160200191610a2f565b820191906000526020600020905b815481529060010190602001808311610a1257829003601f168201915b5050505050815250509150610a4384611506565b825160408401516060850151610a5890611506565b8560a0015186608001518760c001518860e0015160405160200180807f7b00000000000000000000000000000000000000000000000000000000000000815250600101807f2261646472657373223a22000000000000000000000000000000000000000000815250600b0189805190602001908083835b60208310610aee5780518252601f199092019160209182019101610acf565b51815160209384036101000a60001901801990921691161790527f222c226e616d65223a2200000000000000000000000000000000000000000000919093019081528a51600a909101928b0191508083835b60208310610b5f5780518252601f199092019160209182019101610b40565b51815160209384036101000a60001901801990921691161790527f222c22696443617264223a220000000000000000000000000000000000000000919093019081528951600c909101928a0191508083835b60208310610bd05780518252601f199092019160209182019101610bb1565b51815160209384036101000a60001901801990921691161790527f222c22637265617465644279223a220000000000000000000000000000000000919093019081528851600f90910192890191508083835b60208310610c415780518252601f199092019160209182019101610c22565b51815160209384036101000a60001901801990921691161790527f222c22656d61696c223a22000000000000000000000000000000000000000000919093019081528751600b90910192880191508083835b60208310610cb25780518252601f199092019160209182019101610c93565b51815160209384036101000a60001901801990921691161790527f222c227370656369616c697a6174696f6e223a22000000000000000000000000919093019081528651601490910192870191508083835b60208310610d235780518252601f199092019160209182019101610d04565b51815160209384036101000a60001901801990921691161790527f222c226a6f696e696e6744617465223a22000000000000000000000000000000919093019081528551601190910192860191508083835b60208310610d945780518252601f199092019160209182019101610d75565b51815160209384036101000a60001901801990921691161790527f222c226861736850726f66696c65496d67223a22000000000000000000000000919093019081528451601490910192850191508083835b60208310610e055780518252601f199092019160209182019101610de6565b5181516020939093036101000a60001901801990911692169190911790527f227d00000000000000000000000000000000000000000000000000000000000092019182525060408051808303601d19018152600290920190529d9c50505050505050505050505050565b6060610e7961186a565b6060610e84866114e8565b1515610eda576040805160e560020a62461bcd02815260206004820152601860248201527f446f63746f72206973206e6f7420726567697374657265640000000000000000604482015290519081900360640190fd5b600160a060020a0386166000908152600160208181526040928390208351815460026101009582161586026000190190911604601f810184900490930281016101209081019095529283018281529293909284929091849190840182828015610f845780601f10610f5957610100808354040283529160200191610f84565b820191906000526020600020905b815481529060010190602001808311610f6757829003601f168201915b5050509183525050600182810154602080840191909152600280850180546040805160001996831615610100029690960190911692909204601f810184900484028501840183528085529190940193918301828280156110255780601f10610ffa57610100808354040283529160200191611025565b820191906000526020600020905b81548152906001019060200180831161100857829003601f168201915b50505091835250506003820154600160a060020a031660208083019190915260048301805460408051601f600260001960018616156101000201909416939093049283018590048502810185018252828152940193928301828280156110cc5780601f106110a1576101008083540402835291602001916110cc565b820191906000526020600020905b8154815290600101906020018083116110af57829003601f168201915b505050918352505060058201805460408051602060026001851615610100026000190190941693909304601f81018490048402820184019092528181529382019392918301828280156111605780601f1061113557610100808354040283529160200191611160565b820191906000526020600020905b81548152906001019060200180831161114357829003601f168201915b505050918352505060068201805460408051602060026001851615610100026000190190941693909304601f81018490048402820184019092528181529382019392918301828280156111f45780601f106111c9576101008083540402835291602001916111f4565b820191906000526020600020905b8154815290600101906020018083116111d757829003601f168201915b505050918352505060078201805460408051602060026001851615610100026000190190941693909304601f81018490048402820184019092528181529382019392918301828280156112885780601f1061125d57610100808354040283529160200191611288565b820191906000526020600020905b81548152906001019060200180831161126b57829003601f168201915b50505050508152505091506112d285858080601f0160208091040260200160405190810160405280939291908181526020018383808284375050506020870151925061170e915050565b1515611328576040805160e560020a62461bcd02815260206004820152601060248201527f496e76616c69642070617373776f726400000000000000000000000000000000604482015290519081900360640190fd5b81516040517f7b0000000000000000000000000000000000000000000000000000000000000060208083019182527f2273756363657373223a0000000000000000000000000000000000000000000060218401527f7472756500000000000000000000000000000000000000000000000000000000602b8401527f2c226e616d65223a220000000000000000000000000000000000000000000000602f8401528351919260380191908401908083835b602083106113f75780518252601f1990920191602091820191016113d8565b5181516020939093036101000a60001901801990911692169190911790527f227d00000000000000000000000000000000000000000000000000000000000092019182525060408051808303601d190181526002909201905298975050505050505050565b606060038054806020026020016040519081016040528092919081815260200182805480156114b457602002820191906000526020600020905b8154600160a060020a03168152600190910190602001808311611496575b50505050509050919050565b60038054829081106114ce57fe5b600091825260209091200154600160a060020a0316905081565b600160a060020a031660009081526002602052604090205460ff1690565b604080518082018252601081527f303132333435363738396162636465660000000000000000000000000000000060208201528151602a8082526060828101909452600160a060020a03851692918491600091908160200160208202803883390190505091507f300000000000000000000000000000000000000000000000000000000000000082600081518110151561159c57fe5b906020010190600160f860020a031916908160001a9053507f78000000000000000000000000000000000000000000000000000000000000008260018151811015156115e457fe5b906020010190600160f860020a031916908160001a905350600090505b60148110156117055782600485600c84016020811061161c57fe5b1a60f860020a02600160f860020a0319169060020a900460f860020a900460ff1681518110151561164957fe5b90602001015160f860020a900460f860020a02828260020260020181518110151561167057fe5b906020010190600160f860020a031916908160001a9053508284600c83016020811061169857fe5b1a60f860020a02600f60f860020a021660f860020a900460ff168151811015156116be57fe5b90602001015160f860020a900460f860020a0282826002026003018151811015156116e557fe5b906020010190600160f860020a031916908160001a905350600101611601565b50949350505050565b60008160001916836040516020018082805190602001908083835b602083106117485780518252601f199092019160209182019101611729565b6001836020036101000a0380198251168184511680821785525050505050509050019150506040516020818303038152906040526040518082805190602001908083835b602083106117ab5780518252601f19909201916020918201910161178c565b6001836020036101000a03801982511681845116808217855250505050505090500191505060405180910390206000191614156117e6575060015b92915050565b828054600181600116156101000203166002900490600052602060002090601f016020900481019282601f1061182d57805160ff191683800117855561185a565b8280016001018555821561185a579182015b8281111561185a57825182559160200191906001019061183f565b506118669291506118bc565b5090565b610100604051908101604052806060815260200160008019168152602001606081526020016000600160a060020a03168152602001606081526020016060815260200160608152602001606081525090565b6118d691905b8082111561186657600081556001016118c2565b905600a165627a7a723058207f969db06c480b650bfc120c0839453aaa15050c9c311d80c7f39f24e2bba8bc0029",
  "source": "pragma solidity ^0.4.24;\n\n\ncontract Doctor {\n\n    address private owner;\n    // address private utilsContractAddress;\n\t\n\n\tstruct Doctor {\n        string name;\n        bytes32 password;\n        string idCard;\n        address createdBy;\n\t\tstring specialization;\n\t\tstring email;\n\t\tstring joiningDate;\n\t\tstring hashProfileImg;\n    }\n\n    // Relations\n\tmapping(address => Doctor) private doctors;\n\n\tmapping (address => bool) private registeredDoctors;  // Doctors registered\n\n\taddress[] public listTotalDoctors;  // The list of registered doctors\n\n\tconstructor() public {\n\t// constructor(address _utilsContractAddress) public {\n\t\towner = msg.sender;\n\t\t// utilsContractAddress = _utilsContractAddress;\n\t}\n\n\t    // register Doctors\n\tfunction registerDoctor(address doctorAddress, string name, string idCard,\n\t\tstring specialization, string email, string joiningDate,\n\t\tstring hashProfileImg, string password) public {\n\t    // require(doctorIsRegistered(msg.sender), \"The registering Doctor is not registered\");  // the doctor is registered\n\t\trequire(!doctorIsRegistered(doctorAddress), \"The Doctor is already registered\");  // the new doctor is not already registered\n\t\tDoctor storage doctor = doctors[doctorAddress];  // get and save doctor\n\t\tdoctor.name = name;\n\t\tdoctor.idCard = idCard;\n\t\tdoctor.specialization = specialization;\n\t\tdoctor.email = email;\n\t\tdoctor.joiningDate = joiningDate;\n\t\tdoctor.hashProfileImg = hashProfileImg;\n\t\tdoctor.createdBy = msg.sender;\n\t\tdoctor.password = keccak256(abi.encodePacked(password));// hash password\n\t\tregisteredDoctors[doctorAddress] = true;  // save the senders address\n\t\tlistTotalDoctors.push(doctorAddress);\n\t}\n\n\t// login Doctors\n\tfunction loginDoctor(address addr, string password) external view returns (string) { \n\t\trequire(doctorIsRegistered(addr), \"Doctor is not registered\");  // check if the user is registered\n\t\tDoctor memory doctor = doctors[addr];\n\n\t\trequire(checkPassword(password, doctor.password), \"Invalid password\");\n\t\tstring memory res = string(abi.encodePacked('{', '\"success\":', 'true', ',\"name\":\"', doctor.name, '\"}'));\n\t\treturn res;\n\t}\n\n\t// get Doctor data from address\n\tfunction getDoctor(address doctorAddress) public view returns (string) {  \n\t\t// require(doctorIsRegistered(msg.sender), \"Doctor is not registered\");  // check if the user is registered\n\t\trequire(doctorIsRegistered(doctorAddress), \"Doctor is not registered\");  // check if the user is registered\n\t\tDoctor memory d = doctors[doctorAddress];\n\n\t\tstring memory res = string(abi.encodePacked('{',\n\t\t\t'\"address\":\"', addressToString(doctorAddress),\n\t\t\t'\",\"name\":\"', d.name, \n\t\t\t'\",\"idCard\":\"', d.idCard,\n\t\t\t'\",\"createdBy\":\"', addressToString(d.createdBy),\n\t\t\t'\",\"email\":\"', d.email,\n\t\t\t'\",\"specialization\":\"', d.specialization,\n\t\t\t'\",\"joiningDate\":\"', d.joiningDate,\n\t\t\t'\",\"hashProfileImg\":\"', d.hashProfileImg,\n\t\t\t'\"}'));\n    \treturn res;\n\t}\n\n\t// check if the doctor address is already registered\n\tfunction doctorIsRegistered(address addr) private view returns (bool) {\n\t\treturn registeredDoctors[addr];\n\t}\n\n\tfunction listDoctors(address docAddress) public view returns (address[] memory) {\n\t    // require(doctorIsRegistered(msg.sender), \"Doctor is not registered\");  // check if the user is registered\n\t\treturn listTotalDoctors;\n\t}\n\n\t// check password match\n\tfunction checkPassword(string password, bytes32 realPassword) internal pure returns (bool) {\n\t    if (keccak256(abi.encodePacked(password)) == realPassword) {\n\t        return true;\n        }\n\t}\n\n\t// Address to string\n    function addressToString(address _addr) internal pure returns(string) {\n        bytes32 value = bytes32(uint256(_addr));\n        bytes memory alphabet = \"0123456789abcdef\";\n    \n        bytes memory str = new bytes(42);\n        str[0] = '0';\n        str[1] = 'x';\n        for (uint i = 0; i < 20; i++) {\n            str[2+i*2] = alphabet[uint(uint8(value[i + 12] >> 4))];\n            str[3+i*2] = alphabet[uint(uint8(value[i + 12] & 0x0f))];\n        }\n        return string(str);\n    }\n\n\t// function example() public view returns(string) {\n\t// \tUtils u = Utils(utilsContractAddress);\n\t// \treturn u.example();\n\t// }\n\n}\n\n// Interface for Doctor Contract\n// contract Utils {\n// \tfunction example() external view returns(string);\n// }\n",
  "sourcePath": "/Users/reyes/Apps/blockchain_back_cinv/medical-system/contracts/Doctor.sol",
  "compiler": {
    "name": "solc",
    "version": "0.4.25+commit.59dbf8f1.Emscripten.clang"
  },
  "schemaVersion": "2.0.2",
  "updatedAt": "2020-04-28T00:11:10.945Z"
}