{
  "contractName": "Medical",
  "abi": [
    {
      "constant": true,
      "inputs": [
        {
          "name": "",
          "type": "uint256"
        }
      ],
      "name": "listTotalPatients",
      "outputs": [
        {
          "name": "",
          "type": "address"
        }
      ],
      "payable": false,
      "stateMutability": "view",
      "type": "function"
    },
    {
      "constant": true,
      "inputs": [
        {
          "name": "",
          "type": "uint256"
        }
      ],
      "name": "listTotalDoctors",
      "outputs": [
        {
          "name": "",
          "type": "address"
        }
      ],
      "payable": false,
      "stateMutability": "view",
      "type": "function"
    },
    {
      "inputs": [],
      "payable": false,
      "stateMutability": "nonpayable",
      "type": "constructor"
    },
    {
      "constant": false,
      "inputs": [
        {
          "name": "doctorAddress",
          "type": "address"
        },
        {
          "name": "name",
          "type": "string"
        },
        {
          "name": "idCard",
          "type": "string"
        },
        {
          "name": "specialization",
          "type": "string"
        },
        {
          "name": "email",
          "type": "string"
        },
        {
          "name": "joiningDate",
          "type": "string"
        },
        {
          "name": "hashProfileImg",
          "type": "string"
        },
        {
          "name": "password",
          "type": "string"
        }
      ],
      "name": "registerDoctor",
      "outputs": [],
      "payable": false,
      "stateMutability": "nonpayable",
      "type": "function"
    },
    {
      "constant": false,
      "inputs": [
        {
          "name": "patientAddress",
          "type": "address"
        },
        {
          "name": "name",
          "type": "string"
        },
        {
          "name": "curp",
          "type": "string"
        },
        {
          "name": "birthday",
          "type": "string"
        },
        {
          "name": "blood",
          "type": "string"
        },
        {
          "name": "mobile",
          "type": "string"
        },
        {
          "name": "genre",
          "type": "string"
        },
        {
          "name": "hashProfileImg",
          "type": "string"
        },
        {
          "name": "password",
          "type": "string"
        }
      ],
      "name": "registerPatient",
      "outputs": [],
      "payable": false,
      "stateMutability": "nonpayable",
      "type": "function"
    },
    {
      "constant": true,
      "inputs": [
        {
          "name": "addr",
          "type": "address"
        },
        {
          "name": "password",
          "type": "string"
        }
      ],
      "name": "loginDoctor",
      "outputs": [
        {
          "name": "",
          "type": "string"
        }
      ],
      "payable": false,
      "stateMutability": "view",
      "type": "function"
    },
    {
      "constant": true,
      "inputs": [
        {
          "name": "addr",
          "type": "address"
        },
        {
          "name": "password",
          "type": "string"
        }
      ],
      "name": "loginPatient",
      "outputs": [
        {
          "name": "",
          "type": "string"
        }
      ],
      "payable": false,
      "stateMutability": "view",
      "type": "function"
    },
    {
      "constant": true,
      "inputs": [
        {
          "name": "patientAddress",
          "type": "address"
        }
      ],
      "name": "getPatient",
      "outputs": [
        {
          "name": "",
          "type": "string"
        }
      ],
      "payable": false,
      "stateMutability": "view",
      "type": "function"
    },
    {
      "constant": true,
      "inputs": [
        {
          "name": "doctorAddress",
          "type": "address"
        }
      ],
      "name": "getDoctor",
      "outputs": [
        {
          "name": "",
          "type": "string"
        }
      ],
      "payable": false,
      "stateMutability": "view",
      "type": "function"
    },
    {
      "constant": false,
      "inputs": [
        {
          "name": "patientAddress",
          "type": "address"
        },
        {
          "name": "creationDate",
          "type": "string"
        },
        {
          "name": "weight",
          "type": "string"
        },
        {
          "name": "height",
          "type": "string"
        },
        {
          "name": "description",
          "type": "string"
        },
        {
          "name": "observations",
          "type": "string"
        },
        {
          "name": "hashFile",
          "type": "string"
        }
      ],
      "name": "addDiagnosisToPatient",
      "outputs": [
        {
          "name": "",
          "type": "string"
        }
      ],
      "payable": false,
      "stateMutability": "nonpayable",
      "type": "function"
    },
    {
      "constant": true,
      "inputs": [
        {
          "name": "patientAddr",
          "type": "address"
        }
      ],
      "name": "getHistoryPatientByAddress",
      "outputs": [
        {
          "name": "",
          "type": "string"
        }
      ],
      "payable": false,
      "stateMutability": "view",
      "type": "function"
    },
    {
      "constant": true,
      "inputs": [
        {
          "name": "idDiagnosis",
          "type": "string"
        },
        {
          "name": "patientAddr",
          "type": "address"
        }
      ],
      "name": "getDiagnosisByIdAndAddress",
      "outputs": [
        {
          "name": "",
          "type": "string"
        }
      ],
      "payable": false,
      "stateMutability": "view",
      "type": "function"
    },
    {
      "constant": true,
      "inputs": [
        {
          "name": "docAddress",
          "type": "address"
        }
      ],
      "name": "listDoctors",
      "outputs": [
        {
          "name": "",
          "type": "address[]"
        }
      ],
      "payable": false,
      "stateMutability": "view",
      "type": "function"
    },
    {
      "constant": true,
      "inputs": [
        {
          "name": "docAddress",
          "type": "address"
        }
      ],
      "name": "listPatients",
      "outputs": [
        {
          "name": "",
          "type": "address[]"
        }
      ],
      "payable": false,
      "stateMutability": "view",
      "type": "function"
    }
  ],
  "bytecode": "0x608060405234801561001057600080fd5b5060008054600160a060020a0319163317905561593680620000336000396000f3006080604052600436106100c45763ffffffff7c0100000000000000000000000000000000000000000000000000000000600035041663286a4b8b81146100c95780632dd6c055146100fd5780632f04e064146102da5780632ff650c2146103705780633c3f9dcf146103d75780633db114911461040457806357812a08146104685780637c81163d146106815780638c7a2cf2146106f25780639b45ba181461070a578063a5e6a6851461072b578063aecc1d00146108c8578063b5368e20146108e9575b600080fd5b3480156100d557600080fd5b506100e160043561090a565b60408051600160a060020a039092168252519081900360200190f35b34801561010957600080fd5b5060408051602060046024803582810135601f81018590048502860185019096528585526102d8958335600160a060020a031695369560449491939091019190819084018382808284375050604080516020601f89358b018035918201839004830284018301909452808352979a99988101979196509182019450925082915084018382808284375050604080516020601f89358b018035918201839004830284018301909452808352979a99988101979196509182019450925082915084018382808284375050604080516020601f89358b018035918201839004830284018301909452808352979a99988101979196509182019450925082915084018382808284375050604080516020601f89358b018035918201839004830284018301909452808352979a99988101979196509182019450925082915084018382808284375050604080516020601f89358b018035918201839004830284018301909452808352979a99988101979196509182019450925082915084018382808284375050604080516020601f89358b018035918201839004830284018301909452808352979a9998810197919650918201945092508291508401838280828437509497506109329650505050505050565b005b3480156102e657600080fd5b506102fb600160a060020a0360043516610b92565b6040805160208082528351818301528351919283929083019185019080838360005b8381101561033557818101518382015260200161031d565b50505050905090810190601f1680156103625780820380516001836020036101000a031916815260200191505b509250505060405180910390f35b34801561037c57600080fd5b5060408051602060046024803582810135601f81018590048502860185019096528585526102fb958335600160a060020a03169536956044949193909101919081908401838280828437509497506113a89650505050505050565b3480156103e357600080fd5b506102fb60048035600160a060020a03169060248035908101910135611e37565b34801561041057600080fd5b506040805160206004803580820135601f81018490048402850184019095528484526102fb94369492936024939284019190819084018382808284375094975050509235600160a060020a031693506123e192505050565b34801561047457600080fd5b5060408051602060046024803582810135601f81018590048502860185019096528585526102d8958335600160a060020a031695369560449491939091019190819084018382808284375050604080516020601f89358b018035918201839004830284018301909452808352979a99988101979196509182019450925082915084018382808284375050604080516020601f89358b018035918201839004830284018301909452808352979a99988101979196509182019450925082915084018382808284375050604080516020601f89358b018035918201839004830284018301909452808352979a99988101979196509182019450925082915084018382808284375050604080516020601f89358b018035918201839004830284018301909452808352979a99988101979196509182019450925082915084018382808284375050604080516020601f89358b018035918201839004830284018301909452808352979a99988101979196509182019450925082915084018382808284375050604080516020601f89358b018035918201839004830284018301909452808352979a99988101979196509182019450925082915084018382808284375050604080516020601f89358b018035918201839004830284018301909452808352979a9998810197919650918201945092508291508401838280828437509497506132e19650505050505050565b34801561068d57600080fd5b506106a2600160a060020a0360043516613603565b60408051602080825283518183015283519192839290830191858101910280838360005b838110156106de5781810151838201526020016106c6565b505050509050019250505060405180910390f35b3480156106fe57600080fd5b506100e1600435613667565b34801561071657600080fd5b506106a2600160a060020a0360043516613675565b34801561073757600080fd5b5060408051602060046024803582810135601f81018590048502860185019096528585526102fb958335600160a060020a031695369560449491939091019190819084018382808284375050604080516020601f89358b018035918201839004830284018301909452808352979a99988101979196509182019450925082915084018382808284375050604080516020601f89358b018035918201839004830284018301909452808352979a99988101979196509182019450925082915084018382808284375050604080516020601f89358b018035918201839004830284018301909452808352979a99988101979196509182019450925082915084018382808284375050604080516020601f89358b018035918201839004830284018301909452808352979a99988101979196509182019450925082915084018382808284375050604080516020601f89358b018035918201839004830284018301909452808352979a9998810197919650918201945092508291508401838280828437509497506136d79650505050505050565b3480156108d457600080fd5b506102fb600160a060020a0360043516613942565b3480156108f557600080fd5b506102fb600160a060020a036004351661442b565b600680548290811061091857fe5b600091825260209091200154600160a060020a0316905081565b600061093d896151d0565b15610992576040805160e560020a62461bcd02815260206004820181905260248201527f54686520446f63746f7220697320616c72656164792072656769737465726564604482015290519081900360640190fd5b50600160a060020a0388166000908152600160209081526040909120885190916109c09183918b019061572e565b5086516109d690600283019060208a019061572e565b5085516109ec906004830190602089019061572e565b508451610a02906005830190602088019061572e565b508351610a18906006830190602087019061572e565b508251610a2e906007830190602086019061572e565b5060038101805473ffffffffffffffffffffffffffffffffffffffff1916331790556040518251839160209081019182918401908083835b60208310610a855780518252601f199092019160209182019101610a66565b6001836020036101000a0380198251168184511680821785525050505050509050019150506040516020818303038152906040526040518082805190602001908083835b60208310610ae85780518252601f199092019160209182019101610ac9565b51815160001960209485036101000a019081169019919091161790526040805194909201849003909320600196870155600160a060020a03909d16600081815260049093529c8220805460ff19168617905550600580549485018155905250507f036b6384b5eca791c62761152d0c79bb0604c104a5fb6f4eb0703f3154bb3db001805473ffffffffffffffffffffffffffffffffffffffff191690981790975550505050505050565b6060610b9c6157ac565b6060610ba7846151d0565b1515610beb576040805160e560020a62461bcd02815260206004820152601860248201526000805160206158eb833981519152604482015290519081900360640190fd5b600160a060020a0384166000908152600160208181526040928390208351815460026101009582161586026000190190911604601f810184900490930281016101209081019095529283018281529293909284929091849190840182828015610c955780601f10610c6a57610100808354040283529160200191610c95565b820191906000526020600020905b815481529060010190602001808311610c7857829003601f168201915b5050509183525050600182810154602080840191909152600280850180546040805160001996831615610100029690960190911692909204601f81018490048402850184018352808552919094019391830182828015610d365780601f10610d0b57610100808354040283529160200191610d36565b820191906000526020600020905b815481529060010190602001808311610d1957829003601f168201915b50505091835250506003820154600160a060020a031660208083019190915260048301805460408051601f60026000196001861615610100020190941693909304928301859004850281018501825282815294019392830182828015610ddd5780601f10610db257610100808354040283529160200191610ddd565b820191906000526020600020905b815481529060010190602001808311610dc057829003601f168201915b505050918352505060058201805460408051602060026001851615610100026000190190941693909304601f8101849004840282018401909252818152938201939291830182828015610e715780601f10610e4657610100808354040283529160200191610e71565b820191906000526020600020905b815481529060010190602001808311610e5457829003601f168201915b505050918352505060068201805460408051602060026001851615610100026000190190941693909304601f8101849004840282018401909252818152938201939291830182828015610f055780601f10610eda57610100808354040283529160200191610f05565b820191906000526020600020905b815481529060010190602001808311610ee857829003601f168201915b505050918352505060078201805460408051602060026001851615610100026000190190941693909304601f8101849004840282018401909252818152938201939291830182828015610f995780601f10610f6e57610100808354040283529160200191610f99565b820191906000526020600020905b815481529060010190602001808311610f7c57829003601f168201915b5050505050815250509150610fad846151ee565b825160408401516060850151610fc2906151ee565b8560a0015186608001518760c001518860e00151604051602001808060f860020a607b02815250600101807f2261646472657373223a22000000000000000000000000000000000000000000815250600b0189805190602001908083835b6020831061103f5780518252601f199092019160209182019101611020565b51815160209384036101000a60001901801990921691161790527f222c226e616d65223a2200000000000000000000000000000000000000000000919093019081528a51600a909101928b0191508083835b602083106110b05780518252601f199092019160209182019101611091565b51815160209384036101000a60001901801990921691161790527f222c22696443617264223a220000000000000000000000000000000000000000919093019081528951600c909101928a0191508083835b602083106111215780518252601f199092019160209182019101611102565b51815160209384036101000a60001901801990921691161790527f222c22637265617465644279223a220000000000000000000000000000000000919093019081528851600f90910192890191508083835b602083106111925780518252601f199092019160209182019101611173565b51815160209384036101000a60001901801990921691161790527f222c22656d61696c223a22000000000000000000000000000000000000000000919093019081528751600b90910192880191508083835b602083106112035780518252601f1990920191602091820191016111e4565b51815160209384036101000a60001901801990921691161790527f222c227370656369616c697a6174696f6e223a22000000000000000000000000919093019081528651601490910192870191508083835b602083106112745780518252601f199092019160209182019101611255565b51815160209384036101000a60001901801990921691161790527f222c226a6f696e696e6744617465223a22000000000000000000000000000000919093019081528551601190910192860191508083835b602083106112e55780518252601f1990920191602091820191016112c6565b51815160209384036101000a60001901801990921691161790527f222c226861736850726f66696c65496d67223a22000000000000000000000000919093019081528451601490910192850191508083835b602083106113565780518252601f199092019160209182019101611337565b5181516020939093036101000a600019018019909116921691909117905260f060020a61227d0292019182525060408051808303601d19018152600290920190529d9c50505050505050505050505050565b60606113b26157fe565b60606113bd856153f6565b1515611401576040805160e560020a62461bcd02815260206004820152601960248201526000805160206158cb833981519152604482015290519081900360640190fd5b600160a060020a03851660009081526002602081815260409283902083518154610160601f60001961010060018516150201909216959095049081018490049093028101840190945261014084018281529092849284918401828280156114a95780601f1061147e576101008083540402835291602001916114a9565b820191906000526020600020905b81548152906001019060200180831161148c57829003601f168201915b5050509183525050600182810154602080840191909152600280850180546040805160001996831615610100029690960190911692909204601f8101849004840285018401835280855291909401939183018282801561154a5780601f1061151f5761010080835404028352916020019161154a565b820191906000526020600020905b81548152906001019060200180831161152d57829003601f168201915b505050918352505060038201805460408051602060026001851615610100026000190190941693909304601f81018490048402820184019092528181529382019392918301828280156115de5780601f106115b3576101008083540402835291602001916115de565b820191906000526020600020905b8154815290600101906020018083116115c157829003601f168201915b505050918352505060048201805460408051602060026001851615610100026000190190941693909304601f81018490048402820184019092528181529382019392918301828280156116725780601f1061164757610100808354040283529160200191611672565b820191906000526020600020905b81548152906001019060200180831161165557829003601f168201915b50505091835250506005820154600160a060020a031660208083019190915260068301805460408051601f600260001960018616156101000201909416939093049283018590048502810185018252828152940193928301828280156117195780601f106116ee57610100808354040283529160200191611719565b820191906000526020600020905b8154815290600101906020018083116116fc57829003601f168201915b505050918352505060078201805460408051602060026001851615610100026000190190941693909304601f81018490048402820184019092528181529382019392918301828280156117ad5780601f10611782576101008083540402835291602001916117ad565b820191906000526020600020905b81548152906001019060200180831161179057829003601f168201915b505050918352505060088201805460408051602060026001851615610100026000190190941693909304601f81018490048402820184019092528181529382019392918301828280156118415780601f1061181657610100808354040283529160200191611841565b820191906000526020600020905b81548152906001019060200180831161182457829003601f168201915b5050505050815260200160098201805480602002602001604051908101604052809291908181526020016000905b82821015611cc7576000848152602090819020604080516008860290920180546002610100600183161581026000190190921604601f810186900490950284016101209081019093528301848152929390928492909184918401828280156119185780601f106118ed57610100808354040283529160200191611918565b820191906000526020600020905b8154815290600101906020018083116118fb57829003601f168201915b50505050508152602001600182018054600181600116156101000203166002900480601f0160208091040260200160405190810160405280929190818152602001828054600181600116156101000203166002900480156119ba5780601f1061198f576101008083540402835291602001916119ba565b820191906000526020600020905b81548152906001019060200180831161199d57829003601f168201915b5050509183525050600282810180546040805160206001841615610100026000190190931694909404601f81018390048302850183019091528084529381019390830182828015611a4c5780601f10611a2157610100808354040283529160200191611a4c565b820191906000526020600020905b815481529060010190602001808311611a2f57829003601f168201915b505050918352505060038201805460408051602060026001851615610100026000190190941693909304601f8101849004840282018401909252818152938201939291830182828015611ae05780601f10611ab557610100808354040283529160200191611ae0565b820191906000526020600020905b815481529060010190602001808311611ac357829003601f168201915b505050918352505060048201805460408051602060026001851615610100026000190190941693909304601f8101849004840282018401909252818152938201939291830182828015611b745780601f10611b4957610100808354040283529160200191611b74565b820191906000526020600020905b815481529060010190602001808311611b5757829003601f168201915b505050918352505060058201805460408051602060026001851615610100026000190190941693909304601f8101849004840282018401909252818152938201939291830182828015611c085780601f10611bdd57610100808354040283529160200191611c08565b820191906000526020600020905b815481529060010190602001808311611beb57829003601f168201915b50505091835250506006820154600160a060020a031660208083019190915260078301805460408051601f60026000196001861615610100020190941693909304928301859004850281018501825282815294019392830182828015611caf5780601f10611c8457610100808354040283529160200191611caf565b820191906000526020600020905b815481529060010190602001808311611c9257829003601f168201915b5050505050815250508152602001906001019061186f565b50505050815250509150611cdf848360200151615414565b1515611d35576040805160e560020a62461bcd02815260206004820152601060248201527f496e76616c69642070617373776f726400000000000000000000000000000000604482015290519081900360640190fd5b815160405160f860020a607b0260208083019182527f2273756363657373223a0000000000000000000000000000000000000000000060218401527f7472756500000000000000000000000000000000000000000000000000000000602b8401527f2c226e616d65223a220000000000000000000000000000000000000000000000602f8401528351919260380191908401908083835b60208310611deb5780518252601f199092019160209182019101611dcc565b5181516020939093036101000a600019018019909116921691909117905260f060020a61227d0292019182525060408051808303601d1901815260029092019052979650505050505050565b6060611e416157ac565b6060611e4c866151d0565b1515611e90576040805160e560020a62461bcd02815260206004820152601860248201526000805160206158eb833981519152604482015290519081900360640190fd5b600160a060020a0386166000908152600160208181526040928390208351815460026101009582161586026000190190911604601f810184900490930281016101209081019095529283018281529293909284929091849190840182828015611f3a5780601f10611f0f57610100808354040283529160200191611f3a565b820191906000526020600020905b815481529060010190602001808311611f1d57829003601f168201915b5050509183525050600182810154602080840191909152600280850180546040805160001996831615610100029690960190911692909204601f81018490048402850184018352808552919094019391830182828015611fdb5780601f10611fb057610100808354040283529160200191611fdb565b820191906000526020600020905b815481529060010190602001808311611fbe57829003601f168201915b50505091835250506003820154600160a060020a031660208083019190915260048301805460408051601f600260001960018616156101000201909416939093049283018590048502810185018252828152940193928301828280156120825780601f1061205757610100808354040283529160200191612082565b820191906000526020600020905b81548152906001019060200180831161206557829003601f168201915b505050918352505060058201805460408051602060026001851615610100026000190190941693909304601f81018490048402820184019092528181529382019392918301828280156121165780601f106120eb57610100808354040283529160200191612116565b820191906000526020600020905b8154815290600101906020018083116120f957829003601f168201915b505050918352505060068201805460408051602060026001851615610100026000190190941693909304601f81018490048402820184019092528181529382019392918301828280156121aa5780601f1061217f576101008083540402835291602001916121aa565b820191906000526020600020905b81548152906001019060200180831161218d57829003601f168201915b505050918352505060078201805460408051602060026001851615610100026000190190941693909304601f810184900484028201840190925281815293820193929183018282801561223e5780601f106122135761010080835404028352916020019161223e565b820191906000526020600020905b81548152906001019060200180831161222157829003601f168201915b505050505081525050915061228885858080601f01602080910402602001604051908101604052809392919081815260200183838082843750505060208701519250615414915050565b15156122de576040805160e560020a62461bcd02815260206004820152601060248201527f496e76616c69642070617373776f726400000000000000000000000000000000604482015290519081900360640190fd5b815160405160f860020a607b0260208083019182527f2273756363657373223a0000000000000000000000000000000000000000000060218401527f7472756500000000000000000000000000000000000000000000000000000000602b8401527f2c226e616d65223a220000000000000000000000000000000000000000000000602f8401528351919260380191908401908083835b602083106123945780518252601f199092019160209182019101612375565b5181516020939093036101000a600019018019909116921691909117905260f060020a61227d0292019182525060408051808303601d190181526002909201905298975050505050505050565b60606123eb6157fe565b6123f361585e565b60006060612400336151d0565b1515612444576040805160e560020a62461bcd02815260206004820152601860248201526000805160206158eb833981519152604482015290519081900360640190fd5b61244d866153f6565b1515612491576040805160e560020a62461bcd02815260206004820152601960248201526000805160206158cb833981519152604482015290519081900360640190fd5b600160a060020a03861660009081526002602081815260409283902083518154610160601f60001961010060018516150201909216959095049081018490049093028101840190945261014084018281529092849284918401828280156125395780601f1061250e57610100808354040283529160200191612539565b820191906000526020600020905b81548152906001019060200180831161251c57829003601f168201915b5050509183525050600182810154602080840191909152600280850180546040805160001996831615610100029690960190911692909204601f810184900484028501840183528085529190940193918301828280156125da5780601f106125af576101008083540402835291602001916125da565b820191906000526020600020905b8154815290600101906020018083116125bd57829003601f168201915b505050918352505060038201805460408051602060026001851615610100026000190190941693909304601f810184900484028201840190925281815293820193929183018282801561266e5780601f106126435761010080835404028352916020019161266e565b820191906000526020600020905b81548152906001019060200180831161265157829003601f168201915b505050918352505060048201805460408051602060026001851615610100026000190190941693909304601f81018490048402820184019092528181529382019392918301828280156127025780601f106126d757610100808354040283529160200191612702565b820191906000526020600020905b8154815290600101906020018083116126e557829003601f168201915b50505091835250506005820154600160a060020a031660208083019190915260068301805460408051601f600260001960018616156101000201909416939093049283018590048502810185018252828152940193928301828280156127a95780601f1061277e576101008083540402835291602001916127a9565b820191906000526020600020905b81548152906001019060200180831161278c57829003601f168201915b505050918352505060078201805460408051602060026001851615610100026000190190941693909304601f810184900484028201840190925281815293820193929183018282801561283d5780601f106128125761010080835404028352916020019161283d565b820191906000526020600020905b81548152906001019060200180831161282057829003601f168201915b505050918352505060088201805460408051602060026001851615610100026000190190941693909304601f81018490048402820184019092528181529382019392918301828280156128d15780601f106128a6576101008083540402835291602001916128d1565b820191906000526020600020905b8154815290600101906020018083116128b457829003601f168201915b5050505050815260200160098201805480602002602001604051908101604052809291908181526020016000905b82821015612d57576000848152602090819020604080516008860290920180546002610100600183161581026000190190921604601f810186900490950284016101209081019093528301848152929390928492909184918401828280156129a85780601f1061297d576101008083540402835291602001916129a8565b820191906000526020600020905b81548152906001019060200180831161298b57829003601f168201915b50505050508152602001600182018054600181600116156101000203166002900480601f016020809104026020016040519081016040528092919081815260200182805460018160011615610100020316600290048015612a4a5780601f10612a1f57610100808354040283529160200191612a4a565b820191906000526020600020905b815481529060010190602001808311612a2d57829003601f168201915b5050509183525050600282810180546040805160206001841615610100026000190190931694909404601f81018390048302850183019091528084529381019390830182828015612adc5780601f10612ab157610100808354040283529160200191612adc565b820191906000526020600020905b815481529060010190602001808311612abf57829003601f168201915b505050918352505060038201805460408051602060026001851615610100026000190190941693909304601f8101849004840282018401909252818152938201939291830182828015612b705780601f10612b4557610100808354040283529160200191612b70565b820191906000526020600020905b815481529060010190602001808311612b5357829003601f168201915b505050918352505060048201805460408051602060026001851615610100026000190190941693909304601f8101849004840282018401909252818152938201939291830182828015612c045780601f10612bd957610100808354040283529160200191612c04565b820191906000526020600020905b815481529060010190602001808311612be757829003601f168201915b505050918352505060058201805460408051602060026001851615610100026000190190941693909304601f8101849004840282018401909252818152938201939291830182828015612c985780601f10612c6d57610100808354040283529160200191612c98565b820191906000526020600020905b815481529060010190602001808311612c7b57829003601f168201915b50505091835250506006820154600160a060020a031660208083019190915260078301805460408051601f60026000196001861615610100020190941693909304928301859004850281018501825282815294019392830182828015612d3f5780601f10612d1457610100808354040283529160200191612d3f565b820191906000526020600020905b815481529060010190602001808311612d2257829003601f168201915b505050505081525050815260200190600101906128ff565b50505050815250509350600091505b83610120015151821015612f5357866040516020018082805190602001908083835b60208310612da75780518252601f199092019160209182019101612d88565b6001836020036101000a0380198251168184511680821785525050505050509050019150506040516020818303038152906040526040518082805190602001908083835b60208310612e0a5780518252601f199092019160209182019101612deb565b5181516020939093036101000a60001901801990911692169190911790526040519201829003909120610120880151805191945092508591508110612e4b57fe5b90602001906020020151600001516040516020018082805190602001908083835b60208310612e8b5780518252601f199092019160209182019101612e6c565b6001836020036101000a0380198251168184511680821785525050505050509050019150506040516020818303038152906040526040518082805190602001908083835b60208310612eee5780518252601f199092019160209182019101612ecf565b6001836020036101000a0380198251168184511680821785525050505050509050019150506040518091039020600019161415612f4857610120840151805183908110612f3757fe5b906020019060200201519250612f53565b600190910190612d66565b826020015183604001518460600151612f6f8660c001516151ee565b86608001518760a001518860e00151604051602001808060f860020a607b02815250600101807f226372656174696f6e44617465223a220000000000000000000000000000000081525060100188805190602001908083835b60208310612fe75780518252601f199092019160209182019101612fc8565b51815160209384036101000a60001901801990921691161790527f222c22776569676874223a220000000000000000000000000000000000000000919093019081528951600c909101928a0191508083835b602083106130585780518252601f199092019160209182019101613039565b51815160209384036101000a60001901801990921691161790527f222c22686569676874223a220000000000000000000000000000000000000000919093019081528851600c90910192890191508083835b602083106130c95780518252601f1990920191602091820191016130aa565b51815160209384036101000a60001901801990921691161790527f222c22637265617465644279223a220000000000000000000000000000000000919093019081528751600f90910192880191508083835b6020831061313a5780518252601f19909201916020918201910161311b565b51815160209384036101000a60001901801990921691161790527f222c226465736372697074696f6e223a22000000000000000000000000000000919093019081528651601190910192870191508083835b602083106131ab5780518252601f19909201916020918201910161318c565b51815160209384036101000a60001901801990921691161790527f222c226f62736572766174696f6e73223a220000000000000000000000000000919093019081528551601290910192860191508083835b6020831061321c5780518252601f1990920191602091820191016131fd565b51815160209384036101000a60001901801990921691161790527f222c226861736846696c65223a22000000000000000000000000000000000000919093019081528451600e90910192850191508083835b6020831061328d5780518252601f19909201916020918201910161326e565b5181516020939093036101000a600019018019909116921691909117905260f060020a61227d0292019182525060408051808303601d19018152600290920190529f9e505050505050505050505050505050565b60006132ec336151d0565b1515613368576040805160e560020a62461bcd02815260206004820152602860248201527f546865207265676973746572696e6720446f63746f72206973206e6f7420726560448201527f6769737465726564000000000000000000000000000000000000000000000000606482015290519081900360840190fd5b6133718a6153f6565b156133ec576040805160e560020a62461bcd02815260206004820152602160248201527f5468652050617469656e7420697320616c72656164792072656769737465726560448201527f6400000000000000000000000000000000000000000000000000000000000000606482015290519081900360840190fd5b50600160a060020a03891660009081526002602090815260409091208951909161341a9183918c019061572e565b50875161343090600283019060208b019061572e565b5060058101805473ffffffffffffffffffffffffffffffffffffffff1916331790556040518251839160209081019182918401908083835b602083106134875780518252601f199092019160209182019101613468565b6001836020036101000a0380198251168184511680821785525050505050509050019150506040516020818303038152906040526040518082805190602001908083835b602083106134ea5780518252601f1990920191602091820191016134cb565b51815160209384036101000a6000190180199092169116179052604051919093018190039020600186015550885161352c93506004850192509089019061572e565b50865161354290600383019060208a019061572e565b508451613558906007830190602088019061572e565b50835161356e906006830190602087019061572e565b508251613584906008830190602086019061572e565b505050600160a060020a039097166000818152600360205260408120805460ff191660019081179091556006805491820181559091527ff652222313e28459528d920b65115c16c04f3efc82aaedc97be59f3f377c0d3f01805473ffffffffffffffffffffffffffffffffffffffff1916909117905550505050505050565b6060600580548060200260200160405190810160405280929190818152602001828054801561365b57602002820191906000526020600020905b8154600160a060020a0316815260019091019060200180831161363d575b50505050509050919050565b600580548290811061091857fe5b6060600680548060200260200160405190810160405280929190818152602001828054801561365b57602002820191906000526020600020908154600160a060020a0316815260019091019060200180831161363d5750505050509050919050565b606060006136e361585e565b6136ec336151d0565b1515613768576040805160e560020a62461bcd02815260206004820152602860248201527f546865207265676973746572696e6720446f63746f72206973206e6f7420726560448201527f6769737465726564000000000000000000000000000000000000000000000000606482015290519081900360840190fd5b6137718a6153f6565b15156137c7576040805160e560020a62461bcd02815260206004820152601d60248201527f5468652050617469656e74206973206e6f742072656769737465726564000000604482015290519081900360640190fd5b600160a060020a038a16600090815260026020526040902091506137f26137ed8b6154f2565b61561c565b815260208082018a905260408201899052606082018890526080820187905260a082018690523360c083015260e08201859052600983018054600181018083556000928352918390208451805193948694600890940290920192613859928492019061572e565b506020828101518051613872926001850192019061572e565b506040820151805161388e91600284019160209091019061572e565b50606082015180516138aa91600384019160209091019061572e565b50608082015180516138c691600484019160209091019061572e565b5060a082015180516138e291600584019160209091019061572e565b5060c082015160068201805473ffffffffffffffffffffffffffffffffffffffff1916600160a060020a0390921691909117905560e0820151805161393191600784019160209091019061572e565b505050505050979650505050505050565b606061394c6157fe565b60606000613959336151d0565b151561399d576040805160e560020a62461bcd02815260206004820152601860248201526000805160206158eb833981519152604482015290519081900360640190fd5b6139a6856153f6565b15156139ea576040805160e560020a62461bcd02815260206004820152601960248201526000805160206158cb833981519152604482015290519081900360640190fd5b600160a060020a03851660009081526002602081815260409283902083518154610160601f6000196101006001851615020190921695909504908101849004909302810184019094526101408401828152909284928491840182828015613a925780601f10613a6757610100808354040283529160200191613a92565b820191906000526020600020905b815481529060010190602001808311613a7557829003601f168201915b5050509183525050600182810154602080840191909152600280850180546040805160001996831615610100029690960190911692909204601f81018490048402850184018352808552919094019391830182828015613b335780601f10613b0857610100808354040283529160200191613b33565b820191906000526020600020905b815481529060010190602001808311613b1657829003601f168201915b505050918352505060038201805460408051602060026001851615610100026000190190941693909304601f8101849004840282018401909252818152938201939291830182828015613bc75780601f10613b9c57610100808354040283529160200191613bc7565b820191906000526020600020905b815481529060010190602001808311613baa57829003601f168201915b505050918352505060048201805460408051602060026001851615610100026000190190941693909304601f8101849004840282018401909252818152938201939291830182828015613c5b5780601f10613c3057610100808354040283529160200191613c5b565b820191906000526020600020905b815481529060010190602001808311613c3e57829003601f168201915b50505091835250506005820154600160a060020a031660208083019190915260068301805460408051601f60026000196001861615610100020190941693909304928301859004850281018501825282815294019392830182828015613d025780601f10613cd757610100808354040283529160200191613d02565b820191906000526020600020905b815481529060010190602001808311613ce557829003601f168201915b505050918352505060078201805460408051602060026001851615610100026000190190941693909304601f8101849004840282018401909252818152938201939291830182828015613d965780601f10613d6b57610100808354040283529160200191613d96565b820191906000526020600020905b815481529060010190602001808311613d7957829003601f168201915b505050918352505060088201805460408051602060026001851615610100026000190190941693909304601f8101849004840282018401909252818152938201939291830182828015613e2a5780601f10613dff57610100808354040283529160200191613e2a565b820191906000526020600020905b815481529060010190602001808311613e0d57829003601f168201915b5050505050815260200160098201805480602002602001604051908101604052809291908181526020016000905b828210156142b0576000848152602090819020604080516008860290920180546002610100600183161581026000190190921604601f81018690049095028401610120908101909352830184815292939092849290918491840182828015613f015780601f10613ed657610100808354040283529160200191613f01565b820191906000526020600020905b815481529060010190602001808311613ee457829003601f168201915b50505050508152602001600182018054600181600116156101000203166002900480601f016020809104026020016040519081016040528092919081815260200182805460018160011615610100020316600290048015613fa35780601f10613f7857610100808354040283529160200191613fa3565b820191906000526020600020905b815481529060010190602001808311613f8657829003601f168201915b5050509183525050600282810180546040805160206001841615610100026000190190931694909404601f810183900483028501830190915280845293810193908301828280156140355780601f1061400a57610100808354040283529160200191614035565b820191906000526020600020905b81548152906001019060200180831161401857829003601f168201915b505050918352505060038201805460408051602060026001851615610100026000190190941693909304601f81018490048402820184019092528181529382019392918301828280156140c95780601f1061409e576101008083540402835291602001916140c9565b820191906000526020600020905b8154815290600101906020018083116140ac57829003601f168201915b505050918352505060048201805460408051602060026001851615610100026000190190941693909304601f810184900484028201840190925281815293820193929183018282801561415d5780601f106141325761010080835404028352916020019161415d565b820191906000526020600020905b81548152906001019060200180831161414057829003601f168201915b505050918352505060058201805460408051602060026001851615610100026000190190941693909304601f81018490048402820184019092528181529382019392918301828280156141f15780601f106141c6576101008083540402835291602001916141f1565b820191906000526020600020905b8154815290600101906020018083116141d457829003601f168201915b50505091835250506006820154600160a060020a031660208083019190915260078301805460408051601f600260001960018616156101000201909416939093049283018590048502810185018252828152940193928301828280156142985780601f1061426d57610100808354040283529160200191614298565b820191906000526020600020905b81548152906001019060200180831161427b57829003601f168201915b50505050508152505081526020019060010190613e58565b50505050815250509250600083610120015151111561441157610120830151805160009081106142dc57fe5b60209081029091010151519150600190505b8261012001515181101561440957818361012001518281518110151561431057fe5b90602001906020020151600001516040516020018083805190602001908083835b602083106143505780518252601f199092019160209182019101614331565b6001836020036101000a038019825116818451168082178552505050505050905001807f2c0000000000000000000000000000000000000000000000000000000000000081525060010182805190602001908083835b602083106143c55780518252601f1990920191602091820191016143a6565b6001836020036101000a03801982511681845116808217855250505050505090500192505050604051602081830303815290604052915080806001019150506142ee565b819350614423565b60408051602081019091526000815293505b505050919050565b60606144356157fe565b6060614440846153f6565b1515614484576040805160e560020a62461bcd02815260206004820152601960248201526000805160206158cb833981519152604482015290519081900360640190fd5b600160a060020a03841660009081526002602081815260409283902083518154610160601f600019610100600185161502019092169590950490810184900490930281018401909452610140840182815290928492849184018282801561452c5780601f106145015761010080835404028352916020019161452c565b820191906000526020600020905b81548152906001019060200180831161450f57829003601f168201915b5050509183525050600182810154602080840191909152600280850180546040805160001996831615610100029690960190911692909204601f810184900484028501840183528085529190940193918301828280156145cd5780601f106145a2576101008083540402835291602001916145cd565b820191906000526020600020905b8154815290600101906020018083116145b057829003601f168201915b505050918352505060038201805460408051602060026001851615610100026000190190941693909304601f81018490048402820184019092528181529382019392918301828280156146615780601f1061463657610100808354040283529160200191614661565b820191906000526020600020905b81548152906001019060200180831161464457829003601f168201915b505050918352505060048201805460408051602060026001851615610100026000190190941693909304601f81018490048402820184019092528181529382019392918301828280156146f55780601f106146ca576101008083540402835291602001916146f5565b820191906000526020600020905b8154815290600101906020018083116146d857829003601f168201915b50505091835250506005820154600160a060020a031660208083019190915260068301805460408051601f6002600019600186161561010002019094169390930492830185900485028101850182528281529401939283018282801561479c5780601f106147715761010080835404028352916020019161479c565b820191906000526020600020905b81548152906001019060200180831161477f57829003601f168201915b505050918352505060078201805460408051602060026001851615610100026000190190941693909304601f81018490048402820184019092528181529382019392918301828280156148305780601f1061480557610100808354040283529160200191614830565b820191906000526020600020905b81548152906001019060200180831161481357829003601f168201915b505050918352505060088201805460408051602060026001851615610100026000190190941693909304601f81018490048402820184019092528181529382019392918301828280156148c45780601f10614899576101008083540402835291602001916148c4565b820191906000526020600020905b8154815290600101906020018083116148a757829003601f168201915b5050505050815260200160098201805480602002602001604051908101604052809291908181526020016000905b82821015614d4a576000848152602090819020604080516008860290920180546002610100600183161581026000190190921604601f8101869004909502840161012090810190935283018481529293909284929091849184018282801561499b5780601f106149705761010080835404028352916020019161499b565b820191906000526020600020905b81548152906001019060200180831161497e57829003601f168201915b50505050508152602001600182018054600181600116156101000203166002900480601f016020809104026020016040519081016040528092919081815260200182805460018160011615610100020316600290048015614a3d5780601f10614a1257610100808354040283529160200191614a3d565b820191906000526020600020905b815481529060010190602001808311614a2057829003601f168201915b5050509183525050600282810180546040805160206001841615610100026000190190931694909404601f81018390048302850183019091528084529381019390830182828015614acf5780601f10614aa457610100808354040283529160200191614acf565b820191906000526020600020905b815481529060010190602001808311614ab257829003601f168201915b505050918352505060038201805460408051602060026001851615610100026000190190941693909304601f8101849004840282018401909252818152938201939291830182828015614b635780601f10614b3857610100808354040283529160200191614b63565b820191906000526020600020905b815481529060010190602001808311614b4657829003601f168201915b505050918352505060048201805460408051602060026001851615610100026000190190941693909304601f8101849004840282018401909252818152938201939291830182828015614bf75780601f10614bcc57610100808354040283529160200191614bf7565b820191906000526020600020905b815481529060010190602001808311614bda57829003601f168201915b505050918352505060058201805460408051602060026001851615610100026000190190941693909304601f8101849004840282018401909252818152938201939291830182828015614c8b5780601f10614c6057610100808354040283529160200191614c8b565b820191906000526020600020905b815481529060010190602001808311614c6e57829003601f168201915b50505091835250506006820154600160a060020a031660208083019190915260078301805460408051601f60026000196001861615610100020190941693909304928301859004850281018501825282815294019392830182828015614d325780601f10614d0757610100808354040283529160200191614d32565b820191906000526020600020905b815481529060010190602001808311614d1557829003601f168201915b505050505081525050815260200190600101906148f2565b50505050815250509150614d5d846151ee565b825160408401516060850151608086015160e087015160c088015160a0890151614d86906151ee565b896101000151604051602001808060f860020a607b02815250600101807f2261646472657373223a22000000000000000000000000000000000000000000815250600b018a805190602001908083835b60208310614df55780518252601f199092019160209182019101614dd6565b51815160209384036101000a60001901801990921691161790527f222c226e616d65223a2200000000000000000000000000000000000000000000919093019081528b51600a909101928c0191508083835b60208310614e665780518252601f199092019160209182019101614e47565b51815160209384036101000a60001901801990921691161790527f222c2263757270223a2200000000000000000000000000000000000000000000919093019081528a51600a909101928b0191508083835b60208310614ed75780518252601f199092019160209182019101614eb8565b51815160209384036101000a60001901801990921691161790527f222c226269727468646179223a22000000000000000000000000000000000000919093019081528951600e909101928a0191508083835b60208310614f485780518252601f199092019160209182019101614f29565b51815160209384036101000a60001901801990921691161790527f222c22626c6f6f64223a22000000000000000000000000000000000000000000919093019081528851600b90910192890191508083835b60208310614fb95780518252601f199092019160209182019101614f9a565b51815160209384036101000a60001901801990921691161790527f222c226d6f62696c65223a220000000000000000000000000000000000000000919093019081528751600c90910192880191508083835b6020831061502a5780518252601f19909201916020918201910161500b565b51815160209384036101000a60001901801990921691161790527f222c2267656e7265223a22000000000000000000000000000000000000000000919093019081528651600b90910192870191508083835b6020831061509b5780518252601f19909201916020918201910161507c565b51815160209384036101000a60001901801990921691161790527f222c22637265617465644279223a220000000000000000000000000000000000919093019081528551600f90910192860191508083835b6020831061510c5780518252601f1990920191602091820191016150ed565b51815160209384036101000a60001901801990921691161790527f222c226861736850726f66696c65496d67223a22000000000000000000000000919093019081528451601490910192850191508083835b6020831061517d5780518252601f19909201916020918201910161515e565b5181516020939093036101000a600019018019909116921691909117905260f060020a61227d0292019182525060408051808303601d19018152600290920190529e9d5050505050505050505050505050565b600160a060020a031660009081526004602052604090205460ff1690565b604080518082018252601081527f303132333435363738396162636465660000000000000000000000000000000060208201528151602a8082526060828101909452600160a060020a03851692918491600091908160200160208202803883390190505091507f300000000000000000000000000000000000000000000000000000000000000082600081518110151561528457fe5b906020010190600160f860020a031916908160001a9053507f78000000000000000000000000000000000000000000000000000000000000008260018151811015156152cc57fe5b906020010190600160f860020a031916908160001a905350600090505b60148110156153ed5782600485600c84016020811061530457fe5b1a60f860020a02600160f860020a0319169060020a900460f860020a900460ff1681518110151561533157fe5b90602001015160f860020a900460f860020a02828260020260020181518110151561535857fe5b906020010190600160f860020a031916908160001a9053508284600c83016020811061538057fe5b1a60f860020a02600f60f860020a021660f860020a900460ff168151811015156153a657fe5b90602001015160f860020a900460f860020a0282826002026003018151811015156153cd57fe5b906020010190600160f860020a031916908160001a9053506001016152e9565b50949350505050565b600160a060020a031660009081526003602052604090205460ff1690565b60008160001916836040516020018082805190602001908083835b6020831061544e5780518252601f19909201916020918201910161542f565b6001836020036101000a0380198251168184511680821785525050505050509050019150506040516020818303038152906040526040518082805190602001908083835b602083106154b15780518252601f199092019160209182019101615492565b6001836020036101000a03801982511681845116808217855250505050505090500191505060405180910390206000191614156154ec575060015b92915050565b6000806000803385426040516020018084600160a060020a0316600160a060020a03166c0100000000000000000000000002815260140183600160a060020a0316600160a060020a03166c0100000000000000000000000002815260140182815260200193505050506040516020818303038152906040526040518082805190602001908083835b602083106155995780518252601f19909201916020918201910161557a565b5181516020939093036101000a60001901801990911692169190911790526040519201829003909120955060009450601393505050505b600081600101111561561457600181601460ff16030360020260100a83826014811015156155fa57fe5b60f860020a91901a810204029190910190600019016155d0565b509392505050565b6060600080808381808715156156675760408051808201909152600181527f300000000000000000000000000000000000000000000000000000000000000060208201529650615723565b8795505b85156156825760109095049460019094019361566b565b600f9350846040519080825280601f01601f1916602001820160405280156156b4578160200160208202803883390190505b5092506001850391505b871561571f5750868316600981116156df578060300160f860020a026156ea565b8060370160f860020a025b8351600019840193859181106156fc57fe5b906020010190600160f860020a031916908160001a9053506010909704966156be565b8296505b505050505050919050565b828054600181600116156101000203166002900490600052602060002090601f016020900481019282601f1061576f57805160ff191683800117855561579c565b8280016001018555821561579c579182015b8281111561579c578251825591602001919060010190615781565b506157a89291506158ad565b5090565b610100604051908101604052806060815260200160008019168152602001606081526020016000600160a060020a03168152602001606081526020016060815260200160608152602001606081525090565b6101406040519081016040528060608152602001600080191681526020016060815260200160608152602001606081526020016000600160a060020a03168152602001606081526020016060815260200160608152602001606081525090565b610100604051908101604052806060815260200160608152602001606081526020016060815260200160608152602001606081526020016000600160a060020a03168152602001606081525090565b6158c791905b808211156157a857600081556001016158b3565b90560050617469656e74206973206e6f74207265676973746572656400000000000000446f63746f72206973206e6f7420726567697374657265640000000000000000a165627a7a723058208ca1be537ef3d2f909d86530f0ce047d5980302cc7f5dc2b49125033e09bb6c10029",
  "source": "\n// Genesis: \"0xCA35b7d915458EF540aDe6068dFe2F44E8fa733c\"\n\n// Doctor:\n// \"0xCA35b7d915458EF540aDe6068dFe2F44E8fa733c\", \"ivan\", \"123\", \"abc\"\n// \"0x4B0897b0513fdC7C541B6d9D7E929C4e5364D2dB\", \"marie\", \"456\",\"def\"\n\n// Add Patient:\n// \"0x4B0897b0513fdC7C541B6d9D7E929C4e5364D2dB\", \"marie\", \"456\", \"10/05/96\", \"1\", \"def\"\n\n// Add Diagnosis\n// \"0x4B0897b0513fdC7C541B6d9D7E929C4e5364D2dB\", \"08/04/20\", \"85\", \"1.85\", \"Descripcion prueba\", \"Observacion pruba\"\n// \"0x4B0897b0513fdC7C541B6d9D7E929C4e5364D2dB\", \"08/04/20\", \"85\", \"1.85\", \"Descripcion prueba2\", \"Observacion pruba2\"\n\n// Get Diagnosis\n// \"E62C0923A2815DAD3217446B6A8B8735021A52B5\", \"0x4B0897b0513fdC7C541B6d9D7E929C4e5364D2dB\"\n// \"5BB652952D5E998AEE4E551BD8D3FC44E04AC366\", \"0x4B0897b0513fdC7C541B6d9D7E929C4e5364D2dB\"\n\npragma solidity ^0.4.24;\n\ncontract Medical {\n\n    address private owner;\n    \n    struct Doctor {\n        string name;\n        bytes32 password;\n        string idCard;\n        address createdBy;\n\t\tstring specialization;\n\t\tstring email;\n\t\tstring joiningDate;\n\t\tstring hashProfileImg;\n    }\n    \n    struct Patient {\n        string name;\n        bytes32 password;\n        string curp;\n        string birthday;\n        string blood;\n        address createdBy;\n        string genre;\n        string mobile;\n        string hashProfileImg;\n        Diagnosis[] history;\n    }\n    \n    struct Diagnosis {\n        string id;  // address doctor + address patient + creationDate\n        string creationDate;\n        string weight;\n        string height;\n        string description;\n        string observations;\n        address createdBy;\n\t\tstring hashFile;\n    }\n    \n    // Relations\n\tmapping(address => Doctor) private doctors;\n\tmapping(address => Patient) private patients;\n\t\n\tmapping (address => bool) private registeredPatients;  // Patients registered\n\tmapping (address => bool) private registeredDoctors;  // Doctors registered\n\t\n\taddress[] public listTotalDoctors;  // The list of registered doctors\n\taddress[] public listTotalPatients; // The list of registered patients\n\n\n    constructor() public {\n\t\towner = msg.sender;\n\t}\n    \n    // register Doctors\n\tfunction registerDoctor(address doctorAddress, string name, string idCard,\n\t\tstring specialization, string email, string joiningDate,\n\t\tstring hashProfileImg, string password) public {\n\t    // require(doctorIsRegistered(msg.sender), \"The registering Doctor is not registered\");  // the doctor is registered\n\t\trequire(!doctorIsRegistered(doctorAddress), \"The Doctor is already registered\");  // the new doctor is not already registered\n\t\tDoctor storage doctor = doctors[doctorAddress];  // get and save doctor\n\t\tdoctor.name = name;\n\t\tdoctor.idCard = idCard;\n\t\tdoctor.specialization = specialization;\n\t\tdoctor.email = email;\n\t\tdoctor.joiningDate = joiningDate;\n\t\tdoctor.hashProfileImg = hashProfileImg;\n\t\tdoctor.createdBy = msg.sender;\n\t\tdoctor.password = keccak256(abi.encodePacked(password));// hash password\n\t\tregisteredDoctors[doctorAddress] = true;  // save the senders address\n\t\tlistTotalDoctors.push(doctorAddress);\n\t}\n\t\n\t// register Patients\n\tfunction registerPatient(address patientAddress, string name, string curp, string birthday,\n\t\tstring blood, string mobile, string genre, string hashProfileImg, string password) public {\n\t    require(doctorIsRegistered(msg.sender), \"The registering Doctor is not registered\");  // the doctor is registered\n\t\trequire(!patientIsRegistered(patientAddress), \"The Patient is already registered\");  // the new patient is not already registered\n\t\tPatient storage patient = patients[patientAddress];  // get and save patient\n\t\tpatient.name = name;\n\t\tpatient.curp = curp;\n\t\tpatient.createdBy = msg.sender;\n\t\tpatient.password = keccak256(abi.encodePacked(password));// hash password\n\t\tpatient.blood = blood;\n\t\tpatient.birthday = birthday;\n\t\tpatient.mobile = mobile;\n\t\tpatient.genre = genre;\n\t\tpatient.hashProfileImg = hashProfileImg;\n\t\tregisteredPatients[patientAddress] = true;  // save the senders address\n\t\tlistTotalPatients.push(patientAddress);\n\t}\n\t\n\t// login Doctors\n\tfunction loginDoctor(address addr, string password) external view returns (string) { \n\t\trequire(doctorIsRegistered(addr), \"Doctor is not registered\");  // check if the user is registered\n\t\tDoctor memory doctor = doctors[addr];\n\t\trequire(checkPassword(password, doctor.password), \"Invalid password\");\n\t\tstring memory res = string(abi.encodePacked('{', '\"success\":', 'true', ',\"name\":\"', doctor.name, '\"}'));\n\t\treturn res;\n\t}\n\t\n\t// login Patients\n\tfunction loginPatient(address addr, string password) public view returns (string) {  \n\t\t// require(doctorIsRegistered(msg.sender), \"Doctor is not registered\");  // check if the user is registered\n\t\trequire(patientIsRegistered(addr), \"Patient is not registered\");  // check if the user is registered\n\t\tPatient memory patient = patients[addr];\n\t\trequire(checkPassword(password, patient.password), \"Invalid password\");\n\t\tstring memory res = string(abi.encodePacked('{', '\"success\":', 'true', ',\"name\":\"', patient.name, '\"}'));\n\t\treturn res;\n\t}\n\n\t// get Patient data from address\n\tfunction getPatient(address patientAddress) public view returns (string) {  \n\t\t// require(doctorIsRegistered(msg.sender), \"Doctor is not registered\");  // check if the user is registered\n\t\trequire(patientIsRegistered(patientAddress), \"Patient is not registered\");  // check if the user is registered\n\t\tPatient memory p = patients[patientAddress];\n\t\tstring memory res = string(abi.encodePacked('{',\n\t\t\t'\"address\":\"', addressToString(patientAddress),\n\t\t\t'\",\"name\":\"', p.name, \n\t\t\t'\",\"curp\":\"', p.curp, \n\t\t\t'\",\"birthday\":\"', p.birthday, \n\t\t\t'\",\"blood\":\"', p.blood, \n\t\t\t'\",\"mobile\":\"', p.mobile, \n\t\t\t'\",\"genre\":\"', p.genre, \n\t\t\t'\",\"createdBy\":\"', addressToString(p.createdBy),\n\t\t\t'\",\"hashProfileImg\":\"', p.hashProfileImg,\n\t\t\t'\"}'));\n    \treturn res;\n\t}\n\n\t// get Doctor data from address\n\tfunction getDoctor(address doctorAddress) public view returns (string) {  \n\t\t// require(doctorIsRegistered(msg.sender), \"Doctor is not registered\");  // check if the user is registered\n\t\trequire(doctorIsRegistered(doctorAddress), \"Doctor is not registered\");  // check if the user is registered\n\t\tDoctor memory d = doctors[doctorAddress];\n\t\tstring memory res = string(abi.encodePacked('{',\n\t\t\t'\"address\":\"', addressToString(doctorAddress),\n\t\t\t'\",\"name\":\"', d.name, \n\t\t\t'\",\"idCard\":\"', d.idCard,\n\t\t\t'\",\"createdBy\":\"', addressToString(d.createdBy),\n\t\t\t'\",\"email\":\"', d.email,\n\t\t\t'\",\"specialization\":\"', d.specialization,\n\t\t\t'\",\"joiningDate\":\"', d.joiningDate,\n\t\t\t'\",\"hashProfileImg\":\"', d.hashProfileImg,\n\t\t\t'\"}'));\n    \treturn res;\n\t}\n\n    // check if the doctor address is already registered\n\tfunction doctorIsRegistered(address addr) private view returns (bool) {\n\t\treturn registeredDoctors[addr];\n\t}\n\n    // check if the patient address is already registered\n\tfunction patientIsRegistered(address addr) private view returns (bool) {\n\t\treturn registeredPatients[addr];\n\t}\n\t\n\t// check password match\n\tfunction checkPassword(string password, bytes32 realPassword) internal pure returns (bool) {\n\t    if (keccak256(abi.encodePacked(password)) == realPassword) {\n\t        return true;\n        }\n\t}\n\t\n\t// add Diagnosis to History of Patient\n\tfunction addDiagnosisToPatient(address patientAddress, string creationDate, string weight, \n\t    string height, string description, string observations, string hashFile) public returns(string) {\n\t        \n\t    require(doctorIsRegistered(msg.sender), \"The registering Doctor is not registered\");  // the doctor is registered\n\t\trequire(patientIsRegistered(patientAddress), \"The Patient is not registered\");  // the new patient is not already registered\n\t\tPatient storage patient = patients[patientAddress];  // get and save doctor\n\t\t\n\t\t// d is the new Diagnosis\n\t\tDiagnosis memory d;\n\t\td.id = uint2hexstr(getUniqueId(patientAddress));\n\t\td.creationDate = creationDate;\n\t\td.weight = weight;\n\t\td.height = height;\n\t\td.description = description;\n\t\td.observations = observations;\n\t\td.createdBy = msg.sender;\n\t\td.hashFile = hashFile;\n\n\t\t// push the Diagnosis to history\n\t\tpatient.history.push(d);\n\t}\n\t\n\t// get History IDs by the patient address\n\tfunction getHistoryPatientByAddress(address patientAddr) public view returns (string) {  \n\t\trequire(doctorIsRegistered(msg.sender), \"Doctor is not registered\");  // check if the user is registered\n\t\trequire(patientIsRegistered(patientAddr), \"Patient is not registered\");  // check if the user is registered\n\t\tPatient memory patient = patients[patientAddr];\n\t\t\n\t\tif (patient.history.length > 0) {\n\t\t\tstring memory historyIds;\n\t\t\thistoryIds = patient.history[0].id;\n\t\t\tfor (uint i = 1; i < patient.history.length; i++) {\n\t\t\t\thistoryIds = string(abi.encodePacked(historyIds, \",\", patient.history[i].id));\n\t\t\t}\n\t\t\treturn historyIds;\n\t\t} else {\n\t\t\treturn \"\";\n\t\t}\n\t}\n\t\n\t// get Diagnosis from ID and patient address\n\tfunction getDiagnosisByIdAndAddress(string idDiagnosis, address patientAddr) public view returns (string) {  \n\t\trequire(doctorIsRegistered(msg.sender), \"Doctor is not registered\");  // check if the user is registered\n\t\trequire(patientIsRegistered(patientAddr), \"Patient is not registered\");  // check if the user is registered\n\t\tPatient memory patient = patients[patientAddr];\n\t\t\n\t\t// TODO\n\t\t// Diagnosis memory d = patient.history[id];\n\t\tDiagnosis memory d;\n\t\tfor (uint i = 0; i < patient.history.length; i++) {\n\t\t    if (keccak256(abi.encodePacked(patient.history[i].id)) == keccak256(abi.encodePacked(idDiagnosis))) {\n\t\t        d = patient.history[i];\n\t\t        break;\n\t\t    }\n\t\t}\n\n\t\tstring memory res = string(abi.encodePacked('{',\n\t\t\t'\"creationDate\":\"', d.creationDate,\n\t\t\t'\",\"weight\":\"', d.weight, \n\t\t\t'\",\"height\":\"', d.height,\n\t\t\t'\",\"createdBy\":\"', addressToString(d.createdBy),\n\t\t\t'\",\"description\":\"', d.description,\n\t\t\t'\",\"observations\":\"', d.observations,\n\t\t\t'\",\"hashFile\":\"', d.hashFile,\n\t\t\t'\"}'));\n\n\t\treturn res;\n\t}\n\t\n\tfunction listDoctors(address docAddress) public view returns (address[] memory) {\n\t    // require(doctorIsRegistered(msg.sender), \"Doctor is not registered\");  // check if the user is registered\n\t\treturn listTotalDoctors;\n\t}\n\n\tfunction listPatients(address docAddress) public view returns (address[] memory) {\n\t    // require(doctorIsRegistered(msg.sender), \"Doctor is not registered\");  // check if the user is registered\n\t\treturn listTotalPatients;\n\t}\n\t\n\t// Generate unique ID\n    function getUniqueId(address patientAddress) internal view returns (uint) {\n        // hash the msg.sender + patientAddress + date now\n        bytes20 b = bytes20(keccak256(abi.encodePacked(msg.sender, patientAddress, now)));  \n        uint id = 0;\n        for (uint index = b.length-1; index+1 > 0; index--) {\n            id += uint(b[index]) * ( 16 ** ((b.length - index - 1) * 2));\n        }\n        return id;\n    }\n    \n    // uint to string\n    function uint2hexstr(uint i) internal pure returns (string) {\n        if (i == 0) return \"0\";\n        uint j = i;\n        uint length;\n        while (j != 0) {\n            length++;\n            j = j >> 4;\n        }\n        uint mask = 15;\n        bytes memory bstr = new bytes(length);\n        uint k = length - 1;\n        while (i != 0){\n            uint curr = (i & mask);\n            bstr[k--] = curr > 9 ? byte(55 + curr ) : byte(48 + curr); // 55 = 65 - 10\n            i = i >> 4;\n        }\n        return string(bstr);\n    }\n    \n    // Address to string\n    function addressToString(address _addr) internal pure returns(string) {\n        bytes32 value = bytes32(uint256(_addr));\n        bytes memory alphabet = \"0123456789abcdef\";\n    \n        bytes memory str = new bytes(42);\n        str[0] = '0';\n        str[1] = 'x';\n        for (uint i = 0; i < 20; i++) {\n            str[2+i*2] = alphabet[uint(uint8(value[i + 12] >> 4))];\n            str[3+i*2] = alphabet[uint(uint8(value[i + 12] & 0x0f))];\n        }\n        return string(str);\n    }\n    \n    \n}",
  "sourcePath": "/Users/reyes/Apps/blockchain_back_cinv/medical-system/contracts/Medical.sol",
  "compiler": {
    "name": "solc",
    "version": "0.4.25+commit.59dbf8f1.Emscripten.clang"
  },
  "schemaVersion": "2.0.2",
  "updatedAt": "2020-04-27T18:20:24.730Z"
}