{
  "contractName": "Medical",
  "abi": [
    {
      "constant": true,
      "inputs": [
        {
          "name": "",
          "type": "uint256"
        }
      ],
      "name": "listTotalPatients",
      "outputs": [
        {
          "name": "",
          "type": "address"
        }
      ],
      "payable": false,
      "stateMutability": "view",
      "type": "function"
    },
    {
      "constant": true,
      "inputs": [
        {
          "name": "",
          "type": "uint256"
        }
      ],
      "name": "listTotalDoctors",
      "outputs": [
        {
          "name": "",
          "type": "address"
        }
      ],
      "payable": false,
      "stateMutability": "view",
      "type": "function"
    },
    {
      "inputs": [],
      "payable": false,
      "stateMutability": "nonpayable",
      "type": "constructor"
    },
    {
      "constant": false,
      "inputs": [
        {
          "name": "doctorAddress",
          "type": "address"
        },
        {
          "name": "name",
          "type": "string"
        },
        {
          "name": "idCard",
          "type": "string"
        },
        {
          "name": "specialization",
          "type": "string"
        },
        {
          "name": "email",
          "type": "string"
        },
        {
          "name": "joiningDate",
          "type": "string"
        },
        {
          "name": "hashProfileImg",
          "type": "string"
        },
        {
          "name": "password",
          "type": "string"
        }
      ],
      "name": "registerDoctor",
      "outputs": [],
      "payable": false,
      "stateMutability": "nonpayable",
      "type": "function"
    },
    {
      "constant": false,
      "inputs": [
        {
          "name": "patientAddress",
          "type": "address"
        },
        {
          "name": "name",
          "type": "string"
        },
        {
          "name": "curp",
          "type": "string"
        },
        {
          "name": "birthday",
          "type": "string"
        },
        {
          "name": "blood",
          "type": "string"
        },
        {
          "name": "mobile",
          "type": "string"
        },
        {
          "name": "genre",
          "type": "string"
        },
        {
          "name": "hashProfileImg",
          "type": "string"
        },
        {
          "name": "password",
          "type": "string"
        }
      ],
      "name": "registerPatient",
      "outputs": [],
      "payable": false,
      "stateMutability": "nonpayable",
      "type": "function"
    },
    {
      "constant": true,
      "inputs": [
        {
          "name": "addr",
          "type": "address"
        },
        {
          "name": "password",
          "type": "string"
        }
      ],
      "name": "loginDoctor",
      "outputs": [
        {
          "name": "",
          "type": "string"
        }
      ],
      "payable": false,
      "stateMutability": "view",
      "type": "function"
    },
    {
      "constant": true,
      "inputs": [
        {
          "name": "addr",
          "type": "address"
        },
        {
          "name": "password",
          "type": "string"
        }
      ],
      "name": "loginPatient",
      "outputs": [
        {
          "name": "",
          "type": "string"
        }
      ],
      "payable": false,
      "stateMutability": "view",
      "type": "function"
    },
    {
      "constant": true,
      "inputs": [
        {
          "name": "patientAddress",
          "type": "address"
        }
      ],
      "name": "getPatient",
      "outputs": [
        {
          "name": "",
          "type": "string"
        }
      ],
      "payable": false,
      "stateMutability": "view",
      "type": "function"
    },
    {
      "constant": true,
      "inputs": [
        {
          "name": "doctorAddress",
          "type": "address"
        }
      ],
      "name": "getDoctor",
      "outputs": [
        {
          "name": "",
          "type": "string"
        }
      ],
      "payable": false,
      "stateMutability": "view",
      "type": "function"
    },
    {
      "constant": false,
      "inputs": [
        {
          "name": "patientAddress",
          "type": "address"
        },
        {
          "name": "creationDate",
          "type": "string"
        },
        {
          "name": "weight",
          "type": "string"
        },
        {
          "name": "height",
          "type": "string"
        },
        {
          "name": "description",
          "type": "string"
        },
        {
          "name": "observations",
          "type": "string"
        },
        {
          "name": "hashFile",
          "type": "string"
        }
      ],
      "name": "addDiagnosisToPatient",
      "outputs": [
        {
          "name": "",
          "type": "string"
        }
      ],
      "payable": false,
      "stateMutability": "nonpayable",
      "type": "function"
    },
    {
      "constant": true,
      "inputs": [
        {
          "name": "patientAddr",
          "type": "address"
        }
      ],
      "name": "getHistoryPatientByAddress",
      "outputs": [
        {
          "name": "",
          "type": "string"
        }
      ],
      "payable": false,
      "stateMutability": "view",
      "type": "function"
    },
    {
      "constant": true,
      "inputs": [
        {
          "name": "idDiagnosis",
          "type": "string"
        },
        {
          "name": "patientAddr",
          "type": "address"
        }
      ],
      "name": "getDiagnosisByIdAndAddress",
      "outputs": [
        {
          "name": "",
          "type": "string"
        }
      ],
      "payable": false,
      "stateMutability": "view",
      "type": "function"
    },
    {
      "constant": true,
      "inputs": [
        {
          "name": "docAddress",
          "type": "address"
        }
      ],
      "name": "listDoctors",
      "outputs": [
        {
          "name": "",
          "type": "address[]"
        }
      ],
      "payable": false,
      "stateMutability": "view",
      "type": "function"
    },
    {
      "constant": true,
      "inputs": [
        {
          "name": "docAddress",
          "type": "address"
        }
      ],
      "name": "listPatients",
      "outputs": [
        {
          "name": "",
          "type": "address[]"
        }
      ],
      "payable": false,
      "stateMutability": "view",
      "type": "function"
    }
  ],
  "bytecode": "0x608060405234801561001057600080fd5b5060008054600160a060020a03191633179055615a6a80620000336000396000f3006080604052600436106100c45763ffffffff7c0100000000000000000000000000000000000000000000000000000000600035041663286a4b8b81146100c95780632dd6c055146100fd5780632f04e064146102da5780632ff650c2146103705780633c3f9dcf146103d75780633db114911461040457806357812a08146104685780637c81163d146106815780638c7a2cf2146106f25780639b45ba181461070a578063a5e6a6851461072b578063aecc1d00146108c8578063b5368e20146108e9575b600080fd5b3480156100d557600080fd5b506100e160043561090a565b60408051600160a060020a039092168252519081900360200190f35b34801561010957600080fd5b5060408051602060046024803582810135601f81018590048502860185019096528585526102d8958335600160a060020a031695369560449491939091019190819084018382808284375050604080516020601f89358b018035918201839004830284018301909452808352979a99988101979196509182019450925082915084018382808284375050604080516020601f89358b018035918201839004830284018301909452808352979a99988101979196509182019450925082915084018382808284375050604080516020601f89358b018035918201839004830284018301909452808352979a99988101979196509182019450925082915084018382808284375050604080516020601f89358b018035918201839004830284018301909452808352979a99988101979196509182019450925082915084018382808284375050604080516020601f89358b018035918201839004830284018301909452808352979a99988101979196509182019450925082915084018382808284375050604080516020601f89358b018035918201839004830284018301909452808352979a9998810197919650918201945092508291508401838280828437509497506109329650505050505050565b005b3480156102e657600080fd5b506102fb600160a060020a0360043516610b92565b6040805160208082528351818301528351919283929083019185019080838360005b8381101561033557818101518382015260200161031d565b50505050905090810190601f1680156103625780820380516001836020036101000a031916815260200191505b509250505060405180910390f35b34801561037c57600080fd5b5060408051602060046024803582810135601f81018590048502860185019096528585526102fb958335600160a060020a03169536956044949193909101919081908401838280828437509497506113f59650505050505050565b3480156103e357600080fd5b506102fb60048035600160a060020a03169060248035908101910135611e84565b34801561041057600080fd5b506040805160206004803580820135601f81018490048402850184019095528484526102fb94369492936024939284019190819084018382808284375094975050509235600160a060020a0316935061242e92505050565b34801561047457600080fd5b5060408051602060046024803582810135601f81018590048502860185019096528585526102d8958335600160a060020a031695369560449491939091019190819084018382808284375050604080516020601f89358b018035918201839004830284018301909452808352979a99988101979196509182019450925082915084018382808284375050604080516020601f89358b018035918201839004830284018301909452808352979a99988101979196509182019450925082915084018382808284375050604080516020601f89358b018035918201839004830284018301909452808352979a99988101979196509182019450925082915084018382808284375050604080516020601f89358b018035918201839004830284018301909452808352979a99988101979196509182019450925082915084018382808284375050604080516020601f89358b018035918201839004830284018301909452808352979a99988101979196509182019450925082915084018382808284375050604080516020601f89358b018035918201839004830284018301909452808352979a99988101979196509182019450925082915084018382808284375050604080516020601f89358b018035918201839004830284018301909452808352979a99988101979196509182019450925082915084018382808284375094975061332e9650505050505050565b34801561068d57600080fd5b506106a2600160a060020a0360043516613650565b60408051602080825283518183015283519192839290830191858101910280838360005b838110156106de5781810151838201526020016106c6565b505050509050019250505060405180910390f35b3480156106fe57600080fd5b506100e1600435613701565b34801561071657600080fd5b506106a2600160a060020a036004351661370f565b34801561073757600080fd5b5060408051602060046024803582810135601f81018590048502860185019096528585526102fb958335600160a060020a031695369560449491939091019190819084018382808284375050604080516020601f89358b018035918201839004830284018301909452808352979a99988101979196509182019450925082915084018382808284375050604080516020601f89358b018035918201839004830284018301909452808352979a99988101979196509182019450925082915084018382808284375050604080516020601f89358b018035918201839004830284018301909452808352979a99988101979196509182019450925082915084018382808284375050604080516020601f89358b018035918201839004830284018301909452808352979a99988101979196509182019450925082915084018382808284375050604080516020601f89358b018035918201839004830284018301909452808352979a9998810197919650918201945092508291508401838280828437509497506137be9650505050505050565b3480156108d457600080fd5b506102fb600160a060020a0360043516613a29565b3480156108f557600080fd5b506102fb600160a060020a0360043516614512565b600680548290811061091857fe5b600091825260209091200154600160a060020a0316905081565b600061093d89615304565b15610992576040805160e560020a62461bcd02815260206004820181905260248201527f54686520446f63746f7220697320616c72656164792072656769737465726564604482015290519081900360640190fd5b50600160a060020a0388166000908152600160209081526040909120885190916109c09183918b0190615862565b5086516109d690600283019060208a0190615862565b5085516109ec9060048301906020890190615862565b508451610a029060058301906020880190615862565b508351610a189060068301906020870190615862565b508251610a2e9060078301906020860190615862565b5060038101805473ffffffffffffffffffffffffffffffffffffffff1916331790556040518251839160209081019182918401908083835b60208310610a855780518252601f199092019160209182019101610a66565b6001836020036101000a0380198251168184511680821785525050505050509050019150506040516020818303038152906040526040518082805190602001908083835b60208310610ae85780518252601f199092019160209182019101610ac9565b51815160001960209485036101000a019081169019919091161790526040805194909201849003909320600196870155600160a060020a03909d16600081815260049093529c8220805460ff19168617905550600580549485018155905250507f036b6384b5eca791c62761152d0c79bb0604c104a5fb6f4eb0703f3154bb3db001805473ffffffffffffffffffffffffffffffffffffffff191690981790975550505050505050565b6060610b9c6158e0565b6060610ba733615304565b1515610beb576040805160e560020a62461bcd0281526020600482015260186024820152600080516020615a1f833981519152604482015290519081900360640190fd5b610bf484615304565b1515610c38576040805160e560020a62461bcd0281526020600482015260186024820152600080516020615a1f833981519152604482015290519081900360640190fd5b600160a060020a0384166000908152600160208181526040928390208351815460026101009582161586026000190190911604601f810184900490930281016101209081019095529283018281529293909284929091849190840182828015610ce25780601f10610cb757610100808354040283529160200191610ce2565b820191906000526020600020905b815481529060010190602001808311610cc557829003601f168201915b5050509183525050600182810154602080840191909152600280850180546040805160001996831615610100029690960190911692909204601f81018490048402850184018352808552919094019391830182828015610d835780601f10610d5857610100808354040283529160200191610d83565b820191906000526020600020905b815481529060010190602001808311610d6657829003601f168201915b50505091835250506003820154600160a060020a031660208083019190915260048301805460408051601f60026000196001861615610100020190941693909304928301859004850281018501825282815294019392830182828015610e2a5780601f10610dff57610100808354040283529160200191610e2a565b820191906000526020600020905b815481529060010190602001808311610e0d57829003601f168201915b505050918352505060058201805460408051602060026001851615610100026000190190941693909304601f8101849004840282018401909252818152938201939291830182828015610ebe5780601f10610e9357610100808354040283529160200191610ebe565b820191906000526020600020905b815481529060010190602001808311610ea157829003601f168201915b505050918352505060068201805460408051602060026001851615610100026000190190941693909304601f8101849004840282018401909252818152938201939291830182828015610f525780601f10610f2757610100808354040283529160200191610f52565b820191906000526020600020905b815481529060010190602001808311610f3557829003601f168201915b505050918352505060078201805460408051602060026001851615610100026000190190941693909304601f8101849004840282018401909252818152938201939291830182828015610fe65780601f10610fbb57610100808354040283529160200191610fe6565b820191906000526020600020905b815481529060010190602001808311610fc957829003601f168201915b5050505050815250509150610ffa84615322565b82516040840151606085015161100f90615322565b8560a0015186608001518760c001518860e00151604051602001808060f860020a607b02815250600101807f2261646472657373223a22000000000000000000000000000000000000000000815250600b0189805190602001908083835b6020831061108c5780518252601f19909201916020918201910161106d565b51815160209384036101000a60001901801990921691161790527f222c226e616d65223a2200000000000000000000000000000000000000000000919093019081528a51600a909101928b0191508083835b602083106110fd5780518252601f1990920191602091820191016110de565b51815160209384036101000a60001901801990921691161790527f222c22696443617264223a220000000000000000000000000000000000000000919093019081528951600c909101928a0191508083835b6020831061116e5780518252601f19909201916020918201910161114f565b51815160209384036101000a60001901801990921691161790527f222c22637265617465644279223a220000000000000000000000000000000000919093019081528851600f90910192890191508083835b602083106111df5780518252601f1990920191602091820191016111c0565b51815160209384036101000a60001901801990921691161790527f222c22656d61696c223a22000000000000000000000000000000000000000000919093019081528751600b90910192880191508083835b602083106112505780518252601f199092019160209182019101611231565b51815160209384036101000a60001901801990921691161790527f222c227370656369616c697a6174696f6e223a22000000000000000000000000919093019081528651601490910192870191508083835b602083106112c15780518252601f1990920191602091820191016112a2565b51815160209384036101000a60001901801990921691161790527f222c226a6f696e696e6744617465223a22000000000000000000000000000000919093019081528551601190910192860191508083835b602083106113325780518252601f199092019160209182019101611313565b51815160209384036101000a60001901801990921691161790527f222c226861736850726f66696c65496d67223a22000000000000000000000000919093019081528451601490910192850191508083835b602083106113a35780518252601f199092019160209182019101611384565b5181516020939093036101000a600019018019909116921691909117905260f060020a61227d0292019182525060408051808303601d19018152600290920190529d9c50505050505050505050505050565b60606113ff615932565b606061140a8561552a565b151561144e576040805160e560020a62461bcd02815260206004820152601960248201526000805160206159ff833981519152604482015290519081900360640190fd5b600160a060020a03851660009081526002602081815260409283902083518154610160601f60001961010060018516150201909216959095049081018490049093028101840190945261014084018281529092849284918401828280156114f65780601f106114cb576101008083540402835291602001916114f6565b820191906000526020600020905b8154815290600101906020018083116114d957829003601f168201915b5050509183525050600182810154602080840191909152600280850180546040805160001996831615610100029690960190911692909204601f810184900484028501840183528085529190940193918301828280156115975780601f1061156c57610100808354040283529160200191611597565b820191906000526020600020905b81548152906001019060200180831161157a57829003601f168201915b505050918352505060038201805460408051602060026001851615610100026000190190941693909304601f810184900484028201840190925281815293820193929183018282801561162b5780601f106116005761010080835404028352916020019161162b565b820191906000526020600020905b81548152906001019060200180831161160e57829003601f168201915b505050918352505060048201805460408051602060026001851615610100026000190190941693909304601f81018490048402820184019092528181529382019392918301828280156116bf5780601f10611694576101008083540402835291602001916116bf565b820191906000526020600020905b8154815290600101906020018083116116a257829003601f168201915b50505091835250506005820154600160a060020a031660208083019190915260068301805460408051601f600260001960018616156101000201909416939093049283018590048502810185018252828152940193928301828280156117665780601f1061173b57610100808354040283529160200191611766565b820191906000526020600020905b81548152906001019060200180831161174957829003601f168201915b505050918352505060078201805460408051602060026001851615610100026000190190941693909304601f81018490048402820184019092528181529382019392918301828280156117fa5780601f106117cf576101008083540402835291602001916117fa565b820191906000526020600020905b8154815290600101906020018083116117dd57829003601f168201915b505050918352505060088201805460408051602060026001851615610100026000190190941693909304601f810184900484028201840190925281815293820193929183018282801561188e5780601f106118635761010080835404028352916020019161188e565b820191906000526020600020905b81548152906001019060200180831161187157829003601f168201915b5050505050815260200160098201805480602002602001604051908101604052809291908181526020016000905b82821015611d14576000848152602090819020604080516008860290920180546002610100600183161581026000190190921604601f810186900490950284016101209081019093528301848152929390928492909184918401828280156119655780601f1061193a57610100808354040283529160200191611965565b820191906000526020600020905b81548152906001019060200180831161194857829003601f168201915b50505050508152602001600182018054600181600116156101000203166002900480601f016020809104026020016040519081016040528092919081815260200182805460018160011615610100020316600290048015611a075780601f106119dc57610100808354040283529160200191611a07565b820191906000526020600020905b8154815290600101906020018083116119ea57829003601f168201915b5050509183525050600282810180546040805160206001841615610100026000190190931694909404601f81018390048302850183019091528084529381019390830182828015611a995780601f10611a6e57610100808354040283529160200191611a99565b820191906000526020600020905b815481529060010190602001808311611a7c57829003601f168201915b505050918352505060038201805460408051602060026001851615610100026000190190941693909304601f8101849004840282018401909252818152938201939291830182828015611b2d5780601f10611b0257610100808354040283529160200191611b2d565b820191906000526020600020905b815481529060010190602001808311611b1057829003601f168201915b505050918352505060048201805460408051602060026001851615610100026000190190941693909304601f8101849004840282018401909252818152938201939291830182828015611bc15780601f10611b9657610100808354040283529160200191611bc1565b820191906000526020600020905b815481529060010190602001808311611ba457829003601f168201915b505050918352505060058201805460408051602060026001851615610100026000190190941693909304601f8101849004840282018401909252818152938201939291830182828015611c555780601f10611c2a57610100808354040283529160200191611c55565b820191906000526020600020905b815481529060010190602001808311611c3857829003601f168201915b50505091835250506006820154600160a060020a031660208083019190915260078301805460408051601f60026000196001861615610100020190941693909304928301859004850281018501825282815294019392830182828015611cfc5780601f10611cd157610100808354040283529160200191611cfc565b820191906000526020600020905b815481529060010190602001808311611cdf57829003601f168201915b505050505081525050815260200190600101906118bc565b50505050815250509150611d2c848360200151615548565b1515611d82576040805160e560020a62461bcd02815260206004820152601060248201527f496e76616c69642070617373776f726400000000000000000000000000000000604482015290519081900360640190fd5b815160405160f860020a607b0260208083019182527f2273756363657373223a0000000000000000000000000000000000000000000060218401527f7472756500000000000000000000000000000000000000000000000000000000602b8401527f2c226e616d65223a220000000000000000000000000000000000000000000000602f8401528351919260380191908401908083835b60208310611e385780518252601f199092019160209182019101611e19565b5181516020939093036101000a600019018019909116921691909117905260f060020a61227d0292019182525060408051808303601d1901815260029092019052979650505050505050565b6060611e8e6158e0565b6060611e9986615304565b1515611edd576040805160e560020a62461bcd0281526020600482015260186024820152600080516020615a1f833981519152604482015290519081900360640190fd5b600160a060020a0386166000908152600160208181526040928390208351815460026101009582161586026000190190911604601f810184900490930281016101209081019095529283018281529293909284929091849190840182828015611f875780601f10611f5c57610100808354040283529160200191611f87565b820191906000526020600020905b815481529060010190602001808311611f6a57829003601f168201915b5050509183525050600182810154602080840191909152600280850180546040805160001996831615610100029690960190911692909204601f810184900484028501840183528085529190940193918301828280156120285780601f10611ffd57610100808354040283529160200191612028565b820191906000526020600020905b81548152906001019060200180831161200b57829003601f168201915b50505091835250506003820154600160a060020a031660208083019190915260048301805460408051601f600260001960018616156101000201909416939093049283018590048502810185018252828152940193928301828280156120cf5780601f106120a4576101008083540402835291602001916120cf565b820191906000526020600020905b8154815290600101906020018083116120b257829003601f168201915b505050918352505060058201805460408051602060026001851615610100026000190190941693909304601f81018490048402820184019092528181529382019392918301828280156121635780601f1061213857610100808354040283529160200191612163565b820191906000526020600020905b81548152906001019060200180831161214657829003601f168201915b505050918352505060068201805460408051602060026001851615610100026000190190941693909304601f81018490048402820184019092528181529382019392918301828280156121f75780601f106121cc576101008083540402835291602001916121f7565b820191906000526020600020905b8154815290600101906020018083116121da57829003601f168201915b505050918352505060078201805460408051602060026001851615610100026000190190941693909304601f810184900484028201840190925281815293820193929183018282801561228b5780601f106122605761010080835404028352916020019161228b565b820191906000526020600020905b81548152906001019060200180831161226e57829003601f168201915b50505050508152505091506122d585858080601f01602080910402602001604051908101604052809392919081815260200183838082843750505060208701519250615548915050565b151561232b576040805160e560020a62461bcd02815260206004820152601060248201527f496e76616c69642070617373776f726400000000000000000000000000000000604482015290519081900360640190fd5b815160405160f860020a607b0260208083019182527f2273756363657373223a0000000000000000000000000000000000000000000060218401527f7472756500000000000000000000000000000000000000000000000000000000602b8401527f2c226e616d65223a220000000000000000000000000000000000000000000000602f8401528351919260380191908401908083835b602083106123e15780518252601f1990920191602091820191016123c2565b5181516020939093036101000a600019018019909116921691909117905260f060020a61227d0292019182525060408051808303601d190181526002909201905298975050505050505050565b6060612438615932565b612440615992565b6000606061244d33615304565b1515612491576040805160e560020a62461bcd0281526020600482015260186024820152600080516020615a1f833981519152604482015290519081900360640190fd5b61249a8661552a565b15156124de576040805160e560020a62461bcd02815260206004820152601960248201526000805160206159ff833981519152604482015290519081900360640190fd5b600160a060020a03861660009081526002602081815260409283902083518154610160601f60001961010060018516150201909216959095049081018490049093028101840190945261014084018281529092849284918401828280156125865780601f1061255b57610100808354040283529160200191612586565b820191906000526020600020905b81548152906001019060200180831161256957829003601f168201915b5050509183525050600182810154602080840191909152600280850180546040805160001996831615610100029690960190911692909204601f810184900484028501840183528085529190940193918301828280156126275780601f106125fc57610100808354040283529160200191612627565b820191906000526020600020905b81548152906001019060200180831161260a57829003601f168201915b505050918352505060038201805460408051602060026001851615610100026000190190941693909304601f81018490048402820184019092528181529382019392918301828280156126bb5780601f10612690576101008083540402835291602001916126bb565b820191906000526020600020905b81548152906001019060200180831161269e57829003601f168201915b505050918352505060048201805460408051602060026001851615610100026000190190941693909304601f810184900484028201840190925281815293820193929183018282801561274f5780601f106127245761010080835404028352916020019161274f565b820191906000526020600020905b81548152906001019060200180831161273257829003601f168201915b50505091835250506005820154600160a060020a031660208083019190915260068301805460408051601f600260001960018616156101000201909416939093049283018590048502810185018252828152940193928301828280156127f65780601f106127cb576101008083540402835291602001916127f6565b820191906000526020600020905b8154815290600101906020018083116127d957829003601f168201915b505050918352505060078201805460408051602060026001851615610100026000190190941693909304601f810184900484028201840190925281815293820193929183018282801561288a5780601f1061285f5761010080835404028352916020019161288a565b820191906000526020600020905b81548152906001019060200180831161286d57829003601f168201915b505050918352505060088201805460408051602060026001851615610100026000190190941693909304601f810184900484028201840190925281815293820193929183018282801561291e5780601f106128f35761010080835404028352916020019161291e565b820191906000526020600020905b81548152906001019060200180831161290157829003601f168201915b5050505050815260200160098201805480602002602001604051908101604052809291908181526020016000905b82821015612da4576000848152602090819020604080516008860290920180546002610100600183161581026000190190921604601f810186900490950284016101209081019093528301848152929390928492909184918401828280156129f55780601f106129ca576101008083540402835291602001916129f5565b820191906000526020600020905b8154815290600101906020018083116129d857829003601f168201915b50505050508152602001600182018054600181600116156101000203166002900480601f016020809104026020016040519081016040528092919081815260200182805460018160011615610100020316600290048015612a975780601f10612a6c57610100808354040283529160200191612a97565b820191906000526020600020905b815481529060010190602001808311612a7a57829003601f168201915b5050509183525050600282810180546040805160206001841615610100026000190190931694909404601f81018390048302850183019091528084529381019390830182828015612b295780601f10612afe57610100808354040283529160200191612b29565b820191906000526020600020905b815481529060010190602001808311612b0c57829003601f168201915b505050918352505060038201805460408051602060026001851615610100026000190190941693909304601f8101849004840282018401909252818152938201939291830182828015612bbd5780601f10612b9257610100808354040283529160200191612bbd565b820191906000526020600020905b815481529060010190602001808311612ba057829003601f168201915b505050918352505060048201805460408051602060026001851615610100026000190190941693909304601f8101849004840282018401909252818152938201939291830182828015612c515780601f10612c2657610100808354040283529160200191612c51565b820191906000526020600020905b815481529060010190602001808311612c3457829003601f168201915b505050918352505060058201805460408051602060026001851615610100026000190190941693909304601f8101849004840282018401909252818152938201939291830182828015612ce55780601f10612cba57610100808354040283529160200191612ce5565b820191906000526020600020905b815481529060010190602001808311612cc857829003601f168201915b50505091835250506006820154600160a060020a031660208083019190915260078301805460408051601f60026000196001861615610100020190941693909304928301859004850281018501825282815294019392830182828015612d8c5780601f10612d6157610100808354040283529160200191612d8c565b820191906000526020600020905b815481529060010190602001808311612d6f57829003601f168201915b5050505050815250508152602001906001019061294c565b50505050815250509350600091505b83610120015151821015612fa057866040516020018082805190602001908083835b60208310612df45780518252601f199092019160209182019101612dd5565b6001836020036101000a0380198251168184511680821785525050505050509050019150506040516020818303038152906040526040518082805190602001908083835b60208310612e575780518252601f199092019160209182019101612e38565b5181516020939093036101000a60001901801990911692169190911790526040519201829003909120610120880151805191945092508591508110612e9857fe5b90602001906020020151600001516040516020018082805190602001908083835b60208310612ed85780518252601f199092019160209182019101612eb9565b6001836020036101000a0380198251168184511680821785525050505050509050019150506040516020818303038152906040526040518082805190602001908083835b60208310612f3b5780518252601f199092019160209182019101612f1c565b6001836020036101000a0380198251168184511680821785525050505050509050019150506040518091039020600019161415612f9557610120840151805183908110612f8457fe5b906020019060200201519250612fa0565b600190910190612db3565b826020015183604001518460600151612fbc8660c00151615322565b86608001518760a001518860e00151604051602001808060f860020a607b02815250600101807f226372656174696f6e44617465223a220000000000000000000000000000000081525060100188805190602001908083835b602083106130345780518252601f199092019160209182019101613015565b51815160209384036101000a60001901801990921691161790527f222c22776569676874223a220000000000000000000000000000000000000000919093019081528951600c909101928a0191508083835b602083106130a55780518252601f199092019160209182019101613086565b51815160209384036101000a60001901801990921691161790527f222c22686569676874223a220000000000000000000000000000000000000000919093019081528851600c90910192890191508083835b602083106131165780518252601f1990920191602091820191016130f7565b51815160209384036101000a60001901801990921691161790527f222c22637265617465644279223a220000000000000000000000000000000000919093019081528751600f90910192880191508083835b602083106131875780518252601f199092019160209182019101613168565b51815160209384036101000a60001901801990921691161790527f222c226465736372697074696f6e223a22000000000000000000000000000000919093019081528651601190910192870191508083835b602083106131f85780518252601f1990920191602091820191016131d9565b51815160209384036101000a60001901801990921691161790527f222c226f62736572766174696f6e73223a220000000000000000000000000000919093019081528551601290910192860191508083835b602083106132695780518252601f19909201916020918201910161324a565b51815160209384036101000a60001901801990921691161790527f222c226861736846696c65223a22000000000000000000000000000000000000919093019081528451600e90910192850191508083835b602083106132da5780518252601f1990920191602091820191016132bb565b5181516020939093036101000a600019018019909116921691909117905260f060020a61227d0292019182525060408051808303601d19018152600290920190529f9e505050505050505050505050505050565b600061333933615304565b15156133b5576040805160e560020a62461bcd02815260206004820152602860248201527f546865207265676973746572696e6720446f63746f72206973206e6f7420726560448201527f6769737465726564000000000000000000000000000000000000000000000000606482015290519081900360840190fd5b6133be8a61552a565b15613439576040805160e560020a62461bcd02815260206004820152602160248201527f5468652050617469656e7420697320616c72656164792072656769737465726560448201527f6400000000000000000000000000000000000000000000000000000000000000606482015290519081900360840190fd5b50600160a060020a0389166000908152600260209081526040909120895190916134679183918c0190615862565b50875161347d90600283019060208b0190615862565b5060058101805473ffffffffffffffffffffffffffffffffffffffff1916331790556040518251839160209081019182918401908083835b602083106134d45780518252601f1990920191602091820191016134b5565b6001836020036101000a0380198251168184511680821785525050505050509050019150506040516020818303038152906040526040518082805190602001908083835b602083106135375780518252601f199092019160209182019101613518565b51815160209384036101000a60001901801990921691161790526040519190930181900390206001860155508851613579935060048501925090890190615862565b50865161358f90600383019060208a0190615862565b5084516135a59060078301906020880190615862565b5083516135bb9060068301906020870190615862565b5082516135d19060088301906020860190615862565b505050600160a060020a039097166000818152600360205260408120805460ff191660019081179091556006805491820181559091527ff652222313e28459528d920b65115c16c04f3efc82aaedc97be59f3f377c0d3f01805473ffffffffffffffffffffffffffffffffffffffff1916909117905550505050505050565b606061365b33615304565b151561369f576040805160e560020a62461bcd0281526020600482015260186024820152600080516020615a1f833981519152604482015290519081900360640190fd5b60058054806020026020016040519081016040528092919081815260200182805480156136f557602002820191906000526020600020905b8154600160a060020a031681526001909101906020018083116136d7575b50505050509050919050565b600580548290811061091857fe5b606061371a33615304565b151561375e576040805160e560020a62461bcd0281526020600482015260186024820152600080516020615a1f833981519152604482015290519081900360640190fd5b60068054806020026020016040519081016040528092919081815260200182805480156136f557602002820191906000526020600020908154600160a060020a031681526001909101906020018083116136d75750505050509050919050565b606060006137ca615992565b6137d333615304565b151561384f576040805160e560020a62461bcd02815260206004820152602860248201527f546865207265676973746572696e6720446f63746f72206973206e6f7420726560448201527f6769737465726564000000000000000000000000000000000000000000000000606482015290519081900360840190fd5b6138588a61552a565b15156138ae576040805160e560020a62461bcd02815260206004820152601d60248201527f5468652050617469656e74206973206e6f742072656769737465726564000000604482015290519081900360640190fd5b600160a060020a038a16600090815260026020526040902091506138d96138d48b615626565b615750565b815260208082018a905260408201899052606082018890526080820187905260a082018690523360c083015260e082018590526009830180546001810180835560009283529183902084518051939486946008909402909201926139409284920190615862565b5060208281015180516139599260018501920190615862565b5060408201518051613975916002840191602090910190615862565b5060608201518051613991916003840191602090910190615862565b50608082015180516139ad916004840191602090910190615862565b5060a082015180516139c9916005840191602090910190615862565b5060c082015160068201805473ffffffffffffffffffffffffffffffffffffffff1916600160a060020a0390921691909117905560e08201518051613a18916007840191602090910190615862565b505050505050979650505050505050565b6060613a33615932565b60606000613a4033615304565b1515613a84576040805160e560020a62461bcd0281526020600482015260186024820152600080516020615a1f833981519152604482015290519081900360640190fd5b613a8d8561552a565b1515613ad1576040805160e560020a62461bcd02815260206004820152601960248201526000805160206159ff833981519152604482015290519081900360640190fd5b600160a060020a03851660009081526002602081815260409283902083518154610160601f6000196101006001851615020190921695909504908101849004909302810184019094526101408401828152909284928491840182828015613b795780601f10613b4e57610100808354040283529160200191613b79565b820191906000526020600020905b815481529060010190602001808311613b5c57829003601f168201915b5050509183525050600182810154602080840191909152600280850180546040805160001996831615610100029690960190911692909204601f81018490048402850184018352808552919094019391830182828015613c1a5780601f10613bef57610100808354040283529160200191613c1a565b820191906000526020600020905b815481529060010190602001808311613bfd57829003601f168201915b505050918352505060038201805460408051602060026001851615610100026000190190941693909304601f8101849004840282018401909252818152938201939291830182828015613cae5780601f10613c8357610100808354040283529160200191613cae565b820191906000526020600020905b815481529060010190602001808311613c9157829003601f168201915b505050918352505060048201805460408051602060026001851615610100026000190190941693909304601f8101849004840282018401909252818152938201939291830182828015613d425780601f10613d1757610100808354040283529160200191613d42565b820191906000526020600020905b815481529060010190602001808311613d2557829003601f168201915b50505091835250506005820154600160a060020a031660208083019190915260068301805460408051601f60026000196001861615610100020190941693909304928301859004850281018501825282815294019392830182828015613de95780601f10613dbe57610100808354040283529160200191613de9565b820191906000526020600020905b815481529060010190602001808311613dcc57829003601f168201915b505050918352505060078201805460408051602060026001851615610100026000190190941693909304601f8101849004840282018401909252818152938201939291830182828015613e7d5780601f10613e5257610100808354040283529160200191613e7d565b820191906000526020600020905b815481529060010190602001808311613e6057829003601f168201915b505050918352505060088201805460408051602060026001851615610100026000190190941693909304601f8101849004840282018401909252818152938201939291830182828015613f115780601f10613ee657610100808354040283529160200191613f11565b820191906000526020600020905b815481529060010190602001808311613ef457829003601f168201915b5050505050815260200160098201805480602002602001604051908101604052809291908181526020016000905b82821015614397576000848152602090819020604080516008860290920180546002610100600183161581026000190190921604601f81018690049095028401610120908101909352830184815292939092849290918491840182828015613fe85780601f10613fbd57610100808354040283529160200191613fe8565b820191906000526020600020905b815481529060010190602001808311613fcb57829003601f168201915b50505050508152602001600182018054600181600116156101000203166002900480601f01602080910402602001604051908101604052809291908181526020018280546001816001161561010002031660029004801561408a5780601f1061405f5761010080835404028352916020019161408a565b820191906000526020600020905b81548152906001019060200180831161406d57829003601f168201915b5050509183525050600282810180546040805160206001841615610100026000190190931694909404601f8101839004830285018301909152808452938101939083018282801561411c5780601f106140f15761010080835404028352916020019161411c565b820191906000526020600020905b8154815290600101906020018083116140ff57829003601f168201915b505050918352505060038201805460408051602060026001851615610100026000190190941693909304601f81018490048402820184019092528181529382019392918301828280156141b05780601f10614185576101008083540402835291602001916141b0565b820191906000526020600020905b81548152906001019060200180831161419357829003601f168201915b505050918352505060048201805460408051602060026001851615610100026000190190941693909304601f81018490048402820184019092528181529382019392918301828280156142445780601f1061421957610100808354040283529160200191614244565b820191906000526020600020905b81548152906001019060200180831161422757829003601f168201915b505050918352505060058201805460408051602060026001851615610100026000190190941693909304601f81018490048402820184019092528181529382019392918301828280156142d85780601f106142ad576101008083540402835291602001916142d8565b820191906000526020600020905b8154815290600101906020018083116142bb57829003601f168201915b50505091835250506006820154600160a060020a031660208083019190915260078301805460408051601f6002600019600186161561010002019094169390930492830185900485028101850182528281529401939283018282801561437f5780601f106143545761010080835404028352916020019161437f565b820191906000526020600020905b81548152906001019060200180831161436257829003601f168201915b50505050508152505081526020019060010190613f3f565b5050505081525050925060008361012001515111156144f857610120830151805160009081106143c357fe5b60209081029091010151519150600190505b826101200151518110156144f05781836101200151828151811015156143f757fe5b90602001906020020151600001516040516020018083805190602001908083835b602083106144375780518252601f199092019160209182019101614418565b6001836020036101000a038019825116818451168082178552505050505050905001807f2c0000000000000000000000000000000000000000000000000000000000000081525060010182805190602001908083835b602083106144ac5780518252601f19909201916020918201910161448d565b6001836020036101000a03801982511681845116808217855250505050505090500192505050604051602081830303815290604052915080806001019150506143d5565b81935061450a565b60408051602081019091526000815293505b505050919050565b606061451c615932565b606061452733615304565b151561456b576040805160e560020a62461bcd0281526020600482015260186024820152600080516020615a1f833981519152604482015290519081900360640190fd5b6145748461552a565b15156145b8576040805160e560020a62461bcd02815260206004820152601960248201526000805160206159ff833981519152604482015290519081900360640190fd5b600160a060020a03841660009081526002602081815260409283902083518154610160601f60001961010060018516150201909216959095049081018490049093028101840190945261014084018281529092849284918401828280156146605780601f1061463557610100808354040283529160200191614660565b820191906000526020600020905b81548152906001019060200180831161464357829003601f168201915b5050509183525050600182810154602080840191909152600280850180546040805160001996831615610100029690960190911692909204601f810184900484028501840183528085529190940193918301828280156147015780601f106146d657610100808354040283529160200191614701565b820191906000526020600020905b8154815290600101906020018083116146e457829003601f168201915b505050918352505060038201805460408051602060026001851615610100026000190190941693909304601f81018490048402820184019092528181529382019392918301828280156147955780601f1061476a57610100808354040283529160200191614795565b820191906000526020600020905b81548152906001019060200180831161477857829003601f168201915b505050918352505060048201805460408051602060026001851615610100026000190190941693909304601f81018490048402820184019092528181529382019392918301828280156148295780601f106147fe57610100808354040283529160200191614829565b820191906000526020600020905b81548152906001019060200180831161480c57829003601f168201915b50505091835250506005820154600160a060020a031660208083019190915260068301805460408051601f600260001960018616156101000201909416939093049283018590048502810185018252828152940193928301828280156148d05780601f106148a5576101008083540402835291602001916148d0565b820191906000526020600020905b8154815290600101906020018083116148b357829003601f168201915b505050918352505060078201805460408051602060026001851615610100026000190190941693909304601f81018490048402820184019092528181529382019392918301828280156149645780601f1061493957610100808354040283529160200191614964565b820191906000526020600020905b81548152906001019060200180831161494757829003601f168201915b505050918352505060088201805460408051602060026001851615610100026000190190941693909304601f81018490048402820184019092528181529382019392918301828280156149f85780601f106149cd576101008083540402835291602001916149f8565b820191906000526020600020905b8154815290600101906020018083116149db57829003601f168201915b5050505050815260200160098201805480602002602001604051908101604052809291908181526020016000905b82821015614e7e576000848152602090819020604080516008860290920180546002610100600183161581026000190190921604601f81018690049095028401610120908101909352830184815292939092849290918491840182828015614acf5780601f10614aa457610100808354040283529160200191614acf565b820191906000526020600020905b815481529060010190602001808311614ab257829003601f168201915b50505050508152602001600182018054600181600116156101000203166002900480601f016020809104026020016040519081016040528092919081815260200182805460018160011615610100020316600290048015614b715780601f10614b4657610100808354040283529160200191614b71565b820191906000526020600020905b815481529060010190602001808311614b5457829003601f168201915b5050509183525050600282810180546040805160206001841615610100026000190190931694909404601f81018390048302850183019091528084529381019390830182828015614c035780601f10614bd857610100808354040283529160200191614c03565b820191906000526020600020905b815481529060010190602001808311614be657829003601f168201915b505050918352505060038201805460408051602060026001851615610100026000190190941693909304601f8101849004840282018401909252818152938201939291830182828015614c975780601f10614c6c57610100808354040283529160200191614c97565b820191906000526020600020905b815481529060010190602001808311614c7a57829003601f168201915b505050918352505060048201805460408051602060026001851615610100026000190190941693909304601f8101849004840282018401909252818152938201939291830182828015614d2b5780601f10614d0057610100808354040283529160200191614d2b565b820191906000526020600020905b815481529060010190602001808311614d0e57829003601f168201915b505050918352505060058201805460408051602060026001851615610100026000190190941693909304601f8101849004840282018401909252818152938201939291830182828015614dbf5780601f10614d9457610100808354040283529160200191614dbf565b820191906000526020600020905b815481529060010190602001808311614da257829003601f168201915b50505091835250506006820154600160a060020a031660208083019190915260078301805460408051601f60026000196001861615610100020190941693909304928301859004850281018501825282815294019392830182828015614e665780601f10614e3b57610100808354040283529160200191614e66565b820191906000526020600020905b815481529060010190602001808311614e4957829003601f168201915b50505050508152505081526020019060010190614a26565b50505050815250509150614e9184615322565b825160408401516060850151608086015160e087015160c088015160a0890151614eba90615322565b896101000151604051602001808060f860020a607b02815250600101807f2261646472657373223a22000000000000000000000000000000000000000000815250600b018a805190602001908083835b60208310614f295780518252601f199092019160209182019101614f0a565b51815160209384036101000a60001901801990921691161790527f222c226e616d65223a2200000000000000000000000000000000000000000000919093019081528b51600a909101928c0191508083835b60208310614f9a5780518252601f199092019160209182019101614f7b565b51815160209384036101000a60001901801990921691161790527f222c2263757270223a2200000000000000000000000000000000000000000000919093019081528a51600a909101928b0191508083835b6020831061500b5780518252601f199092019160209182019101614fec565b51815160209384036101000a60001901801990921691161790527f222c226269727468646179223a22000000000000000000000000000000000000919093019081528951600e909101928a0191508083835b6020831061507c5780518252601f19909201916020918201910161505d565b51815160209384036101000a60001901801990921691161790527f222c22626c6f6f64223a22000000000000000000000000000000000000000000919093019081528851600b90910192890191508083835b602083106150ed5780518252601f1990920191602091820191016150ce565b51815160209384036101000a60001901801990921691161790527f222c226d6f62696c65223a220000000000000000000000000000000000000000919093019081528751600c90910192880191508083835b6020831061515e5780518252601f19909201916020918201910161513f565b51815160209384036101000a60001901801990921691161790527f222c2267656e7265223a22000000000000000000000000000000000000000000919093019081528651600b90910192870191508083835b602083106151cf5780518252601f1990920191602091820191016151b0565b51815160209384036101000a60001901801990921691161790527f222c22637265617465644279223a220000000000000000000000000000000000919093019081528551600f90910192860191508083835b602083106152405780518252601f199092019160209182019101615221565b51815160209384036101000a60001901801990921691161790527f222c226861736850726f66696c65496d67223a22000000000000000000000000919093019081528451601490910192850191508083835b602083106152b15780518252601f199092019160209182019101615292565b5181516020939093036101000a600019018019909116921691909117905260f060020a61227d0292019182525060408051808303601d19018152600290920190529e9d5050505050505050505050505050565b600160a060020a031660009081526004602052604090205460ff1690565b604080518082018252601081527f303132333435363738396162636465660000000000000000000000000000000060208201528151602a8082526060828101909452600160a060020a03851692918491600091908160200160208202803883390190505091507f30000000000000000000000000000000000000000000000000000000000000008260008151811015156153b857fe5b906020010190600160f860020a031916908160001a9053507f780000000000000000000000000000000000000000000000000000000000000082600181518110151561540057fe5b906020010190600160f860020a031916908160001a905350600090505b60148110156155215782600485600c84016020811061543857fe5b1a60f860020a02600160f860020a0319169060020a900460f860020a900460ff1681518110151561546557fe5b90602001015160f860020a900460f860020a02828260020260020181518110151561548c57fe5b906020010190600160f860020a031916908160001a9053508284600c8301602081106154b457fe5b1a60f860020a02600f60f860020a021660f860020a900460ff168151811015156154da57fe5b90602001015160f860020a900460f860020a02828260020260030181518110151561550157fe5b906020010190600160f860020a031916908160001a90535060010161541d565b50949350505050565b600160a060020a031660009081526003602052604090205460ff1690565b60008160001916836040516020018082805190602001908083835b602083106155825780518252601f199092019160209182019101615563565b6001836020036101000a0380198251168184511680821785525050505050509050019150506040516020818303038152906040526040518082805190602001908083835b602083106155e55780518252601f1990920191602091820191016155c6565b6001836020036101000a0380198251168184511680821785525050505050509050019150506040518091039020600019161415615620575060015b92915050565b6000806000803385426040516020018084600160a060020a0316600160a060020a03166c0100000000000000000000000002815260140183600160a060020a0316600160a060020a03166c0100000000000000000000000002815260140182815260200193505050506040516020818303038152906040526040518082805190602001908083835b602083106156cd5780518252601f1990920191602091820191016156ae565b5181516020939093036101000a60001901801990911692169190911790526040519201829003909120955060009450601393505050505b600081600101111561574857600181601460ff16030360020260100a838260148110151561572e57fe5b60f860020a91901a81020402919091019060001901615704565b509392505050565b60606000808083818087151561579b5760408051808201909152600181527f300000000000000000000000000000000000000000000000000000000000000060208201529650615857565b8795505b85156157b65760109095049460019094019361579f565b600f9350846040519080825280601f01601f1916602001820160405280156157e8578160200160208202803883390190505b5092506001850391505b8715615853575086831660098111615813578060300160f860020a0261581e565b8060370160f860020a025b83516000198401938591811061583057fe5b906020010190600160f860020a031916908160001a9053506010909704966157f2565b8296505b505050505050919050565b828054600181600116156101000203166002900490600052602060002090601f016020900481019282601f106158a357805160ff19168380011785556158d0565b828001600101855582156158d0579182015b828111156158d05782518255916020019190600101906158b5565b506158dc9291506159e1565b5090565b610100604051908101604052806060815260200160008019168152602001606081526020016000600160a060020a03168152602001606081526020016060815260200160608152602001606081525090565b6101406040519081016040528060608152602001600080191681526020016060815260200160608152602001606081526020016000600160a060020a03168152602001606081526020016060815260200160608152602001606081525090565b610100604051908101604052806060815260200160608152602001606081526020016060815260200160608152602001606081526020016000600160a060020a03168152602001606081525090565b6159fb91905b808211156158dc57600081556001016159e7565b90560050617469656e74206973206e6f74207265676973746572656400000000000000446f63746f72206973206e6f7420726567697374657265640000000000000000a165627a7a72305820832c85096a3bf5c61a7e9f582f75340dc92e9764f3a4d66ed802279af675bbdf0029",
  "source": "\n// Genesis: \"0xCA35b7d915458EF540aDe6068dFe2F44E8fa733c\"\n\n// Doctor:\n// \"0xCA35b7d915458EF540aDe6068dFe2F44E8fa733c\", \"ivan\", \"123\", \"abc\"\n// \"0x4B0897b0513fdC7C541B6d9D7E929C4e5364D2dB\", \"marie\", \"456\",\"def\"\n\n// Add Patient:\n// \"0x4B0897b0513fdC7C541B6d9D7E929C4e5364D2dB\", \"marie\", \"456\", \"10/05/96\", \"1\", \"def\"\n\n// Add Diagnosis\n// \"0x4B0897b0513fdC7C541B6d9D7E929C4e5364D2dB\", \"08/04/20\", \"85\", \"1.85\", \"Descripcion prueba\", \"Observacion pruba\"\n// \"0x4B0897b0513fdC7C541B6d9D7E929C4e5364D2dB\", \"08/04/20\", \"85\", \"1.85\", \"Descripcion prueba2\", \"Observacion pruba2\"\n\n// Get Diagnosis\n// \"E62C0923A2815DAD3217446B6A8B8735021A52B5\", \"0x4B0897b0513fdC7C541B6d9D7E929C4e5364D2dB\"\n// \"5BB652952D5E998AEE4E551BD8D3FC44E04AC366\", \"0x4B0897b0513fdC7C541B6d9D7E929C4e5364D2dB\"\n\npragma solidity ^0.4.24;\n\ncontract Medical {\n\n    address private owner;\n    \n    struct Doctor {\n        string name;\n        bytes32 password;\n        string idCard;\n        address createdBy;\n\t\tstring specialization;\n\t\tstring email;\n\t\tstring joiningDate;\n\t\tstring hashProfileImg;\n    }\n    \n    struct Patient {\n        string name;\n        bytes32 password;\n        string curp;\n        string birthday;\n        string blood;\n        address createdBy;\n        string genre;\n        string mobile;\n        string hashProfileImg;\n        Diagnosis[] history;\n    }\n    \n    struct Diagnosis {\n        string id;  // address doctor + address patient + creationDate\n        string creationDate;\n        string weight;\n        string height;\n        string description;\n        string observations;\n        address createdBy;\n\t\tstring hashFile;\n    }\n    \n    // Relations\n\tmapping(address => Doctor) private doctors;\n\tmapping(address => Patient) private patients;\n\t\n\tmapping (address => bool) private registeredPatients;  // Patients registered\n\tmapping (address => bool) private registeredDoctors;  // Doctors registered\n\t\n\taddress[] public listTotalDoctors;  // The list of registered doctors\n\taddress[] public listTotalPatients; // The list of registered patients\n\n\n    constructor() public {\n\t\towner = msg.sender;\n\t}\n    \n    // register Doctors\n\tfunction registerDoctor(address doctorAddress, string name, string idCard,\n\t\tstring specialization, string email, string joiningDate,\n\t\tstring hashProfileImg, string password) public {\n\t    // require(doctorIsRegistered(msg.sender), \"The registering Doctor is not registered\");  // the doctor is registered\n\t\trequire(!doctorIsRegistered(doctorAddress), \"The Doctor is already registered\");  // the new doctor is not already registered\n\t\tDoctor storage doctor = doctors[doctorAddress];  // get and save doctor\n\t\tdoctor.name = name;\n\t\tdoctor.idCard = idCard;\n\t\tdoctor.specialization = specialization;\n\t\tdoctor.email = email;\n\t\tdoctor.joiningDate = joiningDate;\n\t\tdoctor.hashProfileImg = hashProfileImg;\n\t\tdoctor.createdBy = msg.sender;\n\t\tdoctor.password = keccak256(abi.encodePacked(password));// hash password\n\t\tregisteredDoctors[doctorAddress] = true;  // save the senders address\n\t\tlistTotalDoctors.push(doctorAddress);\n\t}\n\t\n\t// register Patients\n\tfunction registerPatient(address patientAddress, string name, string curp, string birthday,\n\t\tstring blood, string mobile, string genre, string hashProfileImg, string password) public {\n\t    require(doctorIsRegistered(msg.sender), \"The registering Doctor is not registered\");  // the doctor is registered\n\t\trequire(!patientIsRegistered(patientAddress), \"The Patient is already registered\");  // the new patient is not already registered\n\t\tPatient storage patient = patients[patientAddress];  // get and save patient\n\t\tpatient.name = name;\n\t\tpatient.curp = curp;\n\t\tpatient.createdBy = msg.sender;\n\t\tpatient.password = keccak256(abi.encodePacked(password));// hash password\n\t\tpatient.blood = blood;\n\t\tpatient.birthday = birthday;\n\t\tpatient.mobile = mobile;\n\t\tpatient.genre = genre;\n\t\tpatient.hashProfileImg = hashProfileImg;\n\t\tregisteredPatients[patientAddress] = true;  // save the senders address\n\t\tlistTotalPatients.push(patientAddress);\n\t}\n\t\n\t// login Doctors\n\tfunction loginDoctor(address addr, string password) external view returns (string) { \n\t\trequire(doctorIsRegistered(addr), \"Doctor is not registered\");  // check if the user is registered\n\t\tDoctor memory doctor = doctors[addr];\n\t\trequire(checkPassword(password, doctor.password), \"Invalid password\");\n\t\tstring memory res = string(abi.encodePacked('{', '\"success\":', 'true', ',\"name\":\"', doctor.name, '\"}'));\n\t\treturn res;\n\t}\n\t\n\t// login Patients\n\tfunction loginPatient(address addr, string password) public view returns (string) {  \n\t\t// require(doctorIsRegistered(msg.sender), \"Doctor is not registered\");  // check if the user is registered\n\t\trequire(patientIsRegistered(addr), \"Patient is not registered\");  // check if the user is registered\n\t\tPatient memory patient = patients[addr];\n\t\trequire(checkPassword(password, patient.password), \"Invalid password\");\n\t\tstring memory res = string(abi.encodePacked('{', '\"success\":', 'true', ',\"name\":\"', patient.name, '\"}'));\n\t\treturn res;\n\t}\n\n\t// get Patient data from address\n\tfunction getPatient(address patientAddress) public view returns (string) {  \n\t\trequire(doctorIsRegistered(msg.sender), \"Doctor is not registered\");  // check if the user is registered\n\t\trequire(patientIsRegistered(patientAddress), \"Patient is not registered\");  // check if the user is registered\n\t\tPatient memory p = patients[patientAddress];\n\t\tstring memory res = string(abi.encodePacked('{',\n\t\t\t'\"address\":\"', addressToString(patientAddress),\n\t\t\t'\",\"name\":\"', p.name, \n\t\t\t'\",\"curp\":\"', p.curp, \n\t\t\t'\",\"birthday\":\"', p.birthday, \n\t\t\t'\",\"blood\":\"', p.blood, \n\t\t\t'\",\"mobile\":\"', p.mobile, \n\t\t\t'\",\"genre\":\"', p.genre, \n\t\t\t'\",\"createdBy\":\"', addressToString(p.createdBy),\n\t\t\t'\",\"hashProfileImg\":\"', p.hashProfileImg,\n\t\t\t'\"}'));\n    \treturn res;\n\t}\n\n\t// get Doctor data from address\n\tfunction getDoctor(address doctorAddress) public view returns (string) {  \n\t\trequire(doctorIsRegistered(msg.sender), \"Doctor is not registered\");  // check if the user is registered\n\t\trequire(doctorIsRegistered(doctorAddress), \"Doctor is not registered\");  // check if the user is registered\n\t\tDoctor memory d = doctors[doctorAddress];\n\t\tstring memory res = string(abi.encodePacked('{',\n\t\t\t'\"address\":\"', addressToString(doctorAddress),\n\t\t\t'\",\"name\":\"', d.name, \n\t\t\t'\",\"idCard\":\"', d.idCard,\n\t\t\t'\",\"createdBy\":\"', addressToString(d.createdBy),\n\t\t\t'\",\"email\":\"', d.email,\n\t\t\t'\",\"specialization\":\"', d.specialization,\n\t\t\t'\",\"joiningDate\":\"', d.joiningDate,\n\t\t\t'\",\"hashProfileImg\":\"', d.hashProfileImg,\n\t\t\t'\"}'));\n    \treturn res;\n\t}\n\n    // check if the doctor address is already registered\n\tfunction doctorIsRegistered(address addr) private view returns (bool) {\n\t\treturn registeredDoctors[addr];\n\t}\n\n    // check if the patient address is already registered\n\tfunction patientIsRegistered(address addr) private view returns (bool) {\n\t\treturn registeredPatients[addr];\n\t}\n\t\n\t// check password match\n\tfunction checkPassword(string password, bytes32 realPassword) internal pure returns (bool) {\n\t    if (keccak256(abi.encodePacked(password)) == realPassword) {\n\t        return true;\n        }\n\t}\n\t\n\t// add Diagnosis to History of Patient\n\tfunction addDiagnosisToPatient(address patientAddress, string creationDate, string weight, \n\t    string height, string description, string observations, string hashFile) public returns(string) {\n\t        \n\t    require(doctorIsRegistered(msg.sender), \"The registering Doctor is not registered\");  // the doctor is registered\n\t\trequire(patientIsRegistered(patientAddress), \"The Patient is not registered\");  // the new patient is not already registered\n\t\tPatient storage patient = patients[patientAddress];  // get and save doctor\n\t\t\n\t\t// d is the new Diagnosis\n\t\tDiagnosis memory d;\n\t\td.id = uint2hexstr(getUniqueId(patientAddress));\n\t\td.creationDate = creationDate;\n\t\td.weight = weight;\n\t\td.height = height;\n\t\td.description = description;\n\t\td.observations = observations;\n\t\td.createdBy = msg.sender;\n\t\td.hashFile = hashFile;\n\n\t\t// push the Diagnosis to history\n\t\tpatient.history.push(d);\n\t}\n\t\n\t// get History IDs by the patient address\n\tfunction getHistoryPatientByAddress(address patientAddr) public view returns (string) {  \n\t\trequire(doctorIsRegistered(msg.sender), \"Doctor is not registered\");  // check if the user is registered\n\t\trequire(patientIsRegistered(patientAddr), \"Patient is not registered\");  // check if the user is registered\n\t\tPatient memory patient = patients[patientAddr];\n\t\t\n\t\tif (patient.history.length > 0) {\n\t\t\tstring memory historyIds;\n\t\t\thistoryIds = patient.history[0].id;\n\t\t\tfor (uint i = 1; i < patient.history.length; i++) {\n\t\t\t\thistoryIds = string(abi.encodePacked(historyIds, \",\", patient.history[i].id));\n\t\t\t}\n\t\t\treturn historyIds;\n\t\t} else {\n\t\t\treturn \"\";\n\t\t}\n\t}\n\t\n\t// get Diagnosis from ID and patient address\n\tfunction getDiagnosisByIdAndAddress(string idDiagnosis, address patientAddr) public view returns (string) {  \n\t\trequire(doctorIsRegistered(msg.sender), \"Doctor is not registered\");  // check if the user is registered\n\t\trequire(patientIsRegistered(patientAddr), \"Patient is not registered\");  // check if the user is registered\n\t\tPatient memory patient = patients[patientAddr];\n\t\t\n\t\t// TODO\n\t\t// Diagnosis memory d = patient.history[id];\n\t\tDiagnosis memory d;\n\t\tfor (uint i = 0; i < patient.history.length; i++) {\n\t\t    if (keccak256(abi.encodePacked(patient.history[i].id)) == keccak256(abi.encodePacked(idDiagnosis))) {\n\t\t        d = patient.history[i];\n\t\t        break;\n\t\t    }\n\t\t}\n\n\t\tstring memory res = string(abi.encodePacked('{',\n\t\t\t'\"creationDate\":\"', d.creationDate,\n\t\t\t'\",\"weight\":\"', d.weight, \n\t\t\t'\",\"height\":\"', d.height,\n\t\t\t'\",\"createdBy\":\"', addressToString(d.createdBy),\n\t\t\t'\",\"description\":\"', d.description,\n\t\t\t'\",\"observations\":\"', d.observations,\n\t\t\t'\",\"hashFile\":\"', d.hashFile,\n\t\t\t'\"}'));\n\n\t\treturn res;\n\t}\n\t\n\tfunction listDoctors(address docAddress) public view returns (address[] memory) {\n\t    require(doctorIsRegistered(msg.sender), \"Doctor is not registered\");  // check if the user is registered\n\t\treturn listTotalDoctors;\n\t}\n\n\tfunction listPatients(address docAddress) public view returns (address[] memory) {\n\t    require(doctorIsRegistered(msg.sender), \"Doctor is not registered\");  // check if the user is registered\n\t\treturn listTotalPatients;\n\t}\n\t\n\t// Generate unique ID\n    function getUniqueId(address patientAddress) internal view returns (uint) {\n        // hash the msg.sender + patientAddress + date now\n        bytes20 b = bytes20(keccak256(abi.encodePacked(msg.sender, patientAddress, now)));  \n        uint id = 0;\n        for (uint index = b.length-1; index+1 > 0; index--) {\n            id += uint(b[index]) * ( 16 ** ((b.length - index - 1) * 2));\n        }\n        return id;\n    }\n    \n    // uint to string\n    function uint2hexstr(uint i) internal pure returns (string) {\n        if (i == 0) return \"0\";\n        uint j = i;\n        uint length;\n        while (j != 0) {\n            length++;\n            j = j >> 4;\n        }\n        uint mask = 15;\n        bytes memory bstr = new bytes(length);\n        uint k = length - 1;\n        while (i != 0){\n            uint curr = (i & mask);\n            bstr[k--] = curr > 9 ? byte(55 + curr ) : byte(48 + curr); // 55 = 65 - 10\n            i = i >> 4;\n        }\n        return string(bstr);\n    }\n    \n    // Address to string\n    function addressToString(address _addr) internal pure returns(string) {\n        bytes32 value = bytes32(uint256(_addr));\n        bytes memory alphabet = \"0123456789abcdef\";\n    \n        bytes memory str = new bytes(42);\n        str[0] = '0';\n        str[1] = 'x';\n        for (uint i = 0; i < 20; i++) {\n            str[2+i*2] = alphabet[uint(uint8(value[i + 12] >> 4))];\n            str[3+i*2] = alphabet[uint(uint8(value[i + 12] & 0x0f))];\n        }\n        return string(str);\n    }\n    \n    \n}",
  "sourcePath": "/Users/reyes/Apps/blockchain_back_cinv/medical-system/contracts/Medical.sol",
  "compiler": {
    "name": "solc",
    "version": "0.4.25+commit.59dbf8f1.Emscripten.clang"
  },
  "schemaVersion": "2.0.2",
  "updatedAt": "2020-04-22T23:43:51.989Z"
}