{
  "contractName": "Medical",
  "abi": [
    {
      "constant": true,
      "inputs": [
        {
          "name": "",
          "type": "uint256"
        }
      ],
      "name": "listTotalPatients",
      "outputs": [
        {
          "name": "",
          "type": "address"
        }
      ],
      "payable": false,
      "stateMutability": "view",
      "type": "function"
    },
    {
      "constant": true,
      "inputs": [
        {
          "name": "",
          "type": "uint256"
        }
      ],
      "name": "listTotalDoctors",
      "outputs": [
        {
          "name": "",
          "type": "address"
        }
      ],
      "payable": false,
      "stateMutability": "view",
      "type": "function"
    },
    {
      "inputs": [],
      "payable": false,
      "stateMutability": "nonpayable",
      "type": "constructor"
    },
    {
      "constant": false,
      "inputs": [
        {
          "name": "doctorAddress",
          "type": "address"
        },
        {
          "name": "name",
          "type": "string"
        },
        {
          "name": "idCard",
          "type": "string"
        },
        {
          "name": "password",
          "type": "string"
        }
      ],
      "name": "registerDoctor",
      "outputs": [],
      "payable": false,
      "stateMutability": "nonpayable",
      "type": "function"
    },
    {
      "constant": false,
      "inputs": [
        {
          "name": "patientAddress",
          "type": "address"
        },
        {
          "name": "name",
          "type": "string"
        },
        {
          "name": "curp",
          "type": "string"
        },
        {
          "name": "birthday",
          "type": "string"
        },
        {
          "name": "blood",
          "type": "string"
        },
        {
          "name": "password",
          "type": "string"
        }
      ],
      "name": "registerPatient",
      "outputs": [],
      "payable": false,
      "stateMutability": "nonpayable",
      "type": "function"
    },
    {
      "constant": true,
      "inputs": [
        {
          "name": "addr",
          "type": "address"
        },
        {
          "name": "password",
          "type": "string"
        }
      ],
      "name": "loginDoctor",
      "outputs": [
        {
          "name": "",
          "type": "string"
        },
        {
          "name": "",
          "type": "string"
        }
      ],
      "payable": false,
      "stateMutability": "view",
      "type": "function"
    },
    {
      "constant": true,
      "inputs": [
        {
          "name": "addr",
          "type": "address"
        },
        {
          "name": "password",
          "type": "string"
        }
      ],
      "name": "loginPatient",
      "outputs": [
        {
          "name": "",
          "type": "string"
        },
        {
          "name": "",
          "type": "string"
        }
      ],
      "payable": false,
      "stateMutability": "view",
      "type": "function"
    },
    {
      "constant": true,
      "inputs": [
        {
          "name": "patientAddress",
          "type": "address"
        }
      ],
      "name": "getPatient",
      "outputs": [
        {
          "name": "",
          "type": "string"
        }
      ],
      "payable": false,
      "stateMutability": "view",
      "type": "function"
    },
    {
      "constant": true,
      "inputs": [
        {
          "name": "doctorAddress",
          "type": "address"
        }
      ],
      "name": "getDoctor",
      "outputs": [
        {
          "name": "",
          "type": "string"
        }
      ],
      "payable": false,
      "stateMutability": "view",
      "type": "function"
    },
    {
      "constant": false,
      "inputs": [
        {
          "name": "patientAddress",
          "type": "address"
        },
        {
          "name": "creationDate",
          "type": "string"
        },
        {
          "name": "weight",
          "type": "string"
        },
        {
          "name": "height",
          "type": "string"
        },
        {
          "name": "description",
          "type": "string"
        },
        {
          "name": "observations",
          "type": "string"
        },
        {
          "name": "hashFile",
          "type": "string"
        }
      ],
      "name": "addDiagnosisToPatient",
      "outputs": [
        {
          "name": "",
          "type": "string"
        }
      ],
      "payable": false,
      "stateMutability": "nonpayable",
      "type": "function"
    },
    {
      "constant": true,
      "inputs": [
        {
          "name": "patientAddr",
          "type": "address"
        }
      ],
      "name": "getHistoryPatientByAddress",
      "outputs": [
        {
          "name": "",
          "type": "string"
        }
      ],
      "payable": false,
      "stateMutability": "view",
      "type": "function"
    },
    {
      "constant": true,
      "inputs": [
        {
          "name": "idDiagnosis",
          "type": "string"
        },
        {
          "name": "patientAddr",
          "type": "address"
        }
      ],
      "name": "getDiagnosisByIdAndAddress",
      "outputs": [
        {
          "name": "",
          "type": "string"
        }
      ],
      "payable": false,
      "stateMutability": "view",
      "type": "function"
    },
    {
      "constant": true,
      "inputs": [
        {
          "name": "docAddress",
          "type": "address"
        }
      ],
      "name": "listDoctors",
      "outputs": [
        {
          "name": "",
          "type": "address[]"
        }
      ],
      "payable": false,
      "stateMutability": "view",
      "type": "function"
    },
    {
      "constant": true,
      "inputs": [
        {
          "name": "docAddress",
          "type": "address"
        }
      ],
      "name": "listPatients",
      "outputs": [
        {
          "name": "",
          "type": "address[]"
        }
      ],
      "payable": false,
      "stateMutability": "view",
      "type": "function"
    }
  ],
  "bytecode": "0x608060405234801561001057600080fd5b5060008054600160a060020a0319163317905561494d806100326000396000f3006080604052600436106100c45763ffffffff7c0100000000000000000000000000000000000000000000000000000000600035041663286a4b8b81146100c95780632f04e064146100fd5780632ff650c2146101935780633c3f9dcf146102d85780633db114911461033f5780637c280724146103a35780637c81163d146105045780638c7a2cf21461057557806393c095ff1461058d5780639b45ba1814610670578063a5e6a68514610691578063aecc1d001461082e578063b5368e201461084f575b600080fd5b3480156100d557600080fd5b506100e1600435610870565b60408051600160a060020a039092168252519081900360200190f35b34801561010957600080fd5b5061011e600160a060020a0360043516610898565b6040805160208082528351818301528351919283929083019185019080838360005b83811015610158578181015183820152602001610140565b50505050905090810190601f1680156101855780820380516001836020036101000a031916815260200191505b509250505060405180910390f35b34801561019f57600080fd5b5060408051602060046024803582810135601f81018590048502860185019096528585526101fa958335600160a060020a0316953695604494919390910191908190840183828082843750949750610ce39650505050505050565b604051808060200180602001838103835285818151815260200191508051906020019080838360005b8381101561023b578181015183820152602001610223565b50505050905090810190601f1680156102685780820380516001836020036101000a031916815260200191505b50838103825284518152845160209182019186019080838360005b8381101561029b578181015183820152602001610283565b50505050905090810190601f1680156102c85780820380516001836020036101000a031916815260200191505b5094505050505060405180910390f35b3480156102e457600080fd5b5060408051602060046024803582810135601f81018590048502860185019096528585526101fa958335600160a060020a03169536956044949193909101919081908401838280828437509497506115549650505050505050565b34801561034b57600080fd5b506040805160206004803580820135601f810184900484028501840190955284845261011e94369492936024939284019190819084018382808284375094975050509235600160a060020a031693506117b992505050565b3480156103af57600080fd5b5060408051602060046024803582810135601f8101859004850286018501909652858552610502958335600160a060020a031695369560449491939091019190819084018382808284375050604080516020601f89358b018035918201839004830284018301909452808352979a99988101979196509182019450925082915084018382808284375050604080516020601f89358b018035918201839004830284018301909452808352979a99988101979196509182019450925082915084018382808284375050604080516020601f89358b018035918201839004830284018301909452808352979a99988101979196509182019450925082915084018382808284375050604080516020601f89358b018035918201839004830284018301909452808352979a99988101979196509182019450925082915084018382808284375094975061257e9650505050505050565b005b34801561051057600080fd5b50610525600160a060020a03600435166127ac565b60408051602080825283518183015283519192839290830191858101910280838360005b83811015610561578181015183820152602001610549565b505050509050019250505060405180910390f35b34801561058157600080fd5b506100e160043561285d565b34801561059957600080fd5b5060408051602060046024803582810135601f8101859004850286018501909652858552610502958335600160a060020a031695369560449491939091019190819084018382808284375050604080516020601f89358b018035918201839004830284018301909452808352979a99988101979196509182019450925082915084018382808284375050604080516020601f89358b018035918201839004830284018301909452808352979a99988101979196509182019450925082915084018382808284375094975061286b9650505050505050565b34801561067c57600080fd5b50610525600160a060020a03600435166129c0565b34801561069d57600080fd5b5060408051602060046024803582810135601f810185900485028601850190965285855261011e958335600160a060020a031695369560449491939091019190819084018382808284375050604080516020601f89358b018035918201839004830284018301909452808352979a99988101979196509182019450925082915084018382808284375050604080516020601f89358b018035918201839004830284018301909452808352979a99988101979196509182019450925082915084018382808284375050604080516020601f89358b018035918201839004830284018301909452808352979a99988101979196509182019450925082915084018382808284375050604080516020601f89358b018035918201839004830284018301909452808352979a99988101979196509182019450925082915084018382808284375050604080516020601f89358b018035918201839004830284018301909452808352979a999881019791965091820194509250829150840183828082843750949750612a6f9650505050505050565b34801561083a57600080fd5b5061011e600160a060020a0360043516612cda565b34801561085b57600080fd5b5061011e600160a060020a0360043516613651565b600680548290811061087e57fe5b600091825260209091200154600160a060020a0316905081565b60606108a261477e565b60606108ad3361416f565b15156108f1576040805160e560020a62461bcd0281526020600482015260186024820152600080516020614902833981519152604482015290519081900360640190fd5b6108fa8461416f565b151561093e576040805160e560020a62461bcd0281526020600482015260186024820152600080516020614902833981519152604482015290519081900360640190fd5b600160a060020a0384166000908152600160208181526040928390208351815460029481161561010002600019011693909304601f8101839004909202830160a09081019094526080830182815292939092849290918491908401828280156109e85780601f106109bd576101008083540402835291602001916109e8565b820191906000526020600020905b8154815290600101906020018083116109cb57829003601f168201915b50505050508152602001600182018054600181600116156101000203166002900480601f016020809104026020016040519081016040528092919081815260200182805460018160011615610100020316600290048015610a8a5780601f10610a5f57610100808354040283529160200191610a8a565b820191906000526020600020905b815481529060010190602001808311610a6d57829003601f168201915b5050509183525050600282810180546040805160206001841615610100026000190190931694909404601f81018390048302850183019091528084529381019390830182828015610b1c5780601f10610af157610100808354040283529160200191610b1c565b820191906000526020600020905b815481529060010190602001808311610aff57829003601f168201915b505050918352505060039190910154600160a060020a03166020909101529150610b458461418d565b825160408401516060850151610b5a9061418d565b6040516020018085805190602001908083835b60208310610b8c5780518252601f199092019160209182019101610b6d565b6001836020036101000a0380198251168184511680821785525050505050509050018060fa60020a600b0281525060010184805190602001908083835b60208310610be85780518252601f199092019160209182019101610bc9565b6001836020036101000a0380198251168184511680821785525050505050509050018060fa60020a600b0281525060010183805190602001908083835b60208310610c445780518252601f199092019160209182019101610c25565b6001836020036101000a0380198251168184511680821785525050505050509050018060fa60020a600b0281525060010182805190602001908083835b60208310610ca05780518252601f199092019160209182019101610c81565b6001836020036101000a03801982511681845116808217855250505050505090500194505050505060405160208183030381529060405290508092505050919050565b606080610cee6147b0565b610cf785614395565b1515610d3b576040805160e560020a62461bcd02815260206004820152601960248201526000805160206148e2833981519152604482015290519081900360640190fd5b600160a060020a0385166000908152600260208181526040928390208351815460018116156101009081026000190190911694909404601f81018490049093028101840190945260e08401828152909284928491840182828015610de05780601f10610db557610100808354040283529160200191610de0565b820191906000526020600020905b815481529060010190602001808311610dc357829003601f168201915b50505050508152602001600182018054600181600116156101000203166002900480601f016020809104026020016040519081016040528092919081815260200182805460018160011615610100020316600290048015610e825780601f10610e5757610100808354040283529160200191610e82565b820191906000526020600020905b815481529060010190602001808311610e6557829003601f168201915b5050509183525050600282810180546040805160206001841615610100026000190190931694909404601f81018390048302850183019091528084529381019390830182828015610f145780601f10610ee957610100808354040283529160200191610f14565b820191906000526020600020905b815481529060010190602001808311610ef757829003601f168201915b505050918352505060038201805460408051602060026001851615610100026000190190941693909304601f8101849004840282018401909252818152938201939291830182828015610fa85780601f10610f7d57610100808354040283529160200191610fa8565b820191906000526020600020905b815481529060010190602001808311610f8b57829003601f168201915b505050918352505060048201805460408051602060026001851615610100026000190190941693909304601f810184900484028201840190925281815293820193929183018282801561103c5780601f106110115761010080835404028352916020019161103c565b820191906000526020600020905b81548152906001019060200180831161101f57829003601f168201915b50505091835250506005820154600160a060020a0316602080830191909152600683018054604080518285028101850182528281529401939260009084015b828210156114d3576000848152602090819020604080516008860290920180546002610100600183161581026000190190921604601f810186900490950284016101209081019093528301848152929390928492909184918401828280156111245780601f106110f957610100808354040283529160200191611124565b820191906000526020600020905b81548152906001019060200180831161110757829003601f168201915b50505050508152602001600182018054600181600116156101000203166002900480601f0160208091040260200160405190810160405280929190818152602001828054600181600116156101000203166002900480156111c65780601f1061119b576101008083540402835291602001916111c6565b820191906000526020600020905b8154815290600101906020018083116111a957829003601f168201915b5050509183525050600282810180546040805160206001841615610100026000190190931694909404601f810183900483028501830190915280845293810193908301828280156112585780601f1061122d57610100808354040283529160200191611258565b820191906000526020600020905b81548152906001019060200180831161123b57829003601f168201915b505050918352505060038201805460408051602060026001851615610100026000190190941693909304601f81018490048402820184019092528181529382019392918301828280156112ec5780601f106112c1576101008083540402835291602001916112ec565b820191906000526020600020905b8154815290600101906020018083116112cf57829003601f168201915b505050918352505060048201805460408051602060026001851615610100026000190190941693909304601f81018490048402820184019092528181529382019392918301828280156113805780601f1061135557610100808354040283529160200191611380565b820191906000526020600020905b81548152906001019060200180831161136357829003601f168201915b505050918352505060058201805460408051602060026001851615610100026000190190941693909304601f81018490048402820184019092528181529382019392918301828280156114145780601f106113e957610100808354040283529160200191611414565b820191906000526020600020905b8154815290600101906020018083116113f757829003601f168201915b50505091835250506006820154600160a060020a031660208083019190915260078301805460408051601f600260001960018616156101000201909416939093049283018590048502810185018252828152940193928301828280156114bb5780601f10611490576101008083540402835291602001916114bb565b820191906000526020600020905b81548152906001019060200180831161149e57829003601f168201915b5050505050815250508152602001906001019061107b565b505050508152505090506114eb8482602001516143b3565b1515611541576040805160e560020a62461bcd02815260206004820152601060248201527f496e76616c69642070617373776f726400000000000000000000000000000000604482015290519081900360640190fd5b8051604090910151909590945092505050565b60608061155f61477e565b6115688561416f565b15156115ac576040805160e560020a62461bcd0281526020600482015260186024820152600080516020614902833981519152604482015290519081900360640190fd5b600160a060020a0385166000908152600160208181526040928390208351815460029481161561010002600019011693909304601f8101839004909202830160a09081019094526080830182815292939092849290918491908401828280156116565780601f1061162b57610100808354040283529160200191611656565b820191906000526020600020905b81548152906001019060200180831161163957829003601f168201915b50505050508152602001600182018054600181600116156101000203166002900480601f0160208091040260200160405190810160405280929190818152602001828054600181600116156101000203166002900480156116f85780601f106116cd576101008083540402835291602001916116f8565b820191906000526020600020905b8154815290600101906020018083116116db57829003601f168201915b5050509183525050600282810180546040805160206001841615610100026000190190931694909404601f8101839004830285018301909152808452938101939083018282801561178a5780601f1061175f5761010080835404028352916020019161178a565b820191906000526020600020905b81548152906001019060200180831161176d57829003601f168201915b505050918352505060039190910154600160a060020a03166020918201528101519091506114eb9085906143b3565b60606117c36147b0565b6117cb6147f7565b60008060606117d93361416f565b151561181d576040805160e560020a62461bcd0281526020600482015260186024820152600080516020614902833981519152604482015290519081900360640190fd5b61182687614395565b151561186a576040805160e560020a62461bcd02815260206004820152601960248201526000805160206148e2833981519152604482015290519081900360640190fd5b600160a060020a0387166000908152600260208181526040928390208351815460018116156101009081026000190190911694909404601f81018490049093028101840190945260e0840182815290928492849184018282801561190f5780601f106118e45761010080835404028352916020019161190f565b820191906000526020600020905b8154815290600101906020018083116118f257829003601f168201915b50505050508152602001600182018054600181600116156101000203166002900480601f0160208091040260200160405190810160405280929190818152602001828054600181600116156101000203166002900480156119b15780601f10611986576101008083540402835291602001916119b1565b820191906000526020600020905b81548152906001019060200180831161199457829003601f168201915b5050509183525050600282810180546040805160206001841615610100026000190190931694909404601f81018390048302850183019091528084529381019390830182828015611a435780601f10611a1857610100808354040283529160200191611a43565b820191906000526020600020905b815481529060010190602001808311611a2657829003601f168201915b505050918352505060038201805460408051602060026001851615610100026000190190941693909304601f8101849004840282018401909252818152938201939291830182828015611ad75780601f10611aac57610100808354040283529160200191611ad7565b820191906000526020600020905b815481529060010190602001808311611aba57829003601f168201915b505050918352505060048201805460408051602060026001851615610100026000190190941693909304601f8101849004840282018401909252818152938201939291830182828015611b6b5780601f10611b4057610100808354040283529160200191611b6b565b820191906000526020600020905b815481529060010190602001808311611b4e57829003601f168201915b50505091835250506005820154600160a060020a0316602080830191909152600683018054604080518285028101850182528281529401939260009084015b82821015612002576000848152602090819020604080516008860290920180546002610100600183161581026000190190921604601f81018690049095028401610120908101909352830184815292939092849290918491840182828015611c535780601f10611c2857610100808354040283529160200191611c53565b820191906000526020600020905b815481529060010190602001808311611c3657829003601f168201915b50505050508152602001600182018054600181600116156101000203166002900480601f016020809104026020016040519081016040528092919081815260200182805460018160011615610100020316600290048015611cf55780601f10611cca57610100808354040283529160200191611cf5565b820191906000526020600020905b815481529060010190602001808311611cd857829003601f168201915b5050509183525050600282810180546040805160206001841615610100026000190190931694909404601f81018390048302850183019091528084529381019390830182828015611d875780601f10611d5c57610100808354040283529160200191611d87565b820191906000526020600020905b815481529060010190602001808311611d6a57829003601f168201915b505050918352505060038201805460408051602060026001851615610100026000190190941693909304601f8101849004840282018401909252818152938201939291830182828015611e1b5780601f10611df057610100808354040283529160200191611e1b565b820191906000526020600020905b815481529060010190602001808311611dfe57829003601f168201915b505050918352505060048201805460408051602060026001851615610100026000190190941693909304601f8101849004840282018401909252818152938201939291830182828015611eaf5780601f10611e8457610100808354040283529160200191611eaf565b820191906000526020600020905b815481529060010190602001808311611e9257829003601f168201915b505050918352505060058201805460408051602060026001851615610100026000190190941693909304601f8101849004840282018401909252818152938201939291830182828015611f435780601f10611f1857610100808354040283529160200191611f43565b820191906000526020600020905b815481529060010190602001808311611f2657829003601f168201915b50505091835250506006820154600160a060020a031660208083019190915260078301805460408051601f60026000196001861615610100020190941693909304928301859004850281018501825282815294019392830182828015611fea5780601f10611fbf57610100808354040283529160200191611fea565b820191906000526020600020905b815481529060010190602001808311611fcd57829003601f168201915b50505050508152505081526020019060010190611baa565b5050505081525050945060009250600091505b8460c001515182101561220357876040516020018082805190602001908083835b602083106120555780518252601f199092019160209182019101612036565b6001836020036101000a0380198251168184511680821785525050505050509050019150506040516020818303038152906040526040518082805190602001908083835b602083106120b85780518252601f199092019160209182019101612099565b5181516020939093036101000a6000190180199091169216919091179052604051920182900390912060c08901518051919450925085915081106120f857fe5b90602001906020020151600001516040516020018082805190602001908083835b602083106121385780518252601f199092019160209182019101612119565b6001836020036101000a0380198251168184511680821785525050505050509050019150506040516020818303038152906040526040518082805190602001908083835b6020831061219b5780518252601f19909201916020918201910161217c565b6001836020036101000a03801982511681845116808217855250505050505090500191505060405180910390206000191614156121f85760c08501518051839081106121e357fe5b90602001906020020151935060019250612203565b600190910190612015565b8215156122455760408051808201909152601a81527f4572726f722c20446961676e6f736973206e6f7420666f756e6400000000000060208201529550612573565b83602001518460400151856060015186608001516040516020018085805190602001908083835b6020831061228b5780518252601f19909201916020918201910161226c565b6001836020036101000a0380198251168184511680821785525050505050509050018060fa60020a600b0281525060010184805190602001908083835b602083106122e75780518252601f1990920191602091820191016122c8565b6001836020036101000a0380198251168184511680821785525050505050509050018060fa60020a600b0281525060010183805190602001908083835b602083106123435780518252601f199092019160209182019101612324565b6001836020036101000a0380198251168184511680821785525050505050509050018060fa60020a600b0281525060010182805190602001908083835b6020831061239f5780518252601f199092019160209182019101612380565b6001836020036101000a0380198251168184511680821785525050505050509050019450505050506040516020818303038152906040529050808460a001516123eb8660c0015161418d565b8660e001516040516020018085805190602001908083835b602083106124225780518252601f199092019160209182019101612403565b6001836020036101000a0380198251168184511680821785525050505050509050018060fa60020a600b0281525060010184805190602001908083835b6020831061247e5780518252601f19909201916020918201910161245f565b6001836020036101000a0380198251168184511680821785525050505050509050018060fa60020a600b0281525060010183805190602001908083835b602083106124da5780518252601f1990920191602091820191016124bb565b6001836020036101000a0380198251168184511680821785525050505050509050018060fa60020a600b0281525060010182805190602001908083835b602083106125365780518252601f199092019160209182019101612517565b6001836020036101000a03801982511681845116808217855250505050505090500194505050505060405160208183030381529060405290508095505b505050505092915050565b60006125893361416f565b1515612605576040805160e560020a62461bcd02815260206004820152602860248201527f546865207265676973746572696e6720446f63746f72206973206e6f7420726560448201527f6769737465726564000000000000000000000000000000000000000000000000606482015290519081900360840190fd5b61260e87614395565b15612689576040805160e560020a62461bcd02815260206004820152602160248201527f5468652050617469656e7420697320616c72656164792072656769737465726560448201527f6400000000000000000000000000000000000000000000000000000000000000606482015290519081900360840190fd5b50600160a060020a0386166000908152600260209081526040909120865190916126b7918391890190614846565b5084516126cd9060028301906020880190614846565b5060058101805473ffffffffffffffffffffffffffffffffffffffff19163317905581516127049060018301906020850190614846565b50825161271a9060048301906020860190614846565b5083516127309060038301906020870190614846565b505050600160a060020a039094166000818152600360205260408120805460ff191660019081179091556006805491820181559091527ff652222313e28459528d920b65115c16c04f3efc82aaedc97be59f3f377c0d3f01805473ffffffffffffffffffffffffffffffffffffffff1916909117905550505050565b60606127b73361416f565b15156127fb576040805160e560020a62461bcd0281526020600482015260186024820152600080516020614902833981519152604482015290519081900360640190fd5b600580548060200260200160405190810160405280929190818152602001828054801561285157602002820191906000526020600020905b8154600160a060020a03168152600190910190602001808311612833575b50505050509050919050565b600580548290811061087e57fe5b60006128768561416f565b156128cb576040805160e560020a62461bcd02815260206004820181905260248201527f54686520446f63746f7220697320616c72656164792072656769737465726564604482015290519081900360640190fd5b50600160a060020a0384166000908152600160209081526040909120845190916128f9918391870190614846565b50825161290f9060028301906020860190614846565b5060038101805473ffffffffffffffffffffffffffffffffffffffff19163317905581516129469060018301906020850190614846565b505050600160a060020a039092166000818152600460205260408120805460ff191660019081179091556005805491820181559091527f036b6384b5eca791c62761152d0c79bb0604c104a5fb6f4eb0703f3154bb3db001805473ffffffffffffffffffffffffffffffffffffffff191690911790555050565b60606129cb3361416f565b1515612a0f576040805160e560020a62461bcd0281526020600482015260186024820152600080516020614902833981519152604482015290519081900360640190fd5b600680548060200260200160405190810160405280929190818152602001828054801561285157602002820191906000526020600020908154600160a060020a031681526001909101906020018083116128335750505050509050919050565b60606000612a7b6147f7565b612a843361416f565b1515612b00576040805160e560020a62461bcd02815260206004820152602860248201527f546865207265676973746572696e6720446f63746f72206973206e6f7420726560448201527f6769737465726564000000000000000000000000000000000000000000000000606482015290519081900360840190fd5b612b098a614395565b1515612b5f576040805160e560020a62461bcd02815260206004820152601d60248201527f5468652050617469656e74206973206e6f742072656769737465726564000000604482015290519081900360640190fd5b600160a060020a038a1660009081526002602052604090209150612b8a612b858b61454a565b61466c565b815260208082018a905260408201899052606082018890526080820187905260a082018690523360c083015260e08201859052600683018054600181018083556000928352918390208451805193948694600890940290920192612bf19284920190614846565b506020828101518051612c0a9260018501920190614846565b5060408201518051612c26916002840191602090910190614846565b5060608201518051612c42916003840191602090910190614846565b5060808201518051612c5e916004840191602090910190614846565b5060a08201518051612c7a916005840191602090910190614846565b5060c082015160068201805473ffffffffffffffffffffffffffffffffffffffff1916600160a060020a0390921691909117905560e08201518051612cc9916007840191602090910190614846565b505050505050979650505050505050565b6060612ce46147b0565b60606000612cf13361416f565b1515612d35576040805160e560020a62461bcd0281526020600482015260186024820152600080516020614902833981519152604482015290519081900360640190fd5b612d3e85614395565b1515612d82576040805160e560020a62461bcd02815260206004820152601960248201526000805160206148e2833981519152604482015290519081900360640190fd5b600160a060020a0385166000908152600260208181526040928390208351815460018116156101009081026000190190911694909404601f81018490049093028101840190945260e08401828152909284928491840182828015612e275780601f10612dfc57610100808354040283529160200191612e27565b820191906000526020600020905b815481529060010190602001808311612e0a57829003601f168201915b50505050508152602001600182018054600181600116156101000203166002900480601f016020809104026020016040519081016040528092919081815260200182805460018160011615610100020316600290048015612ec95780601f10612e9e57610100808354040283529160200191612ec9565b820191906000526020600020905b815481529060010190602001808311612eac57829003601f168201915b5050509183525050600282810180546040805160206001841615610100026000190190931694909404601f81018390048302850183019091528084529381019390830182828015612f5b5780601f10612f3057610100808354040283529160200191612f5b565b820191906000526020600020905b815481529060010190602001808311612f3e57829003601f168201915b505050918352505060038201805460408051602060026001851615610100026000190190941693909304601f8101849004840282018401909252818152938201939291830182828015612fef5780601f10612fc457610100808354040283529160200191612fef565b820191906000526020600020905b815481529060010190602001808311612fd257829003601f168201915b505050918352505060048201805460408051602060026001851615610100026000190190941693909304601f81018490048402820184019092528181529382019392918301828280156130835780601f1061305857610100808354040283529160200191613083565b820191906000526020600020905b81548152906001019060200180831161306657829003601f168201915b50505091835250506005820154600160a060020a0316602080830191909152600683018054604080518285028101850182528281529401939260009084015b8282101561351a576000848152602090819020604080516008860290920180546002610100600183161581026000190190921604601f8101869004909502840161012090810190935283018481529293909284929091849184018282801561316b5780601f106131405761010080835404028352916020019161316b565b820191906000526020600020905b81548152906001019060200180831161314e57829003601f168201915b50505050508152602001600182018054600181600116156101000203166002900480601f01602080910402602001604051908101604052809291908181526020018280546001816001161561010002031660029004801561320d5780601f106131e25761010080835404028352916020019161320d565b820191906000526020600020905b8154815290600101906020018083116131f057829003601f168201915b5050509183525050600282810180546040805160206001841615610100026000190190931694909404601f8101839004830285018301909152808452938101939083018282801561329f5780601f106132745761010080835404028352916020019161329f565b820191906000526020600020905b81548152906001019060200180831161328257829003601f168201915b505050918352505060038201805460408051602060026001851615610100026000190190941693909304601f81018490048402820184019092528181529382019392918301828280156133335780601f1061330857610100808354040283529160200191613333565b820191906000526020600020905b81548152906001019060200180831161331657829003601f168201915b505050918352505060048201805460408051602060026001851615610100026000190190941693909304601f81018490048402820184019092528181529382019392918301828280156133c75780601f1061339c576101008083540402835291602001916133c7565b820191906000526020600020905b8154815290600101906020018083116133aa57829003601f168201915b505050918352505060058201805460408051602060026001851615610100026000190190941693909304601f810184900484028201840190925281815293820193929183018282801561345b5780601f106134305761010080835404028352916020019161345b565b820191906000526020600020905b81548152906001019060200180831161343e57829003601f168201915b50505091835250506006820154600160a060020a031660208083019190915260078301805460408051601f600260001960018616156101000201909416939093049283018590048502810185018252828152940193928301828280156135025780601f106134d757610100808354040283529160200191613502565b820191906000526020600020905b8154815290600101906020018083116134e557829003601f168201915b505050505081525050815260200190600101906130c2565b505050508152505092508260c00151600081518110151561353757fe5b60209081029091010151519150600190505b8260c001515181101561364957818360c001518281518110151561356957fe5b90602001906020020151600001516040516020018083805190602001908083835b602083106135a95780518252601f19909201916020918201910161358a565b6001836020036101000a0380198251168184511680821785525050505050509050018060fa60020a600b0281525060010182805190602001908083835b602083106136055780518252601f1990920191602091820191016135e6565b6001836020036101000a0380198251168184511680821785525050505050509050019250505060405160208183030381529060405291508080600101915050613549565b509392505050565b606061365b6147b0565b60606136663361416f565b15156136aa576040805160e560020a62461bcd0281526020600482015260186024820152600080516020614902833981519152604482015290519081900360640190fd5b6136b384614395565b15156136f7576040805160e560020a62461bcd02815260206004820152601960248201526000805160206148e2833981519152604482015290519081900360640190fd5b600160a060020a0384166000908152600260208181526040928390208351815460018116156101009081026000190190911694909404601f81018490049093028101840190945260e0840182815290928492849184018282801561379c5780601f106137715761010080835404028352916020019161379c565b820191906000526020600020905b81548152906001019060200180831161377f57829003601f168201915b50505050508152602001600182018054600181600116156101000203166002900480601f01602080910402602001604051908101604052809291908181526020018280546001816001161561010002031660029004801561383e5780601f106138135761010080835404028352916020019161383e565b820191906000526020600020905b81548152906001019060200180831161382157829003601f168201915b5050509183525050600282810180546040805160206001841615610100026000190190931694909404601f810183900483028501830190915280845293810193908301828280156138d05780601f106138a5576101008083540402835291602001916138d0565b820191906000526020600020905b8154815290600101906020018083116138b357829003601f168201915b505050918352505060038201805460408051602060026001851615610100026000190190941693909304601f81018490048402820184019092528181529382019392918301828280156139645780601f1061393957610100808354040283529160200191613964565b820191906000526020600020905b81548152906001019060200180831161394757829003601f168201915b505050918352505060048201805460408051602060026001851615610100026000190190941693909304601f81018490048402820184019092528181529382019392918301828280156139f85780601f106139cd576101008083540402835291602001916139f8565b820191906000526020600020905b8154815290600101906020018083116139db57829003601f168201915b50505091835250506005820154600160a060020a0316602080830191909152600683018054604080518285028101850182528281529401939260009084015b82821015613e8f576000848152602090819020604080516008860290920180546002610100600183161581026000190190921604601f81018690049095028401610120908101909352830184815292939092849290918491840182828015613ae05780601f10613ab557610100808354040283529160200191613ae0565b820191906000526020600020905b815481529060010190602001808311613ac357829003601f168201915b50505050508152602001600182018054600181600116156101000203166002900480601f016020809104026020016040519081016040528092919081815260200182805460018160011615610100020316600290048015613b825780601f10613b5757610100808354040283529160200191613b82565b820191906000526020600020905b815481529060010190602001808311613b6557829003601f168201915b5050509183525050600282810180546040805160206001841615610100026000190190931694909404601f81018390048302850183019091528084529381019390830182828015613c145780601f10613be957610100808354040283529160200191613c14565b820191906000526020600020905b815481529060010190602001808311613bf757829003601f168201915b505050918352505060038201805460408051602060026001851615610100026000190190941693909304601f8101849004840282018401909252818152938201939291830182828015613ca85780601f10613c7d57610100808354040283529160200191613ca8565b820191906000526020600020905b815481529060010190602001808311613c8b57829003601f168201915b505050918352505060048201805460408051602060026001851615610100026000190190941693909304601f8101849004840282018401909252818152938201939291830182828015613d3c5780601f10613d1157610100808354040283529160200191613d3c565b820191906000526020600020905b815481529060010190602001808311613d1f57829003601f168201915b505050918352505060058201805460408051602060026001851615610100026000190190941693909304601f8101849004840282018401909252818152938201939291830182828015613dd05780601f10613da557610100808354040283529160200191613dd0565b820191906000526020600020905b815481529060010190602001808311613db357829003601f168201915b50505091835250506006820154600160a060020a031660208083019190915260078301805460408051601f60026000196001861615610100020190941693909304928301859004850281018501825282815294019392830182828015613e775780601f10613e4c57610100808354040283529160200191613e77565b820191906000526020600020905b815481529060010190602001808311613e5a57829003601f168201915b50505050508152505081526020019060010190613a37565b50505050815250509150613ea28461418d565b8260000151836040015184606001516040516020018085805190602001908083835b60208310613ee35780518252601f199092019160209182019101613ec4565b6001836020036101000a0380198251168184511680821785525050505050509050018060fa60020a600b0281525060010184805190602001908083835b60208310613f3f5780518252601f199092019160209182019101613f20565b6001836020036101000a0380198251168184511680821785525050505050509050018060fa60020a600b0281525060010183805190602001908083835b60208310613f9b5780518252601f199092019160209182019101613f7c565b6001836020036101000a0380198251168184511680821785525050505050509050018060fa60020a600b0281525060010182805190602001908083835b60208310613ff75780518252601f199092019160209182019101613fd8565b6001836020036101000a03801982511681845116808217855250505050505090500194505050505060405160208183030381529060405290508082608001516140438460a0015161418d565b6040516020018084805190602001908083835b602083106140755780518252601f199092019160209182019101614056565b6001836020036101000a0380198251168184511680821785525050505050509050018060fa60020a600b0281525060010183805190602001908083835b602083106140d15780518252601f1990920191602091820191016140b2565b6001836020036101000a0380198251168184511680821785525050505050509050018060fa60020a600b0281525060010182805190602001908083835b6020831061412d5780518252601f19909201916020918201910161410e565b6001836020036101000a038019825116818451168082178552505050505050905001935050505060405160208183030381529060405290508092505050919050565b600160a060020a031660009081526004602052604090205460ff1690565b604080518082018252601081527f303132333435363738396162636465660000000000000000000000000000000060208201528151602a8082526060828101909452600160a060020a03851692918491600091908160200160208202803883390190505091507f300000000000000000000000000000000000000000000000000000000000000082600081518110151561422357fe5b906020010190600160f860020a031916908160001a9053507f780000000000000000000000000000000000000000000000000000000000000082600181518110151561426b57fe5b906020010190600160f860020a031916908160001a905350600090505b601481101561438c5782600485600c8401602081106142a357fe5b1a60f860020a02600160f860020a0319169060020a900460f860020a900460ff168151811015156142d057fe5b90602001015160f860020a900460f860020a0282826002026002018151811015156142f757fe5b906020010190600160f860020a031916908160001a9053508284600c83016020811061431f57fe5b1a60f860020a02600f60f860020a021660f860020a900460ff1681518110151561434557fe5b90602001015160f860020a900460f860020a02828260020260030181518110151561436c57fe5b906020010190600160f860020a031916908160001a905350600101614288565b50949350505050565b600160a060020a031660009081526003602052604090205460ff1690565b6000816040516020018082805190602001908083835b602083106143e85780518252601f1990920191602091820191016143c9565b6001836020036101000a0380198251168184511680821785525050505050509050019150506040516020818303038152906040526040518082805190602001908083835b6020831061444b5780518252601f19909201916020918201910161442c565b51815160209384036101000a60001901801990921691161790526040519190930181900381208851909550889450908301928392508401908083835b602083106144a65780518252601f199092019160209182019101614487565b6001836020036101000a0380198251168184511680821785525050505050509050019150506040516020818303038152906040526040518082805190602001908083835b602083106145095780518252601f1990920191602091820191016144ea565b6001836020036101000a0380198251168184511680821785525050505050509050019150506040518091039020600019161415614544575060015b92915050565b6000806000803385426040516020018084600160a060020a0316600160a060020a03166c0100000000000000000000000002815260140183600160a060020a0316600160a060020a03166c0100000000000000000000000002815260140182815260200193505050506040516020818303038152906040526040518082805190602001908083835b602083106145f15780518252601f1990920191602091820191016145d2565b5181516020939093036101000a60001901801990911692169190911790526040519201829003909120955060009450601393505050505b600081600101111561364957600181601460ff16030360020260100a838260148110151561465257fe5b60f860020a91901a81020402919091019060001901614628565b6060600080808381808715156146b75760408051808201909152600181527f300000000000000000000000000000000000000000000000000000000000000060208201529650614773565b8795505b85156146d2576010909504946001909401936146bb565b600f9350846040519080825280601f01601f191660200182016040528015614704578160200160208202803883390190505b5092506001850391505b871561476f57508683166009811161472f578060300160f860020a0261473a565b8060370160f860020a025b83516000198401938591811061474c57fe5b906020010190600160f860020a031916908160001a90535060109097049661470e565b8296505b505050505050919050565b6080604051908101604052806060815260200160608152602001606081526020016000600160a060020a031681525090565b60e06040519081016040528060608152602001606081526020016060815260200160608152602001606081526020016000600160a060020a03168152602001606081525090565b610100604051908101604052806060815260200160608152602001606081526020016060815260200160608152602001606081526020016000600160a060020a03168152602001606081525090565b828054600181600116156101000203166002900490600052602060002090601f016020900481019282601f1061488757805160ff19168380011785556148b4565b828001600101855582156148b4579182015b828111156148b4578251825591602001919060010190614899565b506148c09291506148c4565b5090565b6148de91905b808211156148c057600081556001016148ca565b90560050617469656e74206973206e6f74207265676973746572656400000000000000446f63746f72206973206e6f7420726567697374657265640000000000000000a165627a7a723058204dbb62bc39a278a21d3be2f4122c0afcf416b0a44ca84bfcd204e753fb10a0e90029",
  "source": "\n// Genesis: \"0xCA35b7d915458EF540aDe6068dFe2F44E8fa733c\"\n\n// Doctor:\n// \"0x14723A09ACff6D2A60DcdF7aA4AFf308FDDC160C\", \"ivan\", \"123\", \"abc\"\n// \"0x4B0897b0513fdC7C541B6d9D7E929C4e5364D2dB\", \"marie\", \"456\",\"def\"\n\n// Add Patient:\n// \"0x4B0897b0513fdC7C541B6d9D7E929C4e5364D2dB\", \"marie\", \"456\", \"10/05/96\", \"1\", \"def\"\n\n// Add Diagnosis\n// \"0x4B0897b0513fdC7C541B6d9D7E929C4e5364D2dB\", \"08/04/20\", \"85\", \"1.85\", \"Descripcion prueba\", \"Observacion pruba\"\n// \"0x4B0897b0513fdC7C541B6d9D7E929C4e5364D2dB\", \"08/04/20\", \"85\", \"1.85\", \"Descripcion prueba2\", \"Observacion pruba2\"\n\n// Get Diagnosis\n// \"E62C0923A2815DAD3217446B6A8B8735021A52B5\", \"0x4B0897b0513fdC7C541B6d9D7E929C4e5364D2dB\"\n// \"5BB652952D5E998AEE4E551BD8D3FC44E04AC366\", \"0x4B0897b0513fdC7C541B6d9D7E929C4e5364D2dB\"\n\npragma solidity ^0.4.24;\n\ncontract Medical {\n\n    address private owner;\n    \n    struct Doctor {\n        string name;\n        string password;\n        string idCard;\n        address createdBy;\n        \n    }\n    \n    struct Patient {\n        string name;\n        string password;\n        string curp;\n        string birthday;\n        string blood;\n        address createdBy;\n        Diagnosis[] history;\n    }\n    \n    struct Diagnosis {\n        string id;  // address doctor + address patient + creationDate\n        string creationDate;\n        string weight;\n        string height;\n        string description;\n        string observations;\n        address createdBy;\n\t\tstring hashFile;\n    }\n    \n    // Relations\n\tmapping(address => Doctor) private doctors;\n\tmapping(address => Patient) private patients;\n\t\n\tmapping (address => bool) private registeredPatients;  // Patients registered\n\tmapping (address => bool) private registeredDoctors;  // Doctors registered\n\t\n\taddress[] public listTotalDoctors;  // The list of registered doctors\n\taddress[] public listTotalPatients; // The list of registered patients\n\n\n    constructor() public {\n\t\towner = msg.sender;\n\t\t// Doctor storage doctor = doctors[msg.sender];  // get and save doctor\n\t\t// doctor.name = \"Genesis\";\n\t\t// registeredDoctors[msg.sender] = true;\n\t}\n    \n    // register Doctors\n\tfunction registerDoctor(address doctorAddress, string name, string idCard, string password) public {\n\t    // require(doctorIsRegistered(msg.sender), \"The registering Doctor is not registered\");  // the doctor is registered\n\t\trequire(!doctorIsRegistered(doctorAddress), \"The Doctor is already registered\");  // the new doctor is not already registered\n\t\tDoctor storage doctor = doctors[doctorAddress];  // get and save doctor\n\t\tdoctor.name = name;\n\t\tdoctor.idCard = idCard;\n\t\tdoctor.createdBy = msg.sender;\n\t\tdoctor.password = password;\n\t\tregisteredDoctors[doctorAddress] = true;  // save the senders address\n\t\tlistTotalDoctors.push(doctorAddress);\n\t}\n\t\n\t// register Patients\n\tfunction registerPatient(address patientAddress, string name, string curp, string birthday, string blood, string password) public {\n\t    require(doctorIsRegistered(msg.sender), \"The registering Doctor is not registered\");  // the doctor is registered\n\t\trequire(!patientIsRegistered(patientAddress), \"The Patient is already registered\");  // the new patient is not already registered\n\t\tPatient storage patient = patients[patientAddress];  // get and save patient\n\t\tpatient.name = name;\n\t\tpatient.curp = curp;\n\t\tpatient.createdBy = msg.sender;\n\t\tpatient.password = password;\n\t\tpatient.blood = blood;\n\t\tpatient.birthday = birthday;\n\t\tregisteredPatients[patientAddress] = true;  // save the senders address\n\t\tlistTotalPatients.push(patientAddress);\n\t}\n\t\n\t// login Doctors\n\tfunction loginDoctor(address addr, string password) public view returns (string, string) { \n\t\trequire(doctorIsRegistered(addr), \"Doctor is not registered\");  // check if the user is registered\n\t\tDoctor memory doctor = doctors[addr];\n\t\trequire(checkPassword(password, doctor.password), \"Invalid password\");\n\t\treturn (doctor.name, doctor.idCard);\n\t}\n\t\n\t// login Patients\n\tfunction loginPatient(address addr, string password) public view returns (string, string) {  \n\t\t// require(doctorIsRegistered(msg.sender), \"Doctor is not registered\");  // check if the user is registered\n\t\trequire(patientIsRegistered(addr), \"Patient is not registered\");  // check if the user is registered\n\t\tPatient memory patient = patients[addr];\n\t\trequire(checkPassword(password, patient.password), \"Invalid password\");\n\t\treturn (patient.name, patient.curp);\n\t}\n\n\t// get Patient data from address\n\tfunction getPatient(address patientAddress) public view returns (string) {  \n\t\trequire(doctorIsRegistered(msg.sender), \"Doctor is not registered\");  // check if the user is registered\n\t\trequire(patientIsRegistered(patientAddress), \"Patient is not registered\");  // check if the user is registered\n\t\tPatient memory p = patients[patientAddress];\n\t\tstring memory response = string(abi.encodePacked(addressToString(patientAddress), \",\", p.name, \",\", p.curp, \",\", p.birthday));\n\t\tresponse = string(abi.encodePacked(response, \",\", p.blood, \",\", addressToString(p.createdBy)));\n    \treturn response;\n\t}\n\n\t// get Doctor data from address\n\tfunction getDoctor(address doctorAddress) public view returns (string) {  \n\t\trequire(doctorIsRegistered(msg.sender), \"Doctor is not registered\");  // check if the user is registered\n\t\trequire(doctorIsRegistered(doctorAddress), \"Doctor is not registered\");  // check if the user is registered\n\t\tDoctor memory d = doctors[doctorAddress];\n    \tstring memory response = string(abi.encodePacked(addressToString(doctorAddress), \",\", d.name, \",\", d.idCard, \",\", addressToString(d.createdBy)));\n    \treturn response;\n\t}\n\n    // check if the doctor address is already registered\n\tfunction doctorIsRegistered(address addr) private view returns (bool) {\n\t\treturn registeredDoctors[addr];\n\t}\n\n    // check if the patient address is already registered\n\tfunction patientIsRegistered(address addr) private view returns (bool) {\n\t\treturn registeredPatients[addr];\n\t}\n\t\n\t// check password match\n\tfunction checkPassword(string password, string realPassword) internal pure returns (bool) {\n\t    if (keccak256(abi.encodePacked(password)) == keccak256(abi.encodePacked(realPassword))) {\n\t        return true;\n        }\n\t}\n\t\n\t// add Diagnosis to History of Patient\n\tfunction addDiagnosisToPatient(address patientAddress, string creationDate, string weight, \n\t    string height, string description, string observations, string hashFile) public returns(string) {\n\t        \n\t    require(doctorIsRegistered(msg.sender), \"The registering Doctor is not registered\");  // the doctor is registered\n\t\trequire(patientIsRegistered(patientAddress), \"The Patient is not registered\");  // the new patient is not already registered\n\t\tPatient storage patient = patients[patientAddress];  // get and save doctor\n\t\t\n\t\t// d is the new Diagnosis\n\t\tDiagnosis memory d;\n\t\td.id = uint2hexstr(getUniqueId(patientAddress));\n\t\td.creationDate = creationDate;\n\t\td.weight = weight;\n\t\td.height = height;\n\t\td.description = description;\n\t\td.observations = observations;\n\t\td.createdBy = msg.sender;\n\t\td.hashFile = hashFile;\n\n\t\t// push the Diagnosis to history\n\t\tpatient.history.push(d);\n\t}\n\t\n\t// get History IDs by the patient address\n\tfunction getHistoryPatientByAddress(address patientAddr) public view returns (string) {  \n\t\trequire(doctorIsRegistered(msg.sender), \"Doctor is not registered\");  // check if the user is registered\n\t\trequire(patientIsRegistered(patientAddr), \"Patient is not registered\");  // check if the user is registered\n\t\tPatient memory patient = patients[patientAddr];\n\t\t\n\t\tstring memory historyIds;\n        historyIds = patient.history[0].id;\n        for (uint i = 1; i < patient.history.length; i++) {\n            historyIds = string(abi.encodePacked(historyIds, \",\", patient.history[i].id));\n        }\n\n\n\t\treturn historyIds;\n\t}\n\t\n\t// get Diagnosis from ID and patient address\n\tfunction getDiagnosisByIdAndAddress(string idDiagnosis, address patientAddr) public view returns (string) {  \n\t\trequire(doctorIsRegistered(msg.sender), \"Doctor is not registered\");  // check if the user is registered\n\t\trequire(patientIsRegistered(patientAddr), \"Patient is not registered\");  // check if the user is registered\n\t\tPatient memory patient = patients[patientAddr];\n\t\t\n\t\t// TODO\n\t\t// Diagnosis memory d = patient.history[id];\n\t\tDiagnosis memory d;\n\t\tbool founded = false;\n\t\tfor (uint i = 0; i < patient.history.length; i++) {\n\t\t    if (keccak256(abi.encodePacked(patient.history[i].id)) == keccak256(abi.encodePacked(idDiagnosis))) {\n\t\t        d = patient.history[i];\n\t\t        founded = true;\n\t\t        break;\n\t\t    }\n\t\t}\n\t\t\n\t\tif (!founded) {\n\t\t    return \"Error, Diagnosis not found\";\n\t\t} else {\n    \t\tstring memory response = string(abi.encodePacked(d.creationDate, \",\", d.weight, \",\", d.height, \",\", d.description));\n\t\t\tresponse = string(abi.encodePacked(response,\",\", d.observations, \",\", addressToString(d.createdBy), \",\", d.hashFile));\n    \t\t\n    \t\treturn response;\n\t\t}\n\t}\n\t\n\tfunction listDoctors(address docAddress) public view returns (address[] memory) {\n\t    require(doctorIsRegistered(msg.sender), \"Doctor is not registered\");  // check if the user is registered\n\t\treturn listTotalDoctors;\n\t\t// string memory res = addressToString(listTotalDoctors[0]);\n\t\t// for (uint i = 1; i < listTotalDoctors.length; i++) {\n\t\t// \tres = string(abi.encodePacked(res, \",\", addressToString(listTotalDoctors[i])));\n\t\t// }\n\t\t// return res;\n\t}\n\n\tfunction listPatients(address docAddress) public view returns (address[] memory) {\n\t    require(doctorIsRegistered(msg.sender), \"Doctor is not registered\");  // check if the user is registered\n\t\treturn listTotalPatients;\n\t\t// string memory res = addressToString(listTotalPatients[0]);\n\t\t// for (uint i = 1; i < listTotalPatients.length; i++) {\n\t\t// \tres = string(abi.encodePacked(res, \",\", addressToString(listTotalPatients[i])));\n\t\t// }\n\t\t// return res;\n\t}\n\t\n\t// Generate unique ID\n    function getUniqueId(address patientAddress) internal view returns (uint) {\n        // hash the msg.sender + patientAddress + date now\n        bytes20 b = bytes20(keccak256(abi.encodePacked(msg.sender, patientAddress, now)));  \n        uint id = 0;\n        for (uint index = b.length-1; index+1 > 0; index--) {\n            id += uint(b[index]) * ( 16 ** ((b.length - index - 1) * 2));\n        }\n\n        return id;\n    }\n    \n    // uint to string\n    function uint2hexstr(uint i) internal pure returns (string) {\n        if (i == 0) return \"0\";\n        uint j = i;\n        uint length;\n        while (j != 0) {\n            length++;\n            j = j >> 4;\n        }\n        uint mask = 15;\n        bytes memory bstr = new bytes(length);\n        uint k = length - 1;\n        while (i != 0){\n            uint curr = (i & mask);\n            bstr[k--] = curr > 9 ? byte(55 + curr ) : byte(48 + curr); // 55 = 65 - 10\n            i = i >> 4;\n        }\n        return string(bstr);\n    }\n    \n    // Address to string\n    function addressToString(address _addr) internal pure returns(string) {\n        bytes32 value = bytes32(uint256(_addr));\n        bytes memory alphabet = \"0123456789abcdef\";\n    \n        bytes memory str = new bytes(42);\n        str[0] = '0';\n        str[1] = 'x';\n        for (uint i = 0; i < 20; i++) {\n            str[2+i*2] = alphabet[uint(uint8(value[i + 12] >> 4))];\n            str[3+i*2] = alphabet[uint(uint8(value[i + 12] & 0x0f))];\n        }\n        return string(str);\n    }\n\n\tfunction uint2str(uint i) internal pure returns (string){\n\t\tif (i == 0) return \"0\";\n\t\tuint j = i;\n\t\tuint length;\n\t\twhile (j != 0){\n\t\t\tlength++;\n\t\t\tj /= 10;\n\t\t}\n\t\tbytes memory bstr = new bytes(length);\n\t\tuint k = length - 1;\n\t\twhile (i != 0){\n\t\t\tbstr[k--] = byte(48 + i % 10);\n\t\t\ti /= 10;\n\t\t}\n\t\treturn string(bstr);\n\t}\n    \n    \n}",
  "sourcePath": "/Users/reyes/Apps/blockchain_back_cinv/medical-system/contracts/Medical.sol",
  "compiler": {
    "name": "solc",
    "version": "0.4.25+commit.59dbf8f1.Emscripten.clang"
  },
  "schemaVersion": "2.0.2",
  "updatedAt": "2020-04-12T23:22:48.266Z"
}