{
  "contractName": "Patient",
  "abi": [
    {
      "constant": true,
      "inputs": [
        {
          "name": "",
          "type": "uint256"
        }
      ],
      "name": "listTotalPatients",
      "outputs": [
        {
          "name": "",
          "type": "address"
        }
      ],
      "payable": false,
      "stateMutability": "view",
      "type": "function"
    },
    {
      "inputs": [],
      "payable": false,
      "stateMutability": "nonpayable",
      "type": "constructor"
    },
    {
      "constant": false,
      "inputs": [
        {
          "name": "patientAddress",
          "type": "address"
        },
        {
          "name": "name",
          "type": "string"
        },
        {
          "name": "curp",
          "type": "string"
        },
        {
          "name": "birthday",
          "type": "string"
        },
        {
          "name": "blood",
          "type": "string"
        },
        {
          "name": "mobile",
          "type": "string"
        },
        {
          "name": "genre",
          "type": "string"
        },
        {
          "name": "hashProfileImg",
          "type": "string"
        },
        {
          "name": "password",
          "type": "string"
        }
      ],
      "name": "registerPatient",
      "outputs": [],
      "payable": false,
      "stateMutability": "nonpayable",
      "type": "function"
    },
    {
      "constant": false,
      "inputs": [
        {
          "name": "patientAddress",
          "type": "address"
        },
        {
          "name": "hashProfileImg",
          "type": "string"
        }
      ],
      "name": "changePatientImage",
      "outputs": [],
      "payable": false,
      "stateMutability": "nonpayable",
      "type": "function"
    },
    {
      "constant": false,
      "inputs": [
        {
          "name": "patientAddress",
          "type": "address"
        },
        {
          "name": "oldPassword",
          "type": "string"
        },
        {
          "name": "newPassword",
          "type": "string"
        }
      ],
      "name": "changePatientpassword",
      "outputs": [],
      "payable": false,
      "stateMutability": "nonpayable",
      "type": "function"
    },
    {
      "constant": true,
      "inputs": [
        {
          "name": "addr",
          "type": "address"
        },
        {
          "name": "password",
          "type": "string"
        }
      ],
      "name": "loginPatient",
      "outputs": [
        {
          "name": "",
          "type": "string"
        }
      ],
      "payable": false,
      "stateMutability": "view",
      "type": "function"
    },
    {
      "constant": true,
      "inputs": [
        {
          "name": "patientAddress",
          "type": "address"
        }
      ],
      "name": "getPatient",
      "outputs": [
        {
          "name": "",
          "type": "string"
        }
      ],
      "payable": false,
      "stateMutability": "view",
      "type": "function"
    },
    {
      "constant": false,
      "inputs": [
        {
          "name": "patientAddress",
          "type": "address"
        },
        {
          "name": "creationDate",
          "type": "string"
        },
        {
          "name": "weight",
          "type": "string"
        },
        {
          "name": "height",
          "type": "string"
        },
        {
          "name": "description",
          "type": "string"
        },
        {
          "name": "observations",
          "type": "string"
        },
        {
          "name": "hashFile",
          "type": "string"
        }
      ],
      "name": "addDiagnosisToPatient",
      "outputs": [
        {
          "name": "",
          "type": "string"
        }
      ],
      "payable": false,
      "stateMutability": "nonpayable",
      "type": "function"
    },
    {
      "constant": false,
      "inputs": [
        {
          "name": "patientAddress",
          "type": "address"
        },
        {
          "name": "creationDate",
          "type": "string"
        }
      ],
      "name": "addMonths",
      "outputs": [
        {
          "name": "",
          "type": "uint256[]"
        }
      ],
      "payable": false,
      "stateMutability": "nonpayable",
      "type": "function"
    },
    {
      "constant": true,
      "inputs": [
        {
          "name": "patientAddr",
          "type": "address"
        }
      ],
      "name": "getMonths",
      "outputs": [
        {
          "name": "",
          "type": "uint256[]"
        }
      ],
      "payable": false,
      "stateMutability": "view",
      "type": "function"
    },
    {
      "constant": true,
      "inputs": [
        {
          "name": "patientAddr",
          "type": "address"
        }
      ],
      "name": "getHistoryPatientByAddress",
      "outputs": [
        {
          "name": "",
          "type": "string"
        }
      ],
      "payable": false,
      "stateMutability": "view",
      "type": "function"
    },
    {
      "constant": true,
      "inputs": [
        {
          "name": "idDiagnosis",
          "type": "string"
        },
        {
          "name": "patientAddr",
          "type": "address"
        }
      ],
      "name": "getDiagnosisByIdAndAddress",
      "outputs": [
        {
          "name": "",
          "type": "string"
        }
      ],
      "payable": false,
      "stateMutability": "view",
      "type": "function"
    },
    {
      "constant": true,
      "inputs": [
        {
          "name": "docAddress",
          "type": "address"
        }
      ],
      "name": "listPatients",
      "outputs": [
        {
          "name": "",
          "type": "address[]"
        }
      ],
      "payable": false,
      "stateMutability": "view",
      "type": "function"
    }
  ],
  "bytecode": "0x608060405234801561001057600080fd5b5060008054600160a060020a0319163317905561592580620000336000396000f3006080604052600436106100b95763ffffffff7c010000000000000000000000000000000000000000000000000000000060003504166307cfbeaf81146100be5780630c93ebde1461012f57806310acd10214610198578063286a4b8b1461023d5780632ff650c2146102715780633db114911461034d57806357812a08146103b15780639b45ba18146105ca578063a5e6a685146105eb578063aecc1d0014610788578063b5368e20146107a9578063dde04b04146107ca575b600080fd5b3480156100ca57600080fd5b506100df600160a060020a0360043516610831565b60408051602080825283518183015283519192839290830191858101910280838360005b8381101561011b578181015183820152602001610103565b505050509050019250505060405180910390f35b34801561013b57600080fd5b5060408051602060046024803582810135601f8101859004850286018501909652858552610196958335600160a060020a03169536956044949193909101919081908401838280828437509497506111729650505050505050565b005b3480156101a457600080fd5b5060408051602060046024803582810135601f8101859004850286018501909652858552610196958335600160a060020a031695369560449491939091019190819084018382808284375050604080516020601f89358b018035918201839004830284018301909452808352979a99988101979196509182019450925082915084018382808284375094975061120a9650505050505050565b34801561024957600080fd5b506102556004356113b6565b60408051600160a060020a039092168252519081900360200190f35b34801561027d57600080fd5b5060408051602060046024803582810135601f81018590048502860185019096528585526102d8958335600160a060020a03169536956044949193909101919081908401838280828437509497506113de9650505050505050565b6040805160208082528351818301528351919283929083019185019080838360005b838110156103125781810151838201526020016102fa565b50505050905090810190601f16801561033f5780820380516001836020036101000a031916815260200191505b509250505060405180910390f35b34801561035957600080fd5b506040805160206004803580820135601f81018490048402850184019095528484526102d894369492936024939284019190819084018382808284375094975050509235600160a060020a03169350611efa92505050565b3480156103bd57600080fd5b5060408051602060046024803582810135601f8101859004850286018501909652858552610196958335600160a060020a031695369560449491939091019190819084018382808284375050604080516020601f89358b018035918201839004830284018301909452808352979a99988101979196509182019450925082915084018382808284375050604080516020601f89358b018035918201839004830284018301909452808352979a99988101979196509182019450925082915084018382808284375050604080516020601f89358b018035918201839004830284018301909452808352979a99988101979196509182019450925082915084018382808284375050604080516020601f89358b018035918201839004830284018301909452808352979a99988101979196509182019450925082915084018382808284375050604080516020601f89358b018035918201839004830284018301909452808352979a99988101979196509182019450925082915084018382808284375050604080516020601f89358b018035918201839004830284018301909452808352979a99988101979196509182019450925082915084018382808284375050604080516020601f89358b018035918201839004830284018301909452808352979a999881019791965091820194509250829150840183828082843750949750612e3a9650505050505050565b3480156105d657600080fd5b506100df600160a060020a0360043516613144565b3480156105f757600080fd5b5060408051602060046024803582810135601f81018590048502860185019096528585526102d8958335600160a060020a031695369560449491939091019190819084018382808284375050604080516020601f89358b018035918201839004830284018301909452808352979a99988101979196509182019450925082915084018382808284375050604080516020601f89358b018035918201839004830284018301909452808352979a99988101979196509182019450925082915084018382808284375050604080516020601f89358b018035918201839004830284018301909452808352979a99988101979196509182019450925082915084018382808284375050604080516020601f89358b018035918201839004830284018301909452808352979a99988101979196509182019450925082915084018382808284375050604080516020601f89358b018035918201839004830284018301909452808352979a9998810197919650918201945092508291508401838280828437509497506131a89650505050505050565b34801561079457600080fd5b506102d8600160a060020a0360043516613398565b3480156107b557600080fd5b506102d8600160a060020a0360043516613e90565b3480156107d657600080fd5b5060408051602060046024803582810135601f81018590048502860185019096528585526100df958335600160a060020a0316953695604494919390910191908190840183828082843750949750614cc29650505050505050565b606061083b615731565b600160a060020a0383166000908152600160208181526040928390208351815460029481161561010002600019011693909304601f81018390049092028301610180908101909452610160830182815292939092849290918491908401828280156108e75780601f106108bc576101008083540402835291602001916108e7565b820191906000526020600020905b8154815290600101906020018083116108ca57829003601f168201915b5050509183525050600182810154602080840191909152600280850180546040805160001996831615610100029690960190911692909204601f810184900484028501840183528085529190940193918301828280156109885780601f1061095d57610100808354040283529160200191610988565b820191906000526020600020905b81548152906001019060200180831161096b57829003601f168201915b505050918352505060038201805460408051602060026001851615610100026000190190941693909304601f8101849004840282018401909252818152938201939291830182828015610a1c5780601f106109f157610100808354040283529160200191610a1c565b820191906000526020600020905b8154815290600101906020018083116109ff57829003601f168201915b505050918352505060048201805460408051602060026001851615610100026000190190941693909304601f8101849004840282018401909252818152938201939291830182828015610ab05780601f10610a8557610100808354040283529160200191610ab0565b820191906000526020600020905b815481529060010190602001808311610a9357829003601f168201915b50505091835250506005820154600160a060020a031660208083019190915260068301805460408051601f60026000196001861615610100020190941693909304928301859004850281018501825282815294019392830182828015610b575780601f10610b2c57610100808354040283529160200191610b57565b820191906000526020600020905b815481529060010190602001808311610b3a57829003601f168201915b505050918352505060078201805460408051602060026001851615610100026000190190941693909304601f8101849004840282018401909252818152938201939291830182828015610beb5780601f10610bc057610100808354040283529160200191610beb565b820191906000526020600020905b815481529060010190602001808311610bce57829003601f168201915b505050918352505060088201805460408051602060026001851615610100026000190190941693909304601f8101849004840282018401909252818152938201939291830182828015610c7f5780601f10610c5457610100808354040283529160200191610c7f565b820191906000526020600020905b815481529060010190602001808311610c6257829003601f168201915b5050505050815260200160098201805480602002602001604051908101604052809291908181526020016000905b82821015611105576000848152602090819020604080516008860290920180546002610100600183161581026000190190921604601f81018690049095028401610120908101909352830184815292939092849290918491840182828015610d565780601f10610d2b57610100808354040283529160200191610d56565b820191906000526020600020905b815481529060010190602001808311610d3957829003601f168201915b50505050508152602001600182018054600181600116156101000203166002900480601f016020809104026020016040519081016040528092919081815260200182805460018160011615610100020316600290048015610df85780601f10610dcd57610100808354040283529160200191610df8565b820191906000526020600020905b815481529060010190602001808311610ddb57829003601f168201915b5050509183525050600282810180546040805160206001841615610100026000190190931694909404601f81018390048302850183019091528084529381019390830182828015610e8a5780601f10610e5f57610100808354040283529160200191610e8a565b820191906000526020600020905b815481529060010190602001808311610e6d57829003601f168201915b505050918352505060038201805460408051602060026001851615610100026000190190941693909304601f8101849004840282018401909252818152938201939291830182828015610f1e5780601f10610ef357610100808354040283529160200191610f1e565b820191906000526020600020905b815481529060010190602001808311610f0157829003601f168201915b505050918352505060048201805460408051602060026001851615610100026000190190941693909304601f8101849004840282018401909252818152938201939291830182828015610fb25780601f10610f8757610100808354040283529160200191610fb2565b820191906000526020600020905b815481529060010190602001808311610f9557829003601f168201915b505050918352505060058201805460408051602060026001851615610100026000190190941693909304601f81018490048402820184019092528181529382019392918301828280156110465780601f1061101b57610100808354040283529160200191611046565b820191906000526020600020905b81548152906001019060200180831161102957829003601f168201915b50505091835250506006820154600160a060020a031660208083019190915260078301805460408051601f600260001960018616156101000201909416939093049283018590048502810185018252828152940193928301828280156110ed5780601f106110c2576101008083540402835291602001916110ed565b820191906000526020600020905b8154815290600101906020018083116110d057829003601f168201915b50505050508152505081526020019060010190610cad565b505050508152602001600a820180548060200260200160405190810160405280929190818152602001828054801561115c57602002820191906000526020600020905b815481526020019060010190808311611148575b5050509190925250505061014001519392505050565b600061117d83614e23565b15156111d3576040805160e560020a62461bcd02815260206004820152601d60248201527f5468652050617469656e74206973206e6f742072656769737465726564000000604482015290519081900360640190fd5b50600160a060020a038216600090815260016020908152604090912082519091611204916008840191850190615798565b50505050565b600160a060020a038316600090815260016020526040902061122b84614e23565b1515611281576040805160e560020a62461bcd02815260206004820152601d60248201527f5468652050617469656e74206973206e6f742072656769737465726564000000604482015290519081900360640190fd5b61128f838260010154614e41565b15156112e5576040805160e560020a62461bcd02815260206004820152601060248201527f496e76616c69642070617373776f726400000000000000000000000000000000604482015290519081900360640190fd5b816040516020018082805190602001908083835b602083106113185780518252601f1990920191602091820191016112f9565b6001836020036101000a0380198251168184511680821785525050505050509050019150506040516020818303038152906040526040518082805190602001908083835b6020831061137b5780518252601f19909201916020918201910161135c565b5181516020939093036101000a6000190180199091169216919091179052604051920182900390912060019490940193909355505050505050565b60038054829081106113c457fe5b600091825260209091200154600160a060020a0316905081565b60606113e8615731565b60606113f385614e23565b1515611437576040805160e560020a62461bcd02815260206004820152601960248201526000805160206158da833981519152604482015290519081900360640190fd5b600160a060020a0385166000908152600160208181526040928390208351815460029481161561010002600019011693909304601f81018390049092028301610180908101909452610160830182815292939092849290918491908401828280156114e35780601f106114b8576101008083540402835291602001916114e3565b820191906000526020600020905b8154815290600101906020018083116114c657829003601f168201915b5050509183525050600182810154602080840191909152600280850180546040805160001996831615610100029690960190911692909204601f810184900484028501840183528085529190940193918301828280156115845780601f1061155957610100808354040283529160200191611584565b820191906000526020600020905b81548152906001019060200180831161156757829003601f168201915b505050918352505060038201805460408051602060026001851615610100026000190190941693909304601f81018490048402820184019092528181529382019392918301828280156116185780601f106115ed57610100808354040283529160200191611618565b820191906000526020600020905b8154815290600101906020018083116115fb57829003601f168201915b505050918352505060048201805460408051602060026001851615610100026000190190941693909304601f81018490048402820184019092528181529382019392918301828280156116ac5780601f10611681576101008083540402835291602001916116ac565b820191906000526020600020905b81548152906001019060200180831161168f57829003601f168201915b50505091835250506005820154600160a060020a031660208083019190915260068301805460408051601f600260001960018616156101000201909416939093049283018590048502810185018252828152940193928301828280156117535780601f1061172857610100808354040283529160200191611753565b820191906000526020600020905b81548152906001019060200180831161173657829003601f168201915b505050918352505060078201805460408051602060026001851615610100026000190190941693909304601f81018490048402820184019092528181529382019392918301828280156117e75780601f106117bc576101008083540402835291602001916117e7565b820191906000526020600020905b8154815290600101906020018083116117ca57829003601f168201915b505050918352505060088201805460408051602060026001851615610100026000190190941693909304601f810184900484028201840190925281815293820193929183018282801561187b5780601f106118505761010080835404028352916020019161187b565b820191906000526020600020905b81548152906001019060200180831161185e57829003601f168201915b5050505050815260200160098201805480602002602001604051908101604052809291908181526020016000905b82821015611d01576000848152602090819020604080516008860290920180546002610100600183161581026000190190921604601f810186900490950284016101209081019093528301848152929390928492909184918401828280156119525780601f1061192757610100808354040283529160200191611952565b820191906000526020600020905b81548152906001019060200180831161193557829003601f168201915b50505050508152602001600182018054600181600116156101000203166002900480601f0160208091040260200160405190810160405280929190818152602001828054600181600116156101000203166002900480156119f45780601f106119c9576101008083540402835291602001916119f4565b820191906000526020600020905b8154815290600101906020018083116119d757829003601f168201915b5050509183525050600282810180546040805160206001841615610100026000190190931694909404601f81018390048302850183019091528084529381019390830182828015611a865780601f10611a5b57610100808354040283529160200191611a86565b820191906000526020600020905b815481529060010190602001808311611a6957829003601f168201915b505050918352505060038201805460408051602060026001851615610100026000190190941693909304601f8101849004840282018401909252818152938201939291830182828015611b1a5780601f10611aef57610100808354040283529160200191611b1a565b820191906000526020600020905b815481529060010190602001808311611afd57829003601f168201915b505050918352505060048201805460408051602060026001851615610100026000190190941693909304601f8101849004840282018401909252818152938201939291830182828015611bae5780601f10611b8357610100808354040283529160200191611bae565b820191906000526020600020905b815481529060010190602001808311611b9157829003601f168201915b505050918352505060058201805460408051602060026001851615610100026000190190941693909304601f8101849004840282018401909252818152938201939291830182828015611c425780601f10611c1757610100808354040283529160200191611c42565b820191906000526020600020905b815481529060010190602001808311611c2557829003601f168201915b50505091835250506006820154600160a060020a031660208083019190915260078301805460408051601f60026000196001861615610100020190941693909304928301859004850281018501825282815294019392830182828015611ce95780601f10611cbe57610100808354040283529160200191611ce9565b820191906000526020600020905b815481529060010190602001808311611ccc57829003601f168201915b505050505081525050815260200190600101906118a9565b505050508152602001600a8201805480602002602001604051908101604052809291908181526020018280548015611d5857602002820191906000526020600020905b815481526020019060010190808311611d44575b5050505050815250509150611d71848360200151614e41565b1515611dc7576040805160e560020a62461bcd02815260206004820152601060248201527f496e76616c69642070617373776f726400000000000000000000000000000000604482015290519081900360640190fd5b81516040517f7b0000000000000000000000000000000000000000000000000000000000000060208083019182527f2273756363657373223a0000000000000000000000000000000000000000000060218401527f7472756500000000000000000000000000000000000000000000000000000000602b8401527f2c226e616d65223a220000000000000000000000000000000000000000000000602f8401528351919260380191908401908083835b60208310611e965780518252601f199092019160209182019101611e77565b5181516020939093036101000a60001901801990911692169190911790527f227d00000000000000000000000000000000000000000000000000000000000092019182525060408051808303601d1901815260029092019052979650505050505050565b6060611f04615731565b611f0c615816565b60006060611f1986614e23565b1515611f5d576040805160e560020a62461bcd02815260206004820152601960248201526000805160206158da833981519152604482015290519081900360640190fd5b600160a060020a0386166000908152600160208181526040928390208351815460029481161561010002600019011693909304601f81018390049092028301610180908101909452610160830182815292939092849290918491908401828280156120095780601f10611fde57610100808354040283529160200191612009565b820191906000526020600020905b815481529060010190602001808311611fec57829003601f168201915b5050509183525050600182810154602080840191909152600280850180546040805160001996831615610100029690960190911692909204601f810184900484028501840183528085529190940193918301828280156120aa5780601f1061207f576101008083540402835291602001916120aa565b820191906000526020600020905b81548152906001019060200180831161208d57829003601f168201915b505050918352505060038201805460408051602060026001851615610100026000190190941693909304601f810184900484028201840190925281815293820193929183018282801561213e5780601f106121135761010080835404028352916020019161213e565b820191906000526020600020905b81548152906001019060200180831161212157829003601f168201915b505050918352505060048201805460408051602060026001851615610100026000190190941693909304601f81018490048402820184019092528181529382019392918301828280156121d25780601f106121a7576101008083540402835291602001916121d2565b820191906000526020600020905b8154815290600101906020018083116121b557829003601f168201915b50505091835250506005820154600160a060020a031660208083019190915260068301805460408051601f600260001960018616156101000201909416939093049283018590048502810185018252828152940193928301828280156122795780601f1061224e57610100808354040283529160200191612279565b820191906000526020600020905b81548152906001019060200180831161225c57829003601f168201915b505050918352505060078201805460408051602060026001851615610100026000190190941693909304601f810184900484028201840190925281815293820193929183018282801561230d5780601f106122e25761010080835404028352916020019161230d565b820191906000526020600020905b8154815290600101906020018083116122f057829003601f168201915b505050918352505060088201805460408051602060026001851615610100026000190190941693909304601f81018490048402820184019092528181529382019392918301828280156123a15780601f10612376576101008083540402835291602001916123a1565b820191906000526020600020905b81548152906001019060200180831161238457829003601f168201915b5050505050815260200160098201805480602002602001604051908101604052809291908181526020016000905b82821015612827576000848152602090819020604080516008860290920180546002610100600183161581026000190190921604601f810186900490950284016101209081019093528301848152929390928492909184918401828280156124785780601f1061244d57610100808354040283529160200191612478565b820191906000526020600020905b81548152906001019060200180831161245b57829003601f168201915b50505050508152602001600182018054600181600116156101000203166002900480601f01602080910402602001604051908101604052809291908181526020018280546001816001161561010002031660029004801561251a5780601f106124ef5761010080835404028352916020019161251a565b820191906000526020600020905b8154815290600101906020018083116124fd57829003601f168201915b5050509183525050600282810180546040805160206001841615610100026000190190931694909404601f810183900483028501830190915280845293810193908301828280156125ac5780601f10612581576101008083540402835291602001916125ac565b820191906000526020600020905b81548152906001019060200180831161258f57829003601f168201915b505050918352505060038201805460408051602060026001851615610100026000190190941693909304601f81018490048402820184019092528181529382019392918301828280156126405780601f1061261557610100808354040283529160200191612640565b820191906000526020600020905b81548152906001019060200180831161262357829003601f168201915b505050918352505060048201805460408051602060026001851615610100026000190190941693909304601f81018490048402820184019092528181529382019392918301828280156126d45780601f106126a9576101008083540402835291602001916126d4565b820191906000526020600020905b8154815290600101906020018083116126b757829003601f168201915b505050918352505060058201805460408051602060026001851615610100026000190190941693909304601f81018490048402820184019092528181529382019392918301828280156127685780601f1061273d57610100808354040283529160200191612768565b820191906000526020600020905b81548152906001019060200180831161274b57829003601f168201915b50505091835250506006820154600160a060020a031660208083019190915260078301805460408051601f6002600019600186161561010002019094169390930492830185900485028101850182528281529401939283018282801561280f5780601f106127e45761010080835404028352916020019161280f565b820191906000526020600020905b8154815290600101906020018083116127f257829003601f168201915b505050505081525050815260200190600101906123cf565b505050508152602001600a820180548060200260200160405190810160405280929190818152602001828054801561287e57602002820191906000526020600020905b81548152602001906001019080831161286a575b5050505050815250509350600091505b83610120015151821015612a7b57866040516020018082805190602001908083835b602083106128cf5780518252601f1990920191602091820191016128b0565b6001836020036101000a0380198251168184511680821785525050505050509050019150506040516020818303038152906040526040518082805190602001908083835b602083106129325780518252601f199092019160209182019101612913565b5181516020939093036101000a6000190180199091169216919091179052604051920182900390912061012088015180519194509250859150811061297357fe5b90602001906020020151600001516040516020018082805190602001908083835b602083106129b35780518252601f199092019160209182019101612994565b6001836020036101000a0380198251168184511680821785525050505050509050019150506040516020818303038152906040526040518082805190602001908083835b60208310612a165780518252601f1990920191602091820191016129f7565b6001836020036101000a0380198251168184511680821785525050505050509050019150506040518091039020600019161415612a7057610120840151805183908110612a5f57fe5b906020019060200201519250612a7b565b60019091019061288e565b826020015183604001518460600151612a978660c00151614f1f565b86608001518760a001518860e0015160405160200180807f7b00000000000000000000000000000000000000000000000000000000000000815250600101807f226372656174696f6e44617465223a220000000000000000000000000000000081525060100188805190602001908083835b60208310612b285780518252601f199092019160209182019101612b09565b51815160209384036101000a60001901801990921691161790527f222c22776569676874223a220000000000000000000000000000000000000000919093019081528951600c909101928a0191508083835b60208310612b995780518252601f199092019160209182019101612b7a565b51815160209384036101000a60001901801990921691161790527f222c22686569676874223a220000000000000000000000000000000000000000919093019081528851600c90910192890191508083835b60208310612c0a5780518252601f199092019160209182019101612beb565b51815160209384036101000a60001901801990921691161790527f222c22637265617465644279223a220000000000000000000000000000000000919093019081528751600f90910192880191508083835b60208310612c7b5780518252601f199092019160209182019101612c5c565b51815160209384036101000a60001901801990921691161790527f222c226465736372697074696f6e223a22000000000000000000000000000000919093019081528651601190910192870191508083835b60208310612cec5780518252601f199092019160209182019101612ccd565b51815160209384036101000a60001901801990921691161790527f222c226f62736572766174696f6e73223a220000000000000000000000000000919093019081528551601290910192860191508083835b60208310612d5d5780518252601f199092019160209182019101612d3e565b51815160209384036101000a60001901801990921691161790527f222c226861736846696c65223a22000000000000000000000000000000000000919093019081528451600e90910192850191508083835b60208310612dce5780518252601f199092019160209182019101612daf565b5181516020939093036101000a60001901801990911692169190911790527f227d00000000000000000000000000000000000000000000000000000000000092019182525060408051808303601d19018152600290920190529f9e505050505050505050505050505050565b6000612e458a614e23565b15612ec0576040805160e560020a62461bcd02815260206004820152602160248201527f5468652050617469656e7420697320616c72656164792072656769737465726560448201527f6400000000000000000000000000000000000000000000000000000000000000606482015290519081900360840190fd5b50600160a060020a038916600090815260016020908152604090912089519091612eee9183918c0190615798565b508751612f0490600283019060208b0190615798565b5060058101805473ffffffffffffffffffffffffffffffffffffffff1916331790556040518251839160209081019182918401908083835b60208310612f5b5780518252601f199092019160209182019101612f3c565b6001836020036101000a0380198251168184511680821785525050505050509050019150506040516020818303038152906040526040518082805190602001908083835b60208310612fbe5780518252601f199092019160209182019101612f9f565b51815160209384036101000a60001901801990921691161790526040519190930181900390206001860155508851613000935060048501925090890190615798565b50865161301690600383019060208a0190615798565b50845161302c9060078301906020880190615798565b5083516130429060068301906020870190615798565b5082516130589060088301906020860190615798565b50600160a060020a038a166000818152600260209081526040808320805460ff1916600190811790915560038054918201815584527fc2575a0e9e593c00f959f8c92f12db2869c3395a3b0502d05e2516446f71f85b01805473ffffffffffffffffffffffffffffffffffffffff1916909417909355825161018081018452828152908101829052918201819052606082018190526080820181905260a0820181905260c0820181905260e0820181905261010082018190526101208201819052610140820181905261016082015261313790600a830190600c615865565b5050505050505050505050565b6060600380548060200260200160405190810160405280929190818152602001828054801561319c57602002820191906000526020600020905b8154600160a060020a0316815260019091019060200180831161317e575b50505050509050919050565b606060006131b4615816565b6131bd8a614e23565b1515613213576040805160e560020a62461bcd02815260206004820152601d60248201527f5468652050617469656e74206973206e6f742072656769737465726564000000604482015290519081900360640190fd5b600160a060020a038a166000908152600160205260409020915061323e6132398b615127565b615251565b81526020810189905260408101889052606081018790526080810186905260a081018590523360c082015260e0810184905261327a8a8a614cc2565b506009820180546001810180835560009283526020928390208451805192948694600802909201926132af9284920190615798565b5060208281015180516132c89260018501920190615798565b50604082015180516132e4916002840191602090910190615798565b5060608201518051613300916003840191602090910190615798565b506080820151805161331c916004840191602090910190615798565b5060a08201518051613338916005840191602090910190615798565b5060c082015160068201805473ffffffffffffffffffffffffffffffffffffffff1916600160a060020a0390921691909117905560e08201518051613387916007840191602090910190615798565b505050505050979650505050505050565b60606133a2615731565b606060006133af85614e23565b15156133f3576040805160e560020a62461bcd02815260206004820152601960248201526000805160206158da833981519152604482015290519081900360640190fd5b600160a060020a0385166000908152600160208181526040928390208351815460029481161561010002600019011693909304601f810183900490920283016101809081019094526101608301828152929390928492909184919084018282801561349f5780601f106134745761010080835404028352916020019161349f565b820191906000526020600020905b81548152906001019060200180831161348257829003601f168201915b5050509183525050600182810154602080840191909152600280850180546040805160001996831615610100029690960190911692909204601f810184900484028501840183528085529190940193918301828280156135405780601f1061351557610100808354040283529160200191613540565b820191906000526020600020905b81548152906001019060200180831161352357829003601f168201915b505050918352505060038201805460408051602060026001851615610100026000190190941693909304601f81018490048402820184019092528181529382019392918301828280156135d45780601f106135a9576101008083540402835291602001916135d4565b820191906000526020600020905b8154815290600101906020018083116135b757829003601f168201915b505050918352505060048201805460408051602060026001851615610100026000190190941693909304601f81018490048402820184019092528181529382019392918301828280156136685780601f1061363d57610100808354040283529160200191613668565b820191906000526020600020905b81548152906001019060200180831161364b57829003601f168201915b50505091835250506005820154600160a060020a031660208083019190915260068301805460408051601f6002600019600186161561010002019094169390930492830185900485028101850182528281529401939283018282801561370f5780601f106136e45761010080835404028352916020019161370f565b820191906000526020600020905b8154815290600101906020018083116136f257829003601f168201915b505050918352505060078201805460408051602060026001851615610100026000190190941693909304601f81018490048402820184019092528181529382019392918301828280156137a35780601f10613778576101008083540402835291602001916137a3565b820191906000526020600020905b81548152906001019060200180831161378657829003601f168201915b505050918352505060088201805460408051602060026001851615610100026000190190941693909304601f81018490048402820184019092528181529382019392918301828280156138375780601f1061380c57610100808354040283529160200191613837565b820191906000526020600020905b81548152906001019060200180831161381a57829003601f168201915b5050505050815260200160098201805480602002602001604051908101604052809291908181526020016000905b82821015613cbd576000848152602090819020604080516008860290920180546002610100600183161581026000190190921604601f8101869004909502840161012090810190935283018481529293909284929091849184018282801561390e5780601f106138e35761010080835404028352916020019161390e565b820191906000526020600020905b8154815290600101906020018083116138f157829003601f168201915b50505050508152602001600182018054600181600116156101000203166002900480601f0160208091040260200160405190810160405280929190818152602001828054600181600116156101000203166002900480156139b05780601f10613985576101008083540402835291602001916139b0565b820191906000526020600020905b81548152906001019060200180831161399357829003601f168201915b5050509183525050600282810180546040805160206001841615610100026000190190931694909404601f81018390048302850183019091528084529381019390830182828015613a425780601f10613a1757610100808354040283529160200191613a42565b820191906000526020600020905b815481529060010190602001808311613a2557829003601f168201915b505050918352505060038201805460408051602060026001851615610100026000190190941693909304601f8101849004840282018401909252818152938201939291830182828015613ad65780601f10613aab57610100808354040283529160200191613ad6565b820191906000526020600020905b815481529060010190602001808311613ab957829003601f168201915b505050918352505060048201805460408051602060026001851615610100026000190190941693909304601f8101849004840282018401909252818152938201939291830182828015613b6a5780601f10613b3f57610100808354040283529160200191613b6a565b820191906000526020600020905b815481529060010190602001808311613b4d57829003601f168201915b505050918352505060058201805460408051602060026001851615610100026000190190941693909304601f8101849004840282018401909252818152938201939291830182828015613bfe5780601f10613bd357610100808354040283529160200191613bfe565b820191906000526020600020905b815481529060010190602001808311613be157829003601f168201915b50505091835250506006820154600160a060020a031660208083019190915260078301805460408051601f60026000196001861615610100020190941693909304928301859004850281018501825282815294019392830182828015613ca55780601f10613c7a57610100808354040283529160200191613ca5565b820191906000526020600020905b815481529060010190602001808311613c8857829003601f168201915b50505050508152505081526020019060010190613865565b505050508152602001600a8201805480602002602001604051908101604052809291908181526020018280548015613d1457602002820191906000526020600020905b815481526020019060010190808311613d00575b50505050508152505092506000836101200151511115613e765761012083015180516000908110613d4157fe5b60209081029091010151519150600190505b82610120015151811015613e6e578183610120015182815181101515613d7557fe5b90602001906020020151600001516040516020018083805190602001908083835b60208310613db55780518252601f199092019160209182019101613d96565b6001836020036101000a038019825116818451168082178552505050505050905001807f2c0000000000000000000000000000000000000000000000000000000000000081525060010182805190602001908083835b60208310613e2a5780518252601f199092019160209182019101613e0b565b6001836020036101000a0380198251168184511680821785525050505050509050019250505060405160208183030381529060405291508080600101915050613d53565b819350613e88565b60408051602081019091526000815293505b505050919050565b6060613e9a615731565b6060613ea584614e23565b1515613ee9576040805160e560020a62461bcd02815260206004820152601960248201526000805160206158da833981519152604482015290519081900360640190fd5b600160a060020a0384166000908152600160208181526040928390208351815460029481161561010002600019011693909304601f8101839004909202830161018090810190945261016083018281529293909284929091849190840182828015613f955780601f10613f6a57610100808354040283529160200191613f95565b820191906000526020600020905b815481529060010190602001808311613f7857829003601f168201915b5050509183525050600182810154602080840191909152600280850180546040805160001996831615610100029690960190911692909204601f810184900484028501840183528085529190940193918301828280156140365780601f1061400b57610100808354040283529160200191614036565b820191906000526020600020905b81548152906001019060200180831161401957829003601f168201915b505050918352505060038201805460408051602060026001851615610100026000190190941693909304601f81018490048402820184019092528181529382019392918301828280156140ca5780601f1061409f576101008083540402835291602001916140ca565b820191906000526020600020905b8154815290600101906020018083116140ad57829003601f168201915b505050918352505060048201805460408051602060026001851615610100026000190190941693909304601f810184900484028201840190925281815293820193929183018282801561415e5780601f106141335761010080835404028352916020019161415e565b820191906000526020600020905b81548152906001019060200180831161414157829003601f168201915b50505091835250506005820154600160a060020a031660208083019190915260068301805460408051601f600260001960018616156101000201909416939093049283018590048502810185018252828152940193928301828280156142055780601f106141da57610100808354040283529160200191614205565b820191906000526020600020905b8154815290600101906020018083116141e857829003601f168201915b505050918352505060078201805460408051602060026001851615610100026000190190941693909304601f81018490048402820184019092528181529382019392918301828280156142995780601f1061426e57610100808354040283529160200191614299565b820191906000526020600020905b81548152906001019060200180831161427c57829003601f168201915b505050918352505060088201805460408051602060026001851615610100026000190190941693909304601f810184900484028201840190925281815293820193929183018282801561432d5780601f106143025761010080835404028352916020019161432d565b820191906000526020600020905b81548152906001019060200180831161431057829003601f168201915b5050505050815260200160098201805480602002602001604051908101604052809291908181526020016000905b828210156147b3576000848152602090819020604080516008860290920180546002610100600183161581026000190190921604601f810186900490950284016101209081019093528301848152929390928492909184918401828280156144045780601f106143d957610100808354040283529160200191614404565b820191906000526020600020905b8154815290600101906020018083116143e757829003601f168201915b50505050508152602001600182018054600181600116156101000203166002900480601f0160208091040260200160405190810160405280929190818152602001828054600181600116156101000203166002900480156144a65780601f1061447b576101008083540402835291602001916144a6565b820191906000526020600020905b81548152906001019060200180831161448957829003601f168201915b5050509183525050600282810180546040805160206001841615610100026000190190931694909404601f810183900483028501830190915280845293810193908301828280156145385780601f1061450d57610100808354040283529160200191614538565b820191906000526020600020905b81548152906001019060200180831161451b57829003601f168201915b505050918352505060038201805460408051602060026001851615610100026000190190941693909304601f81018490048402820184019092528181529382019392918301828280156145cc5780601f106145a1576101008083540402835291602001916145cc565b820191906000526020600020905b8154815290600101906020018083116145af57829003601f168201915b505050918352505060048201805460408051602060026001851615610100026000190190941693909304601f81018490048402820184019092528181529382019392918301828280156146605780601f1061463557610100808354040283529160200191614660565b820191906000526020600020905b81548152906001019060200180831161464357829003601f168201915b505050918352505060058201805460408051602060026001851615610100026000190190941693909304601f81018490048402820184019092528181529382019392918301828280156146f45780601f106146c9576101008083540402835291602001916146f4565b820191906000526020600020905b8154815290600101906020018083116146d757829003601f168201915b50505091835250506006820154600160a060020a031660208083019190915260078301805460408051601f6002600019600186161561010002019094169390930492830185900485028101850182528281529401939283018282801561479b5780601f106147705761010080835404028352916020019161479b565b820191906000526020600020905b81548152906001019060200180831161477e57829003601f168201915b5050505050815250508152602001906001019061435b565b505050508152602001600a820180548060200260200160405190810160405280929190818152602001828054801561480a57602002820191906000526020600020905b8154815260200190600101908083116147f6575b505050505081525050915061481e84614f1f565b825160408401516060850151608086015160e087015160c088015160a089015161484790614f1f565b89610100015160405160200180807f7b00000000000000000000000000000000000000000000000000000000000000815250600101807f2261646472657373223a22000000000000000000000000000000000000000000815250600b018a805190602001908083835b602083106148cf5780518252601f1990920191602091820191016148b0565b51815160209384036101000a60001901801990921691161790527f222c226e616d65223a2200000000000000000000000000000000000000000000919093019081528b51600a909101928c0191508083835b602083106149405780518252601f199092019160209182019101614921565b51815160209384036101000a60001901801990921691161790527f222c2263757270223a2200000000000000000000000000000000000000000000919093019081528a51600a909101928b0191508083835b602083106149b15780518252601f199092019160209182019101614992565b51815160209384036101000a60001901801990921691161790527f222c226269727468646179223a22000000000000000000000000000000000000919093019081528951600e909101928a0191508083835b60208310614a225780518252601f199092019160209182019101614a03565b51815160209384036101000a60001901801990921691161790527f222c22626c6f6f64223a22000000000000000000000000000000000000000000919093019081528851600b90910192890191508083835b60208310614a935780518252601f199092019160209182019101614a74565b51815160209384036101000a60001901801990921691161790527f222c226d6f62696c65223a220000000000000000000000000000000000000000919093019081528751600c90910192880191508083835b60208310614b045780518252601f199092019160209182019101614ae5565b51815160209384036101000a60001901801990921691161790527f222c2267656e7265223a22000000000000000000000000000000000000000000919093019081528651600b90910192870191508083835b60208310614b755780518252601f199092019160209182019101614b56565b51815160209384036101000a60001901801990921691161790527f222c22637265617465644279223a220000000000000000000000000000000000919093019081528551600f90910192860191508083835b60208310614be65780518252601f199092019160209182019101614bc7565b51815160209384036101000a60001901801990921691161790527f222c226861736850726f66696c65496d67223a22000000000000000000000000919093019081528451601490910192850191508083835b60208310614c575780518252601f199092019160209182019101614c38565b5181516020939093036101000a60001901801990911692169190911790527f227d00000000000000000000000000000000000000000000000000000000000092019182525060408051808303601d19018152600290920190529e9d5050505050505050505050505050565b60606000614cce6158a5565b614cd66158a5565b600160a060020a03861660009081526001602052604081209350606090614cfc87615363565b9350614d3c6040805190810160405280600181526020017f2f00000000000000000000000000000000000000000000000000000000000000815250615363565b9250614d4e848463ffffffff61538916565b600101604051908082528060200260200182016040528015614d8457816020015b6060815260200190600190039081614d6f5790505b509150600090505b8151811015614dcd57614dad614da8858563ffffffff6153f616565b615409565b8282815181101515614dbb57fe5b60209081029091010152600101614d8c565b600185600a016001614df8856001815181101515614de757fe5b90602001906020020151600161545c565b03815481101515614e0557fe5b60009182526020909120018054909101905550939695505050505050565b600160a060020a031660009081526002602052604090205460ff1690565b60008160001916836040516020018082805190602001908083835b60208310614e7b5780518252601f199092019160209182019101614e5c565b6001836020036101000a0380198251168184511680821785525050505050509050019150506040516020818303038152906040526040518082805190602001908083835b60208310614ede5780518252601f199092019160209182019101614ebf565b6001836020036101000a0380198251168184511680821785525050505050509050019150506040518091039020600019161415614f19575060015b92915050565b604080518082018252601081527f303132333435363738396162636465660000000000000000000000000000000060208201528151602a8082526060828101909452600160a060020a03851692918491600091908160200160208202803883390190505091507f3000000000000000000000000000000000000000000000000000000000000000826000815181101515614fb557fe5b906020010190600160f860020a031916908160001a9053507f7800000000000000000000000000000000000000000000000000000000000000826001815181101515614ffd57fe5b906020010190600160f860020a031916908160001a905350600090505b601481101561511e5782600485600c84016020811061503557fe5b1a60f860020a02600160f860020a0319169060020a900460f860020a900460ff1681518110151561506257fe5b90602001015160f860020a900460f860020a02828260020260020181518110151561508957fe5b906020010190600160f860020a031916908160001a9053508284600c8301602081106150b157fe5b1a60f860020a02600f60f860020a021660f860020a900460ff168151811015156150d757fe5b90602001015160f860020a900460f860020a0282826002026003018151811015156150fe57fe5b906020010190600160f860020a031916908160001a90535060010161501a565b50949350505050565b6000806000803385426040516020018084600160a060020a0316600160a060020a03166c0100000000000000000000000002815260140183600160a060020a0316600160a060020a03166c0100000000000000000000000002815260140182815260200193505050506040516020818303038152906040526040518082805190602001908083835b602083106151ce5780518252601f1990920191602091820191016151af565b5181516020939093036101000a60001901801990911692169190911790526040519201829003909120955060009450601393505050505b600081600101111561524957600181601460ff16030360020260100a838260148110151561522f57fe5b60f860020a91901a81020402919091019060001901615205565b509392505050565b60606000808083818087151561529c5760408051808201909152600181527f300000000000000000000000000000000000000000000000000000000000000060208201529650615358565b8795505b85156152b7576010909504946001909401936152a0565b600f9350846040519080825280601f01601f1916602001820160405280156152e9578160200160208202803883390190505b5092506001850391505b8715615354575086831660098111615314578060300160f860020a0261531f565b8060370160f860020a025b83516000198401938591811061533157fe5b906020010190600160f860020a031916908160001a9053506010909704966152f3565b8296505b505050505050919050565b61536b6158a5565b50604080518082019091528151815260209182019181019190915290565b60008082600001516153ad85600001518660200151866000015187602001516155bc565b0190505b835160208501510181116153ef5782516020808601518651918601516001909501946153e79291850390910390849084906155bc565b0190506153b1565b5092915050565b6153fe6158a5565b6153ef83838361567c565b606080600083600001516040519080825280601f01601f191660200182016040528015615440578160200160208202803883390190505b5091506020820190506153ef81856020015186600001516156ed565b6000828180805b83518110156155b15783517f30000000000000000000000000000000000000000000000000000000000000009085908390811061549c57fe5b90602001015160f860020a900460f860020a02600160f860020a03191610158015615512575083517f3900000000000000000000000000000000000000000000000000000000000000908590839081106154f257fe5b90602001015160f860020a900460f860020a02600160f860020a03191611155b1561556b57811561553157851515615529576155b1565b600019909501945b600a830292506030848281518110151561554757fe5b90602001015160f860020a900460f860020a0260f860020a900403830192506155a9565b838181518110151561557957fe5b90602001015160f860020a900460f860020a02600160f860020a031916602e60f860020a0214156155a957600191505b600101615463565b509095945050505050565b600083818080808080808c8b116156665760208b1161562f5760018b60200360080260020a03196001029550858a511694508a8d8d010393508588511692505b82851461562757838810615614578c8c01985061566c565b87806001019850508588511692506155fc565b87985061566c565b8a8a209150600096505b8a8d0387116156665750898720818114156156565787985061566c565b6001978801979690960195615639565b8c8c0198505b5050505050505050949350505050565b6156846158a5565b60006156a285600001518660200151866000015187602001516155bc565b602080870180519186019190915280518203855286519051919250018114156156ce57600085526156e4565b8351835186519101900385528351810160208601525b50909392505050565b60005b60208210615712578251845260209384019390920191601f19909101906156f0565b50905182516020929092036101000a6000190180199091169116179052565b6101606040519081016040528060608152602001600080191681526020016060815260200160608152602001606081526020016000600160a060020a0316815260200160608152602001606081526020016060815260200160608152602001606081525090565b828054600181600116156101000203166002900490600052602060002090601f016020900481019282601f106157d957805160ff1916838001178555615806565b82800160010185558215615806579182015b828111156158065782518255916020019190600101906157eb565b506158129291506158bc565b5090565b610100604051908101604052806060815260200160608152602001606081526020016060815260200160608152602001606081526020016000600160a060020a03168152602001606081525090565b828054828255906000526020600020908101928215615806579160200282015b82811115615806578251829060ff16905591602001919060010190615885565b604080518082019091526000808252602082015290565b6158d691905b8082111561581257600081556001016158c2565b90560050617469656e74206973206e6f74207265676973746572656400000000000000a165627a7a72305820bf36c39943ac3420683ed43d4280a83342eb6547be5b3a8f6400185f02d0aea70029",
  "source": "pragma solidity ^0.4.24;\n\nimport \"./strings.sol\";\n\ncontract Patient {\n\n\tusing strings for *;\n\n    address private owner;\n\n\n\tstruct Patient {\n        string name;\n        bytes32 password;\n        string curp;\n        string birthday;\n        string blood;\n        address createdBy;\n        string genre;\n        string mobile;\n        string hashProfileImg;\n        Diagnosis[] history;\n\t\tuint[] months;\n    }\n    \n    struct Diagnosis {\n        string id;  // address doctor + address patient + creationDate\n        string creationDate;\n        string weight;\n        string height;\n        string description;\n        string observations;\n        address createdBy;\n\t\tstring hashFile;\n    }\n\n\t// Relations\n\tmapping(address => Patient) private patients;\n\n\tmapping (address => bool) private registeredPatients;  // Patients registered\n\n\taddress[] public listTotalPatients; // The list of registered patients\n\n    constructor() public {\n\t\towner = msg.sender;\n\t}\n\n\t// register Patients\n\tfunction registerPatient(address patientAddress, string name, string curp, string birthday,\n\t\tstring blood, string mobile, string genre, string hashProfileImg, string password) public {\n\t    // require(doctorIsRegistered(msg.sender), \"The registering Doctor is not registered\");  // the doctor is registered\n\t\trequire(!patientIsRegistered(patientAddress), \"The Patient is already registered\");  // the new patient is not already registered\n\t\tPatient storage patient = patients[patientAddress];  // get and save patient\n\t\tpatient.name = name;\n\t\tpatient.curp = curp;\n\t\tpatient.createdBy = msg.sender;\n\t\tpatient.password = keccak256(abi.encodePacked(password));// hash password\n\t\tpatient.blood = blood;\n\t\tpatient.birthday = birthday;\n\t\tpatient.mobile = mobile;\n\t\tpatient.genre = genre;\n\t\tpatient.hashProfileImg = hashProfileImg;\n\t\tregisteredPatients[patientAddress] = true;  // save the senders address\n\t\tlistTotalPatients.push(patientAddress);\n\t\tpatient.months=[0,0,0,0,0,0,0,0,0,0,0,0];\n\t}\n\n\t// Change Image\n\tfunction changePatientImage(address patientAddress, string hashProfileImg) public {\n\t    require(patientIsRegistered(patientAddress), \"The Patient is not registered\");\n\t    Patient storage patient = patients[patientAddress];\n\t    patient.hashProfileImg = hashProfileImg;\n\t}\n\t\n\t// Change Password\n\tfunction changePatientpassword(address patientAddress, string oldPassword, string newPassword) public {\n\t    Patient storage patient = patients[patientAddress];\n\t\trequire(patientIsRegistered(patientAddress), \"The Patient is not registered\");\n\t\trequire(checkPassword(oldPassword, patient.password), \"Invalid password\");\n\t    patient.password = keccak256(abi.encodePacked(newPassword));\n\t}\n\n\t// login Patients\n\tfunction loginPatient(address addr, string password) public view returns (string) {  \n\t\trequire(patientIsRegistered(addr), \"Patient is not registered\");  // check if the user is registered\n\t\tPatient memory patient = patients[addr];\n\t\trequire(checkPassword(password, patient.password), \"Invalid password\");\n\t\tstring memory res = string(abi.encodePacked('{', '\"success\":', 'true', ',\"name\":\"', patient.name, '\"}'));\n\t\treturn res;\n\t}\n\n\t// get Patient data from address\n\tfunction getPatient(address patientAddress) public view returns (string) {  \n\t\t// require(doctorIsRegistered(msg.sender), \"Doctor is not registered\");  // check if the user is registered\n\t\trequire(patientIsRegistered(patientAddress), \"Patient is not registered\");  // check if the user is registered\n\t\tPatient memory p = patients[patientAddress];\n\t\tstring memory res = string(abi.encodePacked('{',\n\t\t\t'\"address\":\"', addressToString(patientAddress),\n\t\t\t'\",\"name\":\"', p.name, \n\t\t\t'\",\"curp\":\"', p.curp, \n\t\t\t'\",\"birthday\":\"', p.birthday, \n\t\t\t'\",\"blood\":\"', p.blood, \n\t\t\t'\",\"mobile\":\"', p.mobile, \n\t\t\t'\",\"genre\":\"', p.genre, \n\t\t\t'\",\"createdBy\":\"', addressToString(p.createdBy),\n\t\t\t'\",\"hashProfileImg\":\"', p.hashProfileImg,\n\t\t\t'\"}'));\n    \treturn res;\n\t}\n\n\t// check if the patient address is already registered\n\tfunction patientIsRegistered(address addr) private view returns (bool) {\n\t\treturn registeredPatients[addr];\n\t}\n\n\t// check password match\n\tfunction checkPassword(string password, bytes32 realPassword) internal pure returns (bool) {\n\t    if (keccak256(abi.encodePacked(password)) == realPassword) {\n\t        return true;\n        }\n\t}\n\n\t\t// add Diagnosis to History of Patient\n\tfunction addDiagnosisToPatient(address patientAddress, string creationDate, string weight, \n\t    string height, string description, string observations, string hashFile) public returns(string) {\n\t    // require(doctorIsRegistered(msg.sender), \"The registering Doctor is not registered\");  // the doctor is registered\n\t\trequire(patientIsRegistered(patientAddress), \"The Patient is not registered\");  // the new patient is not already registered\n\t\tPatient storage patient = patients[patientAddress];  // get and save doctor\n\t\t\n\t\t// d is the new Diagnosis\n\t\tDiagnosis memory d;\n\t\td.id = uint2hexstr(getUniqueId(patientAddress));\n\t\td.creationDate = creationDate;\n\t\td.weight = weight;\n\t\td.height = height;\n\t\td.description = description;\n\t\td.observations = observations;\n\t\td.createdBy = msg.sender;\n\t\td.hashFile = hashFile;\n\t\taddMonths(patientAddress, creationDate);\n\n\t\t// push the Diagnosis to history\n\t\tpatient.history.push(d);\n\t}\n\n\t // Add months to Graphic\n\tfunction addMonths(address patientAddress, string creationDate) public returns(uint[]){\n\t\tPatient storage patient = patients[patientAddress];  // get and save doctor\n        var s = creationDate.toSlice();\n        var delim= \"/\".toSlice();\n        var parts = new string[](s.count(delim) + 1);\n\n        for(uint i = 0; i < parts.length; i++) {\n           parts[i] = s.split(delim).toString();\n        }\n   \n\t    patient.months[parseInt(parts[1], 1)-1]+=1;\n\t    //return (patient.months);\n\t}\n\t\n\t// Get data to Graphic\n\tfunction getMonths(address patientAddr) public view returns (uint[]) {  \n\t\t//require(doctorIsRegistered(msg.sender), \"Doctor is not registered\");  // check if the user is registered\n\t\t//require(patientIsRegistered(patientAddr), \"Patient is not registered\");  // check if the user is registered\n\t\tPatient memory patient = patients[patientAddr];\n\t\treturn (patient.months);\n\t}\n\n\t// get History IDs by the patient address\n\tfunction getHistoryPatientByAddress(address patientAddr) public view returns (string) {  \n\t\t// require(doctorIsRegistered(msg.sender), \"Doctor is not registered\");  // check if the user is registered\n\t\trequire(patientIsRegistered(patientAddr), \"Patient is not registered\");  // check if the user is registered\n\t\tPatient memory patient = patients[patientAddr];\n\t\t\n\t\tif (patient.history.length > 0) {\n\t\t\tstring memory historyIds;\n\t\t\thistoryIds = patient.history[0].id;\n\t\t\tfor (uint i = 1; i < patient.history.length; i++) {\n\t\t\t\thistoryIds = string(abi.encodePacked(historyIds, \",\", patient.history[i].id));\n\t\t\t}\n\t\t\treturn historyIds;\n\t\t} else {\n\t\t\treturn \"\";\n\t\t}\n\t}\n\n\t// get Diagnosis from ID and patient address\n\tfunction getDiagnosisByIdAndAddress(string idDiagnosis, address patientAddr) public view returns (string) {  \n\t\t// require(doctorIsRegistered(msg.sender), \"Doctor is not registered\");  // check if the user is registered\n\t\trequire(patientIsRegistered(patientAddr), \"Patient is not registered\");  // check if the user is registered\n\t\tPatient memory patient = patients[patientAddr];\n\t\t\n\t\t// TODO\n\t\t// Diagnosis memory d = patient.history[id];\n\t\tDiagnosis memory d;\n\t\tfor (uint i = 0; i < patient.history.length; i++) {\n\t\t    if (keccak256(abi.encodePacked(patient.history[i].id)) == keccak256(abi.encodePacked(idDiagnosis))) {\n\t\t        d = patient.history[i];\n\t\t        break;\n\t\t    }\n\t\t}\n\n\t\tstring memory res = string(abi.encodePacked('{',\n\t\t\t'\"creationDate\":\"', d.creationDate,\n\t\t\t'\",\"weight\":\"', d.weight, \n\t\t\t'\",\"height\":\"', d.height,\n\t\t\t'\",\"createdBy\":\"', addressToString(d.createdBy),\n\t\t\t'\",\"description\":\"', d.description,\n\t\t\t'\",\"observations\":\"', d.observations,\n\t\t\t'\",\"hashFile\":\"', d.hashFile,\n\t\t\t'\"}'));\n\n\t\treturn res;\n\t}\n\n\tfunction listPatients(address docAddress) public view returns (address[] memory) {\n\t    // require(doctorIsRegistered(msg.sender), \"Doctor is not registered\");  // check if the user is registered\n\t\treturn listTotalPatients;\n\t}\n\n\t// Generate unique ID\n    function getUniqueId(address patientAddress) internal view returns (uint) {\n        // hash the msg.sender + patientAddress + date now\n        bytes20 b = bytes20(keccak256(abi.encodePacked(msg.sender, patientAddress, now)));  \n        uint id = 0;\n        for (uint index = b.length-1; index+1 > 0; index--) {\n            id += uint(b[index]) * ( 16 ** ((b.length - index - 1) * 2));\n        }\n        return id;\n    }\n\n\t// uint to string\n    function uint2hexstr(uint i) internal pure returns (string) {\n        if (i == 0) return \"0\";\n        uint j = i;\n        uint length;\n        while (j != 0) {\n            length++;\n            j = j >> 4;\n        }\n        uint mask = 15;\n        bytes memory bstr = new bytes(length);\n        uint k = length - 1;\n        while (i != 0){\n            uint curr = (i & mask);\n            bstr[k--] = curr > 9 ? byte(55 + curr ) : byte(48 + curr); // 55 = 65 - 10\n            i = i >> 4;\n        }\n        return string(bstr);\n    }\n\n\t// Address to string\n    function addressToString(address _addr) internal pure returns(string) {\n        bytes32 value = bytes32(uint256(_addr));\n        bytes memory alphabet = \"0123456789abcdef\";\n    \n        bytes memory str = new bytes(42);\n        str[0] = '0';\n        str[1] = 'x';\n        for (uint i = 0; i < 20; i++) {\n            str[2+i*2] = alphabet[uint(uint8(value[i + 12] >> 4))];\n            str[3+i*2] = alphabet[uint(uint8(value[i + 12] & 0x0f))];\n        }\n        return string(str);\n    }\n\n\t // String to uint\n    // Copyright (c) 2015-2016 Oraclize srl, Thomas Bertani\n    function parseInt(string _a, uint _b) internal returns (uint) {\n      bytes memory bresult = bytes(_a);\n      uint mint = 0;\n      bool decimals = false;\n      for (uint i = 0; i < bresult.length; i++) {\n        if ((bresult[i] >= 48) && (bresult[i] <= 57)) {\n          if (decimals) {\n            if (_b == 0) break;\n              else _b--;\n          }\n          mint *= 10;\n          mint += uint(bresult[i]) - 48;\n        } else if (bresult[i] == 46) decimals = true;\n      }\n      return mint;\n    }\n\n}\n",
  "sourcePath": "/Users/Gabriel/medical-blockchain/contracts/Patient.sol",
  "compiler": {
    "name": "solc",
    "version": "0.4.24+commit.e67f0147.Emscripten.clang"
  },
  "schemaVersion": "2.0.1",
  "updatedAt": "2020-04-29T02:26:09.793Z"
}