{
  "contractName": "Patient",
  "abi": [
    {
      "constant": true,
      "inputs": [
        {
          "name": "",
          "type": "uint256"
        }
      ],
      "name": "listTotalPatients",
      "outputs": [
        {
          "name": "",
          "type": "address"
        }
      ],
      "payable": false,
      "stateMutability": "view",
      "type": "function"
    },
    {
      "inputs": [],
      "payable": false,
      "stateMutability": "nonpayable",
      "type": "constructor"
    },
    {
      "constant": false,
      "inputs": [
        {
          "name": "patientAddress",
          "type": "address"
        },
        {
          "name": "name",
          "type": "string"
        },
        {
          "name": "curp",
          "type": "string"
        },
        {
          "name": "birthday",
          "type": "string"
        },
        {
          "name": "blood",
          "type": "string"
        },
        {
          "name": "mobile",
          "type": "string"
        },
        {
          "name": "genre",
          "type": "string"
        },
        {
          "name": "hashProfileImg",
          "type": "string"
        },
        {
          "name": "password",
          "type": "string"
        }
      ],
      "name": "registerPatient",
      "outputs": [],
      "payable": false,
      "stateMutability": "nonpayable",
      "type": "function"
    },
    {
      "constant": true,
      "inputs": [
        {
          "name": "addr",
          "type": "address"
        },
        {
          "name": "password",
          "type": "string"
        }
      ],
      "name": "loginPatient",
      "outputs": [
        {
          "name": "",
          "type": "string"
        }
      ],
      "payable": false,
      "stateMutability": "view",
      "type": "function"
    },
    {
      "constant": true,
      "inputs": [
        {
          "name": "patientAddress",
          "type": "address"
        }
      ],
      "name": "getPatient",
      "outputs": [
        {
          "name": "",
          "type": "string"
        }
      ],
      "payable": false,
      "stateMutability": "view",
      "type": "function"
    },
    {
      "constant": false,
      "inputs": [
        {
          "name": "patientAddress",
          "type": "address"
        },
        {
          "name": "creationDate",
          "type": "string"
        },
        {
          "name": "weight",
          "type": "string"
        },
        {
          "name": "height",
          "type": "string"
        },
        {
          "name": "description",
          "type": "string"
        },
        {
          "name": "observations",
          "type": "string"
        },
        {
          "name": "hashFile",
          "type": "string"
        }
      ],
      "name": "addDiagnosisToPatient",
      "outputs": [
        {
          "name": "",
          "type": "string"
        }
      ],
      "payable": false,
      "stateMutability": "nonpayable",
      "type": "function"
    },
    {
      "constant": true,
      "inputs": [
        {
          "name": "patientAddr",
          "type": "address"
        }
      ],
      "name": "getHistoryPatientByAddress",
      "outputs": [
        {
          "name": "",
          "type": "string"
        }
      ],
      "payable": false,
      "stateMutability": "view",
      "type": "function"
    },
    {
      "constant": true,
      "inputs": [
        {
          "name": "idDiagnosis",
          "type": "string"
        },
        {
          "name": "patientAddr",
          "type": "address"
        }
      ],
      "name": "getDiagnosisByIdAndAddress",
      "outputs": [
        {
          "name": "",
          "type": "string"
        }
      ],
      "payable": false,
      "stateMutability": "view",
      "type": "function"
    },
    {
      "constant": true,
      "inputs": [
        {
          "name": "docAddress",
          "type": "address"
        }
      ],
      "name": "listPatients",
      "outputs": [
        {
          "name": "",
          "type": "address[]"
        }
      ],
      "payable": false,
      "stateMutability": "view",
      "type": "function"
    }
  ],
  "bytecode": "0x608060405234801561001057600080fd5b5060008054600160a060020a0319163317905561447c806100326000396000f30060806040526004361061008d5763ffffffff7c0100000000000000000000000000000000000000000000000000000000600035041663286a4b8b81146100925780632ff650c2146100c65780633db11491146101a257806357812a08146102065780639b45ba1814610421578063a5e6a68514610492578063aecc1d001461062f578063b5368e2014610650575b600080fd5b34801561009e57600080fd5b506100aa600435610671565b60408051600160a060020a039092168252519081900360200190f35b3480156100d257600080fd5b5060408051602060046024803582810135601f810185900485028601850190965285855261012d958335600160a060020a03169536956044949193909101919081908401838280828437509497506106999650505050505050565b6040805160208082528351818301528351919283929083019185019080838360005b8381101561016757818101518382015260200161014f565b50505050905090810190601f1680156101945780820380516001836020036101000a031916815260200191505b509250505060405180910390f35b3480156101ae57600080fd5b506040805160206004803580820135601f810184900484028501840190955284845261012d94369492936024939284019190819084018382808284375094975050509235600160a060020a0316935061115d92505050565b34801561021257600080fd5b5060408051602060046024803582810135601f810185900485028601850190965285855261041f958335600160a060020a031695369560449491939091019190819084018382808284375050604080516020601f89358b018035918201839004830284018301909452808352979a99988101979196509182019450925082915084018382808284375050604080516020601f89358b018035918201839004830284018301909452808352979a99988101979196509182019450925082915084018382808284375050604080516020601f89358b018035918201839004830284018301909452808352979a99988101979196509182019450925082915084018382808284375050604080516020601f89358b018035918201839004830284018301909452808352979a99988101979196509182019450925082915084018382808284375050604080516020601f89358b018035918201839004830284018301909452808352979a99988101979196509182019450925082915084018382808284375050604080516020601f89358b018035918201839004830284018301909452808352979a99988101979196509182019450925082915084018382808284375050604080516020601f89358b018035918201839004830284018301909452808352979a9998810197919650918201945092508291508401838280828437509497506120459650505050505050565b005b34801561042d57600080fd5b50610442600160a060020a03600435166122e2565b60408051602080825283518183015283519192839290830191858101910280838360005b8381101561047e578181015183820152602001610466565b505050509050019250505060405180910390f35b34801561049e57600080fd5b5060408051602060046024803582810135601f810185900485028601850190965285855261012d958335600160a060020a031695369560449491939091019190819084018382808284375050604080516020601f89358b018035918201839004830284018301909452808352979a99988101979196509182019450925082915084018382808284375050604080516020601f89358b018035918201839004830284018301909452808352979a99988101979196509182019450925082915084018382808284375050604080516020601f89358b018035918201839004830284018301909452808352979a99988101979196509182019450925082915084018382808284375050604080516020601f89358b018035918201839004830284018301909452808352979a99988101979196509182019450925082915084018382808284375050604080516020601f89358b018035918201839004830284018301909452808352979a9998810197919650918201945092508291508401838280828437509497506123469650505050505050565b34801561063b57600080fd5b5061012d600160a060020a036004351661252c565b34801561065c57600080fd5b5061012d600160a060020a0360043516612fcc565b600380548290811061067f57fe5b600091825260209091200154600160a060020a0316905081565b60606106a36142e6565b60606106ae85613da6565b15156106f2576040805160e560020a62461bcd0281526020600482015260196024820152600080516020614431833981519152604482015290519081900360640190fd5b600160a060020a0385166000908152600160208181526040928390208351815460029481161561010002600019011693909304601f810183900490920283016101609081019094526101408301828152929390928492909184919084018282801561079e5780601f106107735761010080835404028352916020019161079e565b820191906000526020600020905b81548152906001019060200180831161078157829003601f168201915b5050509183525050600182810154602080840191909152600280850180546040805160001996831615610100029690960190911692909204601f8101849004840285018401835280855291909401939183018282801561083f5780601f106108145761010080835404028352916020019161083f565b820191906000526020600020905b81548152906001019060200180831161082257829003601f168201915b505050918352505060038201805460408051602060026001851615610100026000190190941693909304601f81018490048402820184019092528181529382019392918301828280156108d35780601f106108a8576101008083540402835291602001916108d3565b820191906000526020600020905b8154815290600101906020018083116108b657829003601f168201915b505050918352505060048201805460408051602060026001851615610100026000190190941693909304601f81018490048402820184019092528181529382019392918301828280156109675780601f1061093c57610100808354040283529160200191610967565b820191906000526020600020905b81548152906001019060200180831161094a57829003601f168201915b50505091835250506005820154600160a060020a031660208083019190915260068301805460408051601f60026000196001861615610100020190941693909304928301859004850281018501825282815294019392830182828015610a0e5780601f106109e357610100808354040283529160200191610a0e565b820191906000526020600020905b8154815290600101906020018083116109f157829003601f168201915b505050918352505060078201805460408051602060026001851615610100026000190190941693909304601f8101849004840282018401909252818152938201939291830182828015610aa25780601f10610a7757610100808354040283529160200191610aa2565b820191906000526020600020905b815481529060010190602001808311610a8557829003601f168201915b505050918352505060088201805460408051602060026001851615610100026000190190941693909304601f8101849004840282018401909252818152938201939291830182828015610b365780601f10610b0b57610100808354040283529160200191610b36565b820191906000526020600020905b815481529060010190602001808311610b1957829003601f168201915b5050505050815260200160098201805480602002602001604051908101604052809291908181526020016000905b82821015610fbc576000848152602090819020604080516008860290920180546002610100600183161581026000190190921604601f81018690049095028401610120908101909352830184815292939092849290918491840182828015610c0d5780601f10610be257610100808354040283529160200191610c0d565b820191906000526020600020905b815481529060010190602001808311610bf057829003601f168201915b50505050508152602001600182018054600181600116156101000203166002900480601f016020809104026020016040519081016040528092919081815260200182805460018160011615610100020316600290048015610caf5780601f10610c8457610100808354040283529160200191610caf565b820191906000526020600020905b815481529060010190602001808311610c9257829003601f168201915b5050509183525050600282810180546040805160206001841615610100026000190190931694909404601f81018390048302850183019091528084529381019390830182828015610d415780601f10610d1657610100808354040283529160200191610d41565b820191906000526020600020905b815481529060010190602001808311610d2457829003601f168201915b505050918352505060038201805460408051602060026001851615610100026000190190941693909304601f8101849004840282018401909252818152938201939291830182828015610dd55780601f10610daa57610100808354040283529160200191610dd5565b820191906000526020600020905b815481529060010190602001808311610db857829003601f168201915b505050918352505060048201805460408051602060026001851615610100026000190190941693909304601f8101849004840282018401909252818152938201939291830182828015610e695780601f10610e3e57610100808354040283529160200191610e69565b820191906000526020600020905b815481529060010190602001808311610e4c57829003601f168201915b505050918352505060058201805460408051602060026001851615610100026000190190941693909304601f8101849004840282018401909252818152938201939291830182828015610efd5780601f10610ed257610100808354040283529160200191610efd565b820191906000526020600020905b815481529060010190602001808311610ee057829003601f168201915b50505091835250506006820154600160a060020a031660208083019190915260078301805460408051601f60026000196001861615610100020190941693909304928301859004850281018501825282815294019392830182828015610fa45780601f10610f7957610100808354040283529160200191610fa4565b820191906000526020600020905b815481529060010190602001808311610f8757829003601f168201915b50505050508152505081526020019060010190610b64565b50505050815250509150610fd4848360200151613dc4565b151561102a576040805160e560020a62461bcd02815260206004820152601060248201527f496e76616c69642070617373776f726400000000000000000000000000000000604482015290519081900360640190fd5b81516040517f7b0000000000000000000000000000000000000000000000000000000000000060208083019182527f2273756363657373223a0000000000000000000000000000000000000000000060218401527f7472756500000000000000000000000000000000000000000000000000000000602b8401527f2c226e616d65223a220000000000000000000000000000000000000000000000602f8401528351919260380191908401908083835b602083106110f95780518252601f1990920191602091820191016110da565b5181516020939093036101000a60001901801990911692169190911790527f227d00000000000000000000000000000000000000000000000000000000000092019182525060408051808303601d1901815260029092019052979650505050505050565b60606111676142e6565b61116f614346565b6000606061117c86613da6565b15156111c0576040805160e560020a62461bcd0281526020600482015260196024820152600080516020614431833981519152604482015290519081900360640190fd5b600160a060020a0386166000908152600160208181526040928390208351815460029481161561010002600019011693909304601f810183900490920283016101609081019094526101408301828152929390928492909184919084018282801561126c5780601f106112415761010080835404028352916020019161126c565b820191906000526020600020905b81548152906001019060200180831161124f57829003601f168201915b5050509183525050600182810154602080840191909152600280850180546040805160001996831615610100029690960190911692909204601f8101849004840285018401835280855291909401939183018282801561130d5780601f106112e25761010080835404028352916020019161130d565b820191906000526020600020905b8154815290600101906020018083116112f057829003601f168201915b505050918352505060038201805460408051602060026001851615610100026000190190941693909304601f81018490048402820184019092528181529382019392918301828280156113a15780601f10611376576101008083540402835291602001916113a1565b820191906000526020600020905b81548152906001019060200180831161138457829003601f168201915b505050918352505060048201805460408051602060026001851615610100026000190190941693909304601f81018490048402820184019092528181529382019392918301828280156114355780601f1061140a57610100808354040283529160200191611435565b820191906000526020600020905b81548152906001019060200180831161141857829003601f168201915b50505091835250506005820154600160a060020a031660208083019190915260068301805460408051601f600260001960018616156101000201909416939093049283018590048502810185018252828152940193928301828280156114dc5780601f106114b1576101008083540402835291602001916114dc565b820191906000526020600020905b8154815290600101906020018083116114bf57829003601f168201915b505050918352505060078201805460408051602060026001851615610100026000190190941693909304601f81018490048402820184019092528181529382019392918301828280156115705780601f1061154557610100808354040283529160200191611570565b820191906000526020600020905b81548152906001019060200180831161155357829003601f168201915b505050918352505060088201805460408051602060026001851615610100026000190190941693909304601f81018490048402820184019092528181529382019392918301828280156116045780601f106115d957610100808354040283529160200191611604565b820191906000526020600020905b8154815290600101906020018083116115e757829003601f168201915b5050505050815260200160098201805480602002602001604051908101604052809291908181526020016000905b82821015611a8a576000848152602090819020604080516008860290920180546002610100600183161581026000190190921604601f810186900490950284016101209081019093528301848152929390928492909184918401828280156116db5780601f106116b0576101008083540402835291602001916116db565b820191906000526020600020905b8154815290600101906020018083116116be57829003601f168201915b50505050508152602001600182018054600181600116156101000203166002900480601f01602080910402602001604051908101604052809291908181526020018280546001816001161561010002031660029004801561177d5780601f106117525761010080835404028352916020019161177d565b820191906000526020600020905b81548152906001019060200180831161176057829003601f168201915b5050509183525050600282810180546040805160206001841615610100026000190190931694909404601f8101839004830285018301909152808452938101939083018282801561180f5780601f106117e45761010080835404028352916020019161180f565b820191906000526020600020905b8154815290600101906020018083116117f257829003601f168201915b505050918352505060038201805460408051602060026001851615610100026000190190941693909304601f81018490048402820184019092528181529382019392918301828280156118a35780601f10611878576101008083540402835291602001916118a3565b820191906000526020600020905b81548152906001019060200180831161188657829003601f168201915b505050918352505060048201805460408051602060026001851615610100026000190190941693909304601f81018490048402820184019092528181529382019392918301828280156119375780601f1061190c57610100808354040283529160200191611937565b820191906000526020600020905b81548152906001019060200180831161191a57829003601f168201915b505050918352505060058201805460408051602060026001851615610100026000190190941693909304601f81018490048402820184019092528181529382019392918301828280156119cb5780601f106119a0576101008083540402835291602001916119cb565b820191906000526020600020905b8154815290600101906020018083116119ae57829003601f168201915b50505091835250506006820154600160a060020a031660208083019190915260078301805460408051601f60026000196001861615610100020190941693909304928301859004850281018501825282815294019392830182828015611a725780601f10611a4757610100808354040283529160200191611a72565b820191906000526020600020905b815481529060010190602001808311611a5557829003601f168201915b50505050508152505081526020019060010190611632565b50505050815250509350600091505b83610120015151821015611c8657866040516020018082805190602001908083835b60208310611ada5780518252601f199092019160209182019101611abb565b6001836020036101000a0380198251168184511680821785525050505050509050019150506040516020818303038152906040526040518082805190602001908083835b60208310611b3d5780518252601f199092019160209182019101611b1e565b5181516020939093036101000a60001901801990911692169190911790526040519201829003909120610120880151805191945092508591508110611b7e57fe5b90602001906020020151600001516040516020018082805190602001908083835b60208310611bbe5780518252601f199092019160209182019101611b9f565b6001836020036101000a0380198251168184511680821785525050505050509050019150506040516020818303038152906040526040518082805190602001908083835b60208310611c215780518252601f199092019160209182019101611c02565b6001836020036101000a0380198251168184511680821785525050505050509050019150506040518091039020600019161415611c7b57610120840151805183908110611c6a57fe5b906020019060200201519250611c86565b600190910190611a99565b826020015183604001518460600151611ca28660c00151613ea2565b86608001518760a001518860e0015160405160200180807f7b00000000000000000000000000000000000000000000000000000000000000815250600101807f226372656174696f6e44617465223a220000000000000000000000000000000081525060100188805190602001908083835b60208310611d335780518252601f199092019160209182019101611d14565b51815160209384036101000a60001901801990921691161790527f222c22776569676874223a220000000000000000000000000000000000000000919093019081528951600c909101928a0191508083835b60208310611da45780518252601f199092019160209182019101611d85565b51815160209384036101000a60001901801990921691161790527f222c22686569676874223a220000000000000000000000000000000000000000919093019081528851600c90910192890191508083835b60208310611e155780518252601f199092019160209182019101611df6565b51815160209384036101000a60001901801990921691161790527f222c22637265617465644279223a220000000000000000000000000000000000919093019081528751600f90910192880191508083835b60208310611e865780518252601f199092019160209182019101611e67565b51815160209384036101000a60001901801990921691161790527f222c226465736372697074696f6e223a22000000000000000000000000000000919093019081528651601190910192870191508083835b60208310611ef75780518252601f199092019160209182019101611ed8565b51815160209384036101000a60001901801990921691161790527f222c226f62736572766174696f6e73223a220000000000000000000000000000919093019081528551601290910192860191508083835b60208310611f685780518252601f199092019160209182019101611f49565b51815160209384036101000a60001901801990921691161790527f222c226861736846696c65223a22000000000000000000000000000000000000919093019081528451600e90910192850191508083835b60208310611fd95780518252601f199092019160209182019101611fba565b5181516020939093036101000a60001901801990911692169190911790527f227d00000000000000000000000000000000000000000000000000000000000092019182525060408051808303601d19018152600290920190529f9e505050505050505050505050505050565b60006120508a613da6565b156120cb576040805160e560020a62461bcd02815260206004820152602160248201527f5468652050617469656e7420697320616c72656164792072656769737465726560448201527f6400000000000000000000000000000000000000000000000000000000000000606482015290519081900360840190fd5b50600160a060020a0389166000908152600160209081526040909120895190916120f99183918c0190614395565b50875161210f90600283019060208b0190614395565b5060058101805473ffffffffffffffffffffffffffffffffffffffff1916331790556040518251839160209081019182918401908083835b602083106121665780518252601f199092019160209182019101612147565b6001836020036101000a0380198251168184511680821785525050505050509050019150506040516020818303038152906040526040518082805190602001908083835b602083106121c95780518252601f1990920191602091820191016121aa565b51815160209384036101000a6000190180199092169116179052604051919093018190039020600186015550885161220b935060048501925090890190614395565b50865161222190600383019060208a0190614395565b5084516122379060078301906020880190614395565b50835161224d9060068301906020870190614395565b5082516122639060088301906020860190614395565b505050600160a060020a039097166000818152600260205260408120805460ff191660019081179091556003805491820181559091527fc2575a0e9e593c00f959f8c92f12db2869c3395a3b0502d05e2516446f71f85b01805473ffffffffffffffffffffffffffffffffffffffff1916909117905550505050505050565b6060600380548060200260200160405190810160405280929190818152602001828054801561233a57602002820191906000526020600020905b8154600160a060020a0316815260019091019060200180831161231c575b50505050509050919050565b60606000612352614346565b61235b8a613da6565b15156123b1576040805160e560020a62461bcd02815260206004820152601d60248201527f5468652050617469656e74206973206e6f742072656769737465726564000000604482015290519081900360640190fd5b600160a060020a038a16600090815260016020526040902091506123dc6123d78b6140aa565b6141d4565b815260208082018a905260408201899052606082018890526080820187905260a082018690523360c083015260e082018590526009830180546001810180835560009283529183902084518051939486946008909402909201926124439284920190614395565b50602082810151805161245c9260018501920190614395565b5060408201518051612478916002840191602090910190614395565b5060608201518051612494916003840191602090910190614395565b50608082015180516124b0916004840191602090910190614395565b5060a082015180516124cc916005840191602090910190614395565b5060c082015160068201805473ffffffffffffffffffffffffffffffffffffffff1916600160a060020a0390921691909117905560e0820151805161251b916007840191602090910190614395565b505050505050979650505050505050565b60606125366142e6565b6060600061254385613da6565b1515612587576040805160e560020a62461bcd0281526020600482015260196024820152600080516020614431833981519152604482015290519081900360640190fd5b600160a060020a0385166000908152600160208181526040928390208351815460029481161561010002600019011693909304601f81018390049092028301610160908101909452610140830182815292939092849290918491908401828280156126335780601f1061260857610100808354040283529160200191612633565b820191906000526020600020905b81548152906001019060200180831161261657829003601f168201915b5050509183525050600182810154602080840191909152600280850180546040805160001996831615610100029690960190911692909204601f810184900484028501840183528085529190940193918301828280156126d45780601f106126a9576101008083540402835291602001916126d4565b820191906000526020600020905b8154815290600101906020018083116126b757829003601f168201915b505050918352505060038201805460408051602060026001851615610100026000190190941693909304601f81018490048402820184019092528181529382019392918301828280156127685780601f1061273d57610100808354040283529160200191612768565b820191906000526020600020905b81548152906001019060200180831161274b57829003601f168201915b505050918352505060048201805460408051602060026001851615610100026000190190941693909304601f81018490048402820184019092528181529382019392918301828280156127fc5780601f106127d1576101008083540402835291602001916127fc565b820191906000526020600020905b8154815290600101906020018083116127df57829003601f168201915b50505091835250506005820154600160a060020a031660208083019190915260068301805460408051601f600260001960018616156101000201909416939093049283018590048502810185018252828152940193928301828280156128a35780601f10612878576101008083540402835291602001916128a3565b820191906000526020600020905b81548152906001019060200180831161288657829003601f168201915b505050918352505060078201805460408051602060026001851615610100026000190190941693909304601f81018490048402820184019092528181529382019392918301828280156129375780601f1061290c57610100808354040283529160200191612937565b820191906000526020600020905b81548152906001019060200180831161291a57829003601f168201915b505050918352505060088201805460408051602060026001851615610100026000190190941693909304601f81018490048402820184019092528181529382019392918301828280156129cb5780601f106129a0576101008083540402835291602001916129cb565b820191906000526020600020905b8154815290600101906020018083116129ae57829003601f168201915b5050505050815260200160098201805480602002602001604051908101604052809291908181526020016000905b82821015612e51576000848152602090819020604080516008860290920180546002610100600183161581026000190190921604601f81018690049095028401610120908101909352830184815292939092849290918491840182828015612aa25780601f10612a7757610100808354040283529160200191612aa2565b820191906000526020600020905b815481529060010190602001808311612a8557829003601f168201915b50505050508152602001600182018054600181600116156101000203166002900480601f016020809104026020016040519081016040528092919081815260200182805460018160011615610100020316600290048015612b445780601f10612b1957610100808354040283529160200191612b44565b820191906000526020600020905b815481529060010190602001808311612b2757829003601f168201915b5050509183525050600282810180546040805160206001841615610100026000190190931694909404601f81018390048302850183019091528084529381019390830182828015612bd65780601f10612bab57610100808354040283529160200191612bd6565b820191906000526020600020905b815481529060010190602001808311612bb957829003601f168201915b505050918352505060038201805460408051602060026001851615610100026000190190941693909304601f8101849004840282018401909252818152938201939291830182828015612c6a5780601f10612c3f57610100808354040283529160200191612c6a565b820191906000526020600020905b815481529060010190602001808311612c4d57829003601f168201915b505050918352505060048201805460408051602060026001851615610100026000190190941693909304601f8101849004840282018401909252818152938201939291830182828015612cfe5780601f10612cd357610100808354040283529160200191612cfe565b820191906000526020600020905b815481529060010190602001808311612ce157829003601f168201915b505050918352505060058201805460408051602060026001851615610100026000190190941693909304601f8101849004840282018401909252818152938201939291830182828015612d925780601f10612d6757610100808354040283529160200191612d92565b820191906000526020600020905b815481529060010190602001808311612d7557829003601f168201915b50505091835250506006820154600160a060020a031660208083019190915260078301805460408051601f60026000196001861615610100020190941693909304928301859004850281018501825282815294019392830182828015612e395780601f10612e0e57610100808354040283529160200191612e39565b820191906000526020600020905b815481529060010190602001808311612e1c57829003601f168201915b505050505081525050815260200190600101906129f9565b505050508152505092506000836101200151511115612fb25761012083015180516000908110612e7d57fe5b60209081029091010151519150600190505b82610120015151811015612faa578183610120015182815181101515612eb157fe5b90602001906020020151600001516040516020018083805190602001908083835b60208310612ef15780518252601f199092019160209182019101612ed2565b6001836020036101000a038019825116818451168082178552505050505050905001807f2c0000000000000000000000000000000000000000000000000000000000000081525060010182805190602001908083835b60208310612f665780518252601f199092019160209182019101612f47565b6001836020036101000a0380198251168184511680821785525050505050509050019250505060405160208183030381529060405291508080600101915050612e8f565b819350612fc4565b60408051602081019091526000815293505b505050919050565b6060612fd66142e6565b6060612fe184613da6565b1515613025576040805160e560020a62461bcd0281526020600482015260196024820152600080516020614431833981519152604482015290519081900360640190fd5b600160a060020a0384166000908152600160208181526040928390208351815460029481161561010002600019011693909304601f81018390049092028301610160908101909452610140830182815292939092849290918491908401828280156130d15780601f106130a6576101008083540402835291602001916130d1565b820191906000526020600020905b8154815290600101906020018083116130b457829003601f168201915b5050509183525050600182810154602080840191909152600280850180546040805160001996831615610100029690960190911692909204601f810184900484028501840183528085529190940193918301828280156131725780601f1061314757610100808354040283529160200191613172565b820191906000526020600020905b81548152906001019060200180831161315557829003601f168201915b505050918352505060038201805460408051602060026001851615610100026000190190941693909304601f81018490048402820184019092528181529382019392918301828280156132065780601f106131db57610100808354040283529160200191613206565b820191906000526020600020905b8154815290600101906020018083116131e957829003601f168201915b505050918352505060048201805460408051602060026001851615610100026000190190941693909304601f810184900484028201840190925281815293820193929183018282801561329a5780601f1061326f5761010080835404028352916020019161329a565b820191906000526020600020905b81548152906001019060200180831161327d57829003601f168201915b50505091835250506005820154600160a060020a031660208083019190915260068301805460408051601f600260001960018616156101000201909416939093049283018590048502810185018252828152940193928301828280156133415780601f1061331657610100808354040283529160200191613341565b820191906000526020600020905b81548152906001019060200180831161332457829003601f168201915b505050918352505060078201805460408051602060026001851615610100026000190190941693909304601f81018490048402820184019092528181529382019392918301828280156133d55780601f106133aa576101008083540402835291602001916133d5565b820191906000526020600020905b8154815290600101906020018083116133b857829003601f168201915b505050918352505060088201805460408051602060026001851615610100026000190190941693909304601f81018490048402820184019092528181529382019392918301828280156134695780601f1061343e57610100808354040283529160200191613469565b820191906000526020600020905b81548152906001019060200180831161344c57829003601f168201915b5050505050815260200160098201805480602002602001604051908101604052809291908181526020016000905b828210156138ef576000848152602090819020604080516008860290920180546002610100600183161581026000190190921604601f810186900490950284016101209081019093528301848152929390928492909184918401828280156135405780601f1061351557610100808354040283529160200191613540565b820191906000526020600020905b81548152906001019060200180831161352357829003601f168201915b50505050508152602001600182018054600181600116156101000203166002900480601f0160208091040260200160405190810160405280929190818152602001828054600181600116156101000203166002900480156135e25780601f106135b7576101008083540402835291602001916135e2565b820191906000526020600020905b8154815290600101906020018083116135c557829003601f168201915b5050509183525050600282810180546040805160206001841615610100026000190190931694909404601f810183900483028501830190915280845293810193908301828280156136745780601f1061364957610100808354040283529160200191613674565b820191906000526020600020905b81548152906001019060200180831161365757829003601f168201915b505050918352505060038201805460408051602060026001851615610100026000190190941693909304601f81018490048402820184019092528181529382019392918301828280156137085780601f106136dd57610100808354040283529160200191613708565b820191906000526020600020905b8154815290600101906020018083116136eb57829003601f168201915b505050918352505060048201805460408051602060026001851615610100026000190190941693909304601f810184900484028201840190925281815293820193929183018282801561379c5780601f106137715761010080835404028352916020019161379c565b820191906000526020600020905b81548152906001019060200180831161377f57829003601f168201915b505050918352505060058201805460408051602060026001851615610100026000190190941693909304601f81018490048402820184019092528181529382019392918301828280156138305780601f1061380557610100808354040283529160200191613830565b820191906000526020600020905b81548152906001019060200180831161381357829003601f168201915b50505091835250506006820154600160a060020a031660208083019190915260078301805460408051601f600260001960018616156101000201909416939093049283018590048502810185018252828152940193928301828280156138d75780601f106138ac576101008083540402835291602001916138d7565b820191906000526020600020905b8154815290600101906020018083116138ba57829003601f168201915b50505050508152505081526020019060010190613497565b5050505081525050915061390284613ea2565b825160408401516060850151608086015160e087015160c088015160a089015161392b90613ea2565b89610100015160405160200180807f7b00000000000000000000000000000000000000000000000000000000000000815250600101807f2261646472657373223a22000000000000000000000000000000000000000000815250600b018a805190602001908083835b602083106139b35780518252601f199092019160209182019101613994565b51815160209384036101000a60001901801990921691161790527f222c226e616d65223a2200000000000000000000000000000000000000000000919093019081528b51600a909101928c0191508083835b60208310613a245780518252601f199092019160209182019101613a05565b51815160209384036101000a60001901801990921691161790527f222c2263757270223a2200000000000000000000000000000000000000000000919093019081528a51600a909101928b0191508083835b60208310613a955780518252601f199092019160209182019101613a76565b51815160209384036101000a60001901801990921691161790527f222c226269727468646179223a22000000000000000000000000000000000000919093019081528951600e909101928a0191508083835b60208310613b065780518252601f199092019160209182019101613ae7565b51815160209384036101000a60001901801990921691161790527f222c22626c6f6f64223a22000000000000000000000000000000000000000000919093019081528851600b90910192890191508083835b60208310613b775780518252601f199092019160209182019101613b58565b51815160209384036101000a60001901801990921691161790527f222c226d6f62696c65223a220000000000000000000000000000000000000000919093019081528751600c90910192880191508083835b60208310613be85780518252601f199092019160209182019101613bc9565b51815160209384036101000a60001901801990921691161790527f222c2267656e7265223a22000000000000000000000000000000000000000000919093019081528651600b90910192870191508083835b60208310613c595780518252601f199092019160209182019101613c3a565b51815160209384036101000a60001901801990921691161790527f222c22637265617465644279223a220000000000000000000000000000000000919093019081528551600f90910192860191508083835b60208310613cca5780518252601f199092019160209182019101613cab565b51815160209384036101000a60001901801990921691161790527f222c226861736850726f66696c65496d67223a22000000000000000000000000919093019081528451601490910192850191508083835b60208310613d3b5780518252601f199092019160209182019101613d1c565b5181516020939093036101000a60001901801990911692169190911790527f227d00000000000000000000000000000000000000000000000000000000000092019182525060408051808303601d19018152600290920190529e9d5050505050505050505050505050565b600160a060020a031660009081526002602052604090205460ff1690565b60008160001916836040516020018082805190602001908083835b60208310613dfe5780518252601f199092019160209182019101613ddf565b6001836020036101000a0380198251168184511680821785525050505050509050019150506040516020818303038152906040526040518082805190602001908083835b60208310613e615780518252601f199092019160209182019101613e42565b6001836020036101000a0380198251168184511680821785525050505050509050019150506040518091039020600019161415613e9c575060015b92915050565b604080518082018252601081527f303132333435363738396162636465660000000000000000000000000000000060208201528151602a8082526060828101909452600160a060020a03851692918491600091908160200160208202803883390190505091507f3000000000000000000000000000000000000000000000000000000000000000826000815181101515613f3857fe5b906020010190600160f860020a031916908160001a9053507f7800000000000000000000000000000000000000000000000000000000000000826001815181101515613f8057fe5b906020010190600160f860020a031916908160001a905350600090505b60148110156140a15782600485600c840160208110613fb857fe5b1a60f860020a02600160f860020a0319169060020a900460f860020a900460ff16815181101515613fe557fe5b90602001015160f860020a900460f860020a02828260020260020181518110151561400c57fe5b906020010190600160f860020a031916908160001a9053508284600c83016020811061403457fe5b1a60f860020a02600f60f860020a021660f860020a900460ff1681518110151561405a57fe5b90602001015160f860020a900460f860020a02828260020260030181518110151561408157fe5b906020010190600160f860020a031916908160001a905350600101613f9d565b50949350505050565b6000806000803385426040516020018084600160a060020a0316600160a060020a03166c0100000000000000000000000002815260140183600160a060020a0316600160a060020a03166c0100000000000000000000000002815260140182815260200193505050506040516020818303038152906040526040518082805190602001908083835b602083106141515780518252601f199092019160209182019101614132565b5181516020939093036101000a60001901801990911692169190911790526040519201829003909120955060009450601393505050505b60008160010111156141cc57600181601460ff16030360020260100a83826014811015156141b257fe5b60f860020a91901a81020402919091019060001901614188565b509392505050565b60606000808083818087151561421f5760408051808201909152600181527f3000000000000000000000000000000000000000000000000000000000000000602082015296506142db565b8795505b851561423a57601090950494600190940193614223565b600f9350846040519080825280601f01601f19166020018201604052801561426c578160200160208202803883390190505b5092506001850391505b87156142d7575086831660098111614297578060300160f860020a026142a2565b8060370160f860020a025b8351600019840193859181106142b457fe5b906020010190600160f860020a031916908160001a905350601090970496614276565b8296505b505050505050919050565b6101406040519081016040528060608152602001600080191681526020016060815260200160608152602001606081526020016000600160a060020a03168152602001606081526020016060815260200160608152602001606081525090565b610100604051908101604052806060815260200160608152602001606081526020016060815260200160608152602001606081526020016000600160a060020a03168152602001606081525090565b828054600181600116156101000203166002900490600052602060002090601f016020900481019282601f106143d657805160ff1916838001178555614403565b82800160010185558215614403579182015b828111156144035782518255916020019190600101906143e8565b5061440f929150614413565b5090565b61442d91905b8082111561440f5760008155600101614419565b90560050617469656e74206973206e6f74207265676973746572656400000000000000a165627a7a72305820f286d83687e4d0bad38647e0ee35ef28a6bf569bd5b6cc1b4572e7ca7ce6291b0029",
  "source": "pragma solidity ^0.4.24;\n\ncontract Patient {\n\n    address private owner;\n\t// address private utilsContractAddress;\n\n\n\tstruct Patient {\n        string name;\n        bytes32 password;\n        string curp;\n        string birthday;\n        string blood;\n        address createdBy;\n        string genre;\n        string mobile;\n        string hashProfileImg;\n        Diagnosis[] history;\n    }\n    \n    struct Diagnosis {\n        string id;  // address doctor + address patient + creationDate\n        string creationDate;\n        string weight;\n        string height;\n        string description;\n        string observations;\n        address createdBy;\n\t\tstring hashFile;\n    }\n\n\t// Relations\n\tmapping(address => Patient) private patients;\n\n\tmapping (address => bool) private registeredPatients;  // Patients registered\n\n\taddress[] public listTotalPatients; // The list of registered patients\n\n    // constructor(address _utilsContractAddress) public {\n    constructor() public {\n\t\towner = msg.sender;\n\t\t// utilsContractAddress = _utilsContractAddress;\n\t}\n\n\t// register Patients\n\tfunction registerPatient(address patientAddress, string name, string curp, string birthday,\n\t\tstring blood, string mobile, string genre, string hashProfileImg, string password) public {\n\t    // require(doctorIsRegistered(msg.sender), \"The registering Doctor is not registered\");  // the doctor is registered\n\t\trequire(!patientIsRegistered(patientAddress), \"The Patient is already registered\");  // the new patient is not already registered\n\t\tPatient storage patient = patients[patientAddress];  // get and save patient\n\t\tpatient.name = name;\n\t\tpatient.curp = curp;\n\t\tpatient.createdBy = msg.sender;\n\t\tpatient.password = keccak256(abi.encodePacked(password));// hash password\n\t\tpatient.blood = blood;\n\t\tpatient.birthday = birthday;\n\t\tpatient.mobile = mobile;\n\t\tpatient.genre = genre;\n\t\tpatient.hashProfileImg = hashProfileImg;\n\t\tregisteredPatients[patientAddress] = true;  // save the senders address\n\t\tlistTotalPatients.push(patientAddress);\n\t}\n\n\t// login Patients\n\tfunction loginPatient(address addr, string password) public view returns (string) {  \n\t\t// require(doctorIsRegistered(msg.sender), \"Doctor is not registered\");  // check if the user is registered\n\t\trequire(patientIsRegistered(addr), \"Patient is not registered\");  // check if the user is registered\n\t\tPatient memory patient = patients[addr];\n\t\trequire(checkPassword(password, patient.password), \"Invalid password\");\n\t\tstring memory res = string(abi.encodePacked('{', '\"success\":', 'true', ',\"name\":\"', patient.name, '\"}'));\n\t\treturn res;\n\t}\n\n\t// get Patient data from address\n\tfunction getPatient(address patientAddress) public view returns (string) {  \n\t\t// require(doctorIsRegistered(msg.sender), \"Doctor is not registered\");  // check if the user is registered\n\t\trequire(patientIsRegistered(patientAddress), \"Patient is not registered\");  // check if the user is registered\n\t\tPatient memory p = patients[patientAddress];\n\t\tstring memory res = string(abi.encodePacked('{',\n\t\t\t'\"address\":\"', addressToString(patientAddress),\n\t\t\t'\",\"name\":\"', p.name, \n\t\t\t'\",\"curp\":\"', p.curp, \n\t\t\t'\",\"birthday\":\"', p.birthday, \n\t\t\t'\",\"blood\":\"', p.blood, \n\t\t\t'\",\"mobile\":\"', p.mobile, \n\t\t\t'\",\"genre\":\"', p.genre, \n\t\t\t'\",\"createdBy\":\"', addressToString(p.createdBy),\n\t\t\t'\",\"hashProfileImg\":\"', p.hashProfileImg,\n\t\t\t'\"}'));\n    \treturn res;\n\t}\n\n\t// check if the patient address is already registered\n\tfunction patientIsRegistered(address addr) private view returns (bool) {\n\t\treturn registeredPatients[addr];\n\t}\n\n\t// check password match\n\tfunction checkPassword(string password, bytes32 realPassword) internal pure returns (bool) {\n\t    if (keccak256(abi.encodePacked(password)) == realPassword) {\n\t        return true;\n        }\n\t}\n\n\t\t// add Diagnosis to History of Patient\n\tfunction addDiagnosisToPatient(address patientAddress, string creationDate, string weight, \n\t    string height, string description, string observations, string hashFile) public returns(string) {\n\t    // require(doctorIsRegistered(msg.sender), \"The registering Doctor is not registered\");  // the doctor is registered\n\t\trequire(patientIsRegistered(patientAddress), \"The Patient is not registered\");  // the new patient is not already registered\n\t\tPatient storage patient = patients[patientAddress];  // get and save doctor\n\t\t\n\t\t// d is the new Diagnosis\n\t\tDiagnosis memory d;\n\t\td.id = uint2hexstr(getUniqueId(patientAddress));\n\t\td.creationDate = creationDate;\n\t\td.weight = weight;\n\t\td.height = height;\n\t\td.description = description;\n\t\td.observations = observations;\n\t\td.createdBy = msg.sender;\n\t\td.hashFile = hashFile;\n\n\t\t// push the Diagnosis to history\n\t\tpatient.history.push(d);\n\t}\n\n\t// get History IDs by the patient address\n\tfunction getHistoryPatientByAddress(address patientAddr) public view returns (string) {  \n\t\t// require(doctorIsRegistered(msg.sender), \"Doctor is not registered\");  // check if the user is registered\n\t\trequire(patientIsRegistered(patientAddr), \"Patient is not registered\");  // check if the user is registered\n\t\tPatient memory patient = patients[patientAddr];\n\t\t\n\t\tif (patient.history.length > 0) {\n\t\t\tstring memory historyIds;\n\t\t\thistoryIds = patient.history[0].id;\n\t\t\tfor (uint i = 1; i < patient.history.length; i++) {\n\t\t\t\thistoryIds = string(abi.encodePacked(historyIds, \",\", patient.history[i].id));\n\t\t\t}\n\t\t\treturn historyIds;\n\t\t} else {\n\t\t\treturn \"\";\n\t\t}\n\t}\n\n\t// get Diagnosis from ID and patient address\n\tfunction getDiagnosisByIdAndAddress(string idDiagnosis, address patientAddr) public view returns (string) {  \n\t\t// require(doctorIsRegistered(msg.sender), \"Doctor is not registered\");  // check if the user is registered\n\t\trequire(patientIsRegistered(patientAddr), \"Patient is not registered\");  // check if the user is registered\n\t\tPatient memory patient = patients[patientAddr];\n\t\t\n\t\t// TODO\n\t\t// Diagnosis memory d = patient.history[id];\n\t\tDiagnosis memory d;\n\t\tfor (uint i = 0; i < patient.history.length; i++) {\n\t\t    if (keccak256(abi.encodePacked(patient.history[i].id)) == keccak256(abi.encodePacked(idDiagnosis))) {\n\t\t        d = patient.history[i];\n\t\t        break;\n\t\t    }\n\t\t}\n\n\t\tstring memory res = string(abi.encodePacked('{',\n\t\t\t'\"creationDate\":\"', d.creationDate,\n\t\t\t'\",\"weight\":\"', d.weight, \n\t\t\t'\",\"height\":\"', d.height,\n\t\t\t'\",\"createdBy\":\"', addressToString(d.createdBy),\n\t\t\t'\",\"description\":\"', d.description,\n\t\t\t'\",\"observations\":\"', d.observations,\n\t\t\t'\",\"hashFile\":\"', d.hashFile,\n\t\t\t'\"}'));\n\n\t\treturn res;\n\t}\n\n\tfunction listPatients(address docAddress) public view returns (address[] memory) {\n\t    // require(doctorIsRegistered(msg.sender), \"Doctor is not registered\");  // check if the user is registered\n\t\treturn listTotalPatients;\n\t}\n\n\t// Generate unique ID\n    function getUniqueId(address patientAddress) internal view returns (uint) {\n        // hash the msg.sender + patientAddress + date now\n        bytes20 b = bytes20(keccak256(abi.encodePacked(msg.sender, patientAddress, now)));  \n        uint id = 0;\n        for (uint index = b.length-1; index+1 > 0; index--) {\n            id += uint(b[index]) * ( 16 ** ((b.length - index - 1) * 2));\n        }\n        return id;\n    }\n\n\t// uint to string\n    function uint2hexstr(uint i) internal pure returns (string) {\n        if (i == 0) return \"0\";\n        uint j = i;\n        uint length;\n        while (j != 0) {\n            length++;\n            j = j >> 4;\n        }\n        uint mask = 15;\n        bytes memory bstr = new bytes(length);\n        uint k = length - 1;\n        while (i != 0){\n            uint curr = (i & mask);\n            bstr[k--] = curr > 9 ? byte(55 + curr ) : byte(48 + curr); // 55 = 65 - 10\n            i = i >> 4;\n        }\n        return string(bstr);\n    }\n\n\t// Address to string\n    function addressToString(address _addr) internal pure returns(string) {\n        bytes32 value = bytes32(uint256(_addr));\n        bytes memory alphabet = \"0123456789abcdef\";\n    \n        bytes memory str = new bytes(42);\n        str[0] = '0';\n        str[1] = 'x';\n        for (uint i = 0; i < 20; i++) {\n            str[2+i*2] = alphabet[uint(uint8(value[i + 12] >> 4))];\n            str[3+i*2] = alphabet[uint(uint8(value[i + 12] & 0x0f))];\n        }\n        return string(str);\n    }\n\n\t// function example() public view returns(string) {\n\t// \tUtils u = Utils(utilsContractAddress);\n\t// \treturn u.example();\n\t// }\n}\n\n// Interface for Doctor Contract\n// contract Utils {\n// \tfunction example() external view returns(string);\n// }\n\n",
  "sourcePath": "/Users/reyes/Apps/blockchain_back_cinv/medical-system/contracts/Patient.sol",
  "compiler": {
    "name": "solc",
    "version": "0.4.25+commit.59dbf8f1.Emscripten.clang"
  },
  "schemaVersion": "2.0.2",
  "updatedAt": "2020-04-28T00:11:10.959Z"
}